:100000000C942A000C9447000C9447000C94470071
:100010000C9447000C9447000C9447000C94470044
:100020000C9447000C9447000C9447000C94470034
:100030000C9447000C9414020C9449020C94720224
:100040000C9447000C9447000C9447000C94470014
:100050000C94470011241FBECFE5D8E0DEBFCDBF12
:1000600010E0A0E6B0E0EAEBF5E002C005900D92EA
:10007000AA38B107D9F720E0AAE8B0E001C01D9284
:10008000AB39B207E1F70E949B020C94D4020C94A6
:100090000000EF92FF920F931F93CF93DF93CDB7A2
:1000A000DEB72B970FB6F894DEBF0FBECDBF8BE047
:1000B000E0E6F0E0DE01119601900D928A95E1F7FD
:1000C000E980FA800B811C812D813E814F8158850A
:1000D00069857A858B850E9488002B960FB6F894E7
:1000E000DEBF0FBECDBFDF91CF911F910F91FF906B
:1000F000EF90089590E00C944B010E945A010895EE
:100100000C9478010C948D010E94FF010C94F30172
:10011000EF92FF920F931F93CF93DF93CDB7DEB78C
:100120002B970FB6F894DEBF0FBECDBFBE2DE98270
:10013000AF2DFA82902F0B83F12F1C83E22F2D839A
:100140003E834F8358876987172F7A87082F8B87BD
:100150004E815F8168857985E0928A00F0928B00FC
:1001600090938C00F0938D0020938E0040938F002D
:1001700050939000609391007093920010939300BD
:100180008093940080ECB13009F080E8A13009F44C
:1001900080C0E11531F0E23009F471C0E33009F4B8
:1001A00070C09930B8F45298990F892B80BDF13006
:1001B000B9F030F180E090E099B980BD5798569839
:1001C000559811501730E0F5E12FF0E0EA52FD4F5D
:1001D0000C94CE0259F78660529A80BDF13049F7EF
:1001E000599A440F551F661F771F440F551F661FEE
:1001F000771F9A01AB01220F331F441F551F13C0F5
:1002000059989A01AB01220F331F441F551F220F2B
:10021000331F441F551F220F331F441F551F220F2A
:10022000331F441F551F60E072E18AE790E00E948F
:10023000AC0221503109922F832FBECF569A559A86
:10024000013098F4549A53982B960FB6F894DEBF69
:100250000FBECDBFDF91CF911F910F91FF90EF9017
:100260000895579A569A013068F381F0023061F789
:10027000549A539AE9CF569A559A579AE1CF806289
:1002800090CF80638ECF579A559ADACF539A54986D
:10029000DBCF88607ECF9C015D9BFECF80918C0080
:1002A000893011F02CB90895509830FFFBCF509A47
:1002B0002CB9089580E090E005C00196813523ECCB
:1002C000920799F05F9BF9CF80918C00893029F0DB
:1002D00080E090E02CB1822B089588275199839576
:1002E000880F990B2CB1822B08958FEF9FEF089503
:1002F000DC019C91911581F020E080918C005D9B48
:10030000FECF893009F450989CB92F5FFD01E20FB0
:10031000F11D90819111F3CF0895DC0180E090E010
:10032000109731F408950196813523EC920789F1F5
:100330005F9BF9CF80918C0020E0893029F422273F
:1003400051992395220F331F8CB1822B8C938617E2
:10035000E1F040918C00FD01319680E090E005C015
:100360000196813523EC920791F05F9BF9CF20E055
:10037000493029F4222751992395220F330B8CB150
:10038000822BDF0181938613E8CF1C9208958FEFB3
:10039000F8CF8FEFDBCF6115710579F0FC01680FA5
:1003A000791F90918C0081915D9BFECF993009F46B
:1003B00050988CB9E617F707B1F708959C01809122
:1003C0008C00893011F02CB90895509830FFFBCF84
:1003D000509A2CB90895549A0895539A08955498B0
:1003E000089553980895579A0895569A0895559ADE
:1003F0000895579808955698089555980895009728
:1004000021F08093990090939A000895009721F02D
:1004100080939700909398000895009721F080931F
:1004200095009093960008951F920F920FB60F9229
:1004300011242F933F934F935F936F937F938F93E9
:100440009F93AF93BF93EF93FF93E0919900F09147
:100450009A00309741F080918C0090E08930A1F0B3
:100460002CB1822F0995FF91EF91BF91AF919F9190
:100470008F917F916F915F914F913F912F910F904D
:100480000FBE0F901F901895882751998395982F2C
:10049000E7CF1F920F920FB60F9211242F933F9325
:1004A0004F935F936F937F938F939F93AF93BF937C
:1004B000EF93FF93E0919500F0919600309709F04B
:1004C0000995FF91EF91BF91AF919F918F917F918E
:1004D0006F915F914F913F912F910F900FBE0F90B1
:1004E0001F9018951F920F920FB60F9211242F9301
:1004F0003F934F935F936F937F938F939F93AF93AC
:10050000BF93EF93FF93E0919700F091980030979D
:1005100009F00995FF91EF91BF91AF919F918F9154
:100520007F916F915F914F913F912F910F900FBEEF
:100530000F901F9018950E9449008BE690E00E9452
:1005400080000E947D008F3FE1F30E947A000E94AC
:100550007D008F3FB1F3F9CFA1E21A2EAA1BBB1B7E
:10056000FD010DC0AA1FBB1FEE1FFF1FA217B3077F
:10057000E407F50720F0A21BB30BE40BF50B661F95
:10058000771F881F991F1A9469F760957095809559
:1005900090959B01AC01BD01CF010895EE0FFF1FA7
:1005A0000590F491E02D0994F894FFCF3D013201BC
:0A05B0001F01310143011E013B0150
:1005BA00000003000080250000000248656C6C6F93
:1005CA002076696120426C7565746F6F746820507B
:0A05DA006F6C6C696E67210D0A005A
:00000001FF
