:100000000C942A000C943F000C943F000C943F0089
:100010000C943F000C943F000C943F000C943F0064
:100020000C943F000C943F000C943F000C943F0054
:100030000C943F000C943F000C943F000C943F0044
:100040000C943F000C943F000C943F000C943F0034
:100050000C943F0011241FBECFE5D8E0DEBFCDBF1A
:1000600010E0A0E6B0E0E8E8F9E002C005900D92EB
:10007000AC37B107D9F70E943D040C94C2040C942C
:10008000000040E064E080E00C94F402AF92BF9284
:10009000CF92DF92EF92FF920F931F93CF93DF9354
:1000A000CDB7DEB72A970FB6F894DEBF0FBECDBF2F
:1000B0008F83988769877A875E018FEFA81AB80ABD
:1000C00085E0F50111928A95E9F781E08E838F81B1
:1000D0009885892B09F4AAC0E985FA85EF2B09F4E4
:1000E000A5C041E064E080E00E94F40240E064E0EA
:1000F00080E00E9456038FE99CE80197F1F700C069
:10010000000041E064E080E00E94560390E59A958B
:10011000F1F740E064E080E00E94F40258EEE52E42
:1001200053E0F52E8E010A5F1F4FA80164E080E0C6
:100130000E94B803E1E0EE1AF10809F477C08E815D
:10014000813099F348EEE42E43E0F42EA80164E0F8
:1001500080E00E94B803F1E0EF1AF10809F466C0EC
:100160008E81811599F338EEE32E33E0F32EA8014A
:1001700064E080E00E94B80381E0E81AF10809F425
:1001800055C08E81813099F387E0C82ED12C28EE9E
:10019000E22E23E0F22EA80164E080E00E94B80382
:1001A00091E0E91AF10809F441C08E81811599F3B3
:1001B000EAE6EA95F1F700C0A80164E080E00E9459
:1001C000B803F501808121E00C2C01C0220F0A94B4
:1001D000EAF79E81913009F43BC020958223F50116
:1001E000808398EEE92E93E0F92EA80164E080E088
:1001F0000E94B803F1E0EF1AF108C1F08E8181305E
:10020000A1F381E0C81AD10810F6EFEFAE1ABE0ACA
:100210000A151B0509F0B8CF29819B818A81820FBD
:10022000890F3C81830F3D813817A1F08FEF2A960B
:100230000FB6F894DEBF0FBECDBFDF91CF911F91F7
:100240000F91FF90EF90DF90CF90BF90AF90089507
:10025000822BC5CFEF81F8852083E985FA859083CD
:1002600080E0E5CFCF93DF930F92CDB7DEB78983E0
:10027000613009F443C020F00F90DF91CF910895D1
:1002800041E066E081E00E94560340E065E081E0E5
:100290000E9456036981607F83E00E94120441E05E
:1002A00064E081E00E9456038FEC97E00197F1F73C
:1002B00000C0000040E064E081E00E9456038FEC43
:1002C00097E00197F1F700C0000069816295607FB7
:1002D00083E00E94120441E064E081E00E94560342
:1002E0008FEC97E00197F1F700C0000040E064E078
:1002F00081E00F90DF91CF910C94560341E066E0CE
:1003000081E00E94560340E065E081E00E945603D0
:100310006981DECFCF93DF930F92CDB7DEB78983AC
:10032000613009F443C020F00F90DF91CF91089520
:1003300040E066E081E00E94560340E065E081E035
:100340000E9456036981607F83E00E94120441E0AD
:1003500064E081E00E9456038FEC97E00197F1F78B
:1003600000C0000040E064E081E00E9456038FEC92
:1003700097E00197F1F700C0000069816295607F06
:1003800083E00E94120441E064E081E00E94560391
:100390008FEC97E00197F1F700C0000040E064E0C7
:1003A00081E00F90DF91CF910C94560340E066E01E
:1003B00081E00E94560340E065E081E00E94560320
:1003C0006981DECFCF93C82F41E066E081E00E94D3
:1003D000F40241E065E081E00E94F40241E064E063
:1003E00081E00E94F402C13009F444C010F0CF91C2
:1003F000089560EF83E00E9402049FEB2AED80E005
:10040000915020408040E1F700C0000060E082E0B1
:100410000E948A018FEC97E00197F1F700C000007D
:1004200060E088E20E948A018FEC97E00197F1F783
:1004300000C0000060E08EE00E948A018FEC97E02F
:100440000197F1F700C0000060E081E00E948A019E
:100450008FE99FE00197F1F700C0000060E086E0BF
:100460000E948A018FEC97E00197F1F700C000002D
:10047000CF9108956FEF83E00E9402042FEB8AED85
:1004800090E0215080409040E1F700C0000061E022
:1004900088E30E948A018FEC97E00197F1F700C092
:1004A000000061E08EE00E948A018FEC97E00197E6
:1004B000F1F700C0000061E081E00E948A018FE94D
:1004C0009FE00197F1F700C0000061E0C8CF0F93F3
:1004D0001F93CF93DF938C01009751F1FC01C081F2
:1004E000C11531F1D0E041E066E081E00E945603A1
:1004F00040E065E081E00E9456036C2F83E00E949B
:10050000120441E064E081E00E9456038FEC97E022
:100510000197F1F700C0000040E064E081E00E9434
:100520005603DF5FF801ED0FF11DC081C111DBCF74
:10053000DF91CF911F910F910895CF93DF930F9289
:10054000CDB7DEB7813028F019F080E8898303C089
:10055000605C6068698340E066E081E00E94560369
:1005600040E065E081E00E945603698183E00E94DB
:10057000120441E064E081E00E9456038FEC97E0B2
:100580000197F1F700C0000040E064E081E00F90C7
:10059000DF91CF910C945603CF93DF930F92CDB799
:1005A000DEB7898341E066E081E00E94560340E0C7
:1005B00065E081E00E9456036981605D83E00E94EE
:1005C000120441E064E081E00E9456038FEC97E062
:1005D0000197F1F700C0000040E064E081E00F9077
:1005E000DF91CF910C9456034130F9F0E8F482305A
:1005F00009F446C068F4811509F44CC027B381E0C2
:1006000001C0880F6A95EAF78095822387BB089519
:10061000833009F04AC021B381E001C0880F6A9598
:10062000EAF78095822381BB08958230B9F058F4AF
:100630008115E9F087B321E001C0220F6A95EAF73E
:10064000822B87BB0895833079F581B321E001C007
:10065000220F6A95EAF7822B81BB089584B321E0CB
:1006600001C0220F6A95EAF7822B84BB08958AB3F2
:1006700021E001C0220F6A95EAF7822B8ABB089518
:1006800024B381E001C0880F6A95EAF78095822340
:1006900084BB08952AB381E001C0880F6A95EAF708
:1006A000809582238ABB0895089508954130F9F01A
:1006B000E8F4823009F446C068F4811509F44CC0AE
:1006C00028B381E001C0880F6A95EAF780958223FC
:1006D00088BB0895833009F04AC022B381E001C08D
:1006E000880F6A95EAF78095822382BB089582304D
:1006F000B9F058F48115E9F088B321E001C0220F68
:100700006A95EAF7822B88BB0895833079F582B326
:1007100021E001C0220F6A95EAF7822B82BB08957F
:1007200085B321E001C0220F6A95EAF7822B85BBD1
:1007300008958BB321E001C0220F6A95EAF7822B5E
:100740008BBB089525B381E001C0880F6A95EAF755
:100750008095822385BB08952BB381E001C0880F6B
:100760006A95EAF7809582238BBB089508950895D2
:1007700041155105A1F0843090F4683080F4823046
:1007800099F0833079F0813059F486B390E002C05B
:10079000959587956A95E2F78170FA0180830895AF
:1007A00089B3F4CF80B3F2CF83B3F0CF8230B9F006
:1007B00058F48115E9F088B321E001C0220F6A9551
:1007C000EAF7822788BB08958330D9F482B321E009
:1007D00001C0220F6A95EAF7822782BB089585B38C
:1007E00021E001C0220F6A95EAF7822785BB0895B0
:1007F0008BB321E001C0220F6A95EAF782278BBBF9
:1008000008950895823049F020F4811541F067BBC6
:100810000895833031F461BB089564BB08956ABBC9
:1008200008950895823049F020F4811541F068BBA5
:100830000895833031F462BB089565BB08956BBBA6
:10084000089508956115710571F0823091F030F4CA
:10085000811559F086B3FB0180830895833021F41C
:1008600080B3FB0180830895089589B3FB018083E1
:10087000089583B3FB0180830895CF93DF9300D065
:10088000CDB7DEB71A8219820E94410081E00E9432
:10089000E2012FE788E391E0215080409040E1F7AA
:1008A00000C0000060E080E00E949D0261E080E600
:1008B00090E00E94670260E081E00E949D0261E09A
:1008C00087E690E00E9467021DEC48C066E00E9447
:1008D0009D028981819F812D11248695869586951B
:1008E0000E94CC028981819F212D11242695269575
:1008F0002695922F990F990F920F990F891B0E949D
:10090000CC0261E083E40E94320166E081E00E9453
:100910009D028A81819F812D1124869586958695D9
:100920000E94CC028A81819F212D11242695269533
:100930002695922F990F990F920F990F891B0E945C
:10094000CC0261E085E20E9432012FEF83ED90E35B
:10095000215080409040E1F700C00000BE016F5F71
:100960007F4FCE0102960E944600811509F4AECF5A
:1009700060E080E00E949D0261E08EE690E00E94CF
:080980006702E3CFF894FFCFFA
:1009880054656D703A200048756D203A2000536513
:0C0998006E736F72204572726F72000067
:00000001FF
