:100000000C942A000C9447000C9447000C94470071
:100010000C9447000C9447000C9447000C94470044
:100020000C9447000C9447000C9447000C94470034
:100030000C9447000C9447000C9447000C94470024
:100040000C9447000C9447000C9447000C94470014
:100050000C94470011241FBECFE5D8E0DEBFCDBF12
:1000600010E0A0E6B0E0E4E8F2E102C005900D92F5
:10007000AE39B107D9F720E0AEE9B0E001C01D927A
:10008000A23BB207E1F70E9403070C9440090C94CD
:1000900000008F929F92AF92BF92CF92DF92EF9229
:1000A000FF920F931F93CF93DF93CDB7DEB76C977B
:1000B0000FB6F894DEBF0FBECDBF8AE0E0E6F0E0F9
:1000C000DE01539601900D928A95E1F782E1EAE60E
:1000D000F0E0DE01119601900D928A95E1F70B890F
:1000E0001C892D893E894F89588D698D7A8D8B8D1C
:1000F0009C8D0E94DA0389809A80AB80BC80CD8081
:10010000DE80EF80F88409851A852B853C854D8536
:100110005E856F85788989899A890E94590540E0B2
:1001200060E080E00E94620440E061E081E00E94C3
:10013000620440E062E082E06C960FB6F894DEBFA5
:100140000FBECDBFDF91CF911F910F91FF90EF9028
:10015000DF90CF90BF90AF909F908F900C946204EF
:1001600080E090E00E94540480E090E00E945404FB
:10017000BC0180E090E00E94450823E333E343E5BF
:1001800050E40E94D30820E030EC4FE754E40E9492
:10019000A4072DEC3CEC4CEC5FE30E94370723EC0A
:1001A00035EF48EA5EE30E94A407089581E090E0FD
:1001B0000E94540481E090E00E945404BC0180E05D
:1001C00090E00E94450823E333E343E550E40E94B6
:1001D000D30820E030EC4FE754E40E94A4072DEC54
:1001E0003CEC4CEC5FE30E94370723EC35EF48EA28
:1001F0005EE30E94A407089582E090E00E94540408
:1002000082E090E00E945404BC0180E090E00E94F3
:10021000450823E333E343E550E40E94D30820E09C
:1002200030EC4FE754E40E94A4072DEC3CEC4CEC7E
:100230005FE30E94370723EC35EF48EA5EE30E9454
:10024000A40708958CE790E00E944D0680E090E0BE
:100250000E94540480E090E00E945404BC0180E0BD
:1002600090E00E94450823E333E343E550E40E9415
:10027000D30820E030EC4FE754E40E94A4072DECB3
:100280003CEC4CEC5FE30E94370723EC35EF48EA87
:100290005EE30E94A4070E941608862F0E9496061D
:1002A00085E890E00C944D0688E890E00E944D06A9
:1002B00081E090E00E94540481E090E00E945404A8
:1002C000BC0180E090E00E94450823E333E343E56E
:1002D00050E40E94D30820E030EC4FE754E40E9441
:1002E000A4072DEC3CEC4CEC5FE30E94370723ECB9
:1002F00035EF48EA5EE30E94A4070E941608862FA5
:100300000E94960685E890E00C944D0681E990E005
:100310000E944D0682E090E00E94540482E090E04A
:100320000E945404BC0180E090E00E94450823E351
:1003300033E343E550E40E94D30820E030EC4FE77C
:1003400054E40E94A4072DEC3CEC4CEC5FE30E94CB
:10035000370723EC35EF48EA5EE30E94A4070E94CA
:100360001608862F0E94960685E890E00C944D06AC
:100370000E9422010E9454010C948601CF93C82F41
:1003800080919E00813020F009F45FC0CF910895E4
:1003900041E062E082E00E949D04C4FB442740F9F2
:1003A00064E082E00E949D04C5FB442740F965E0BB
:1003B00082E00E949D04C6FB442740F966E082E08B
:1003C0000E949D04C7FB442740F967E082E00E9439
:1003D0009D0441E063E082E00E949D048FEC97E081
:1003E0000197F1F700C0000040E063E082E00E9466
:1003F0009D044C2F417064E082E00E949D04C1FB8B
:10040000442740F965E082E00E949D04C2FB442736
:1004100040F966E082E00E949D04C3FB442740F956
:1004200067E082E00E949D0441E063E082E00E9478
:100430009D048FEC97E00197F1F700C0000040E0C9
:1004400063E082E0CF910C949D0441E062E082E0A1
:100450000E949D046C2F82E00E943705E5CFCF9368
:10046000C82F80919E00813020F009F45FC0CF91A9
:10047000089540E062E082E00E949D04C4FB4427AE
:1004800040F964E082E00E949D04C5FB442740F9E6
:1004900065E082E00E949D04C6FB442740F966E0C7
:1004A00082E00E949D04C7FB442740F967E082E098
:1004B0000E949D0441E063E082E00E949D048FEC75
:1004C00097E00197F1F700C0000040E063E082E0B0
:1004D0000E949D044C2F417064E082E00E949D04C4
:1004E000C1FB442740F965E082E00E949D04C2FB05
:1004F000442740F966E082E00E949D04C3FB442744
:1005000040F967E082E00E949D0441E063E082E000
:100510000E949D048FEC97E00197F1F700C0000066
:1005200040E063E082E0CF910C949D0440E062E003
:1005300082E00E949D046C2F82E00E943705E5CF87
:10054000CF93C82F813020F009F44AC0CF9108958D
:1005500060EF82E00E94270541E062E082E00E94B5
:10056000620441E063E082E00E9462042FEB8AEDC6
:1005700090E0215080409040E1F700C0000082E010
:100580000E942F028FE99FE00197F1F700C0000061
:1005900088E20E942F028FEC97E00197F1F700C0EC
:1005A00000008CE00E942F028FEC97E00197F1F79A
:1005B00000C0000081E00E942F028FE99FE00197B8
:1005C000F1F700C0000086E00E942F028FEC97E058
:1005D0000197F1F700C0000010929E00CF9108959E
:1005E0006FEF82E00E94270541E062E082E00E9416
:1005F000620441E063E082E00E9462049FEB2AED26
:1006000080E0915020408040E1F700C0000088E386
:100610000E942F028FEC97E00197F1F700C00000D5
:100620008EE00E942F028FEC97E00197F1F700C057
:10063000000081E00E942F028FE99FE00197F1F70F
:1006400000C0000086E00E942F028FEC97E0019727
:10065000F1F700C00000C0939E00CF9108950F9362
:100660001F93CF938C01FC018081811551F0C0E074
:100670000E94BE01CF5FF801EC0FF11D8081811156
:10068000F7CFCF911F910F910895813048F029F451
:1006900080E4860F80680C942F0280E80C942F026F
:1006A000862F80680C942F02EF92FF920F931F9376
:1006B000CF93DF93CDB7DEB72A970FB6F894DEBF9E
:1006C0000FBECDBF9C01892B09F454C070E08E0190
:1006D0000F5F1F4F9DECE92E4DEC5CEC922F929535
:1006E0009F70822F8F70890F932F9F70890F932F88
:1006F00092959F70890F8E9D912D1124692F66957B
:1007000066959C77960F891BD901A81BB109A49FF8
:10071000F001A59FF00DB49FF00D1124E0FD8B5F5B
:10072000972F7F5FD801A90FB11D805D8C93D901F0
:100730009F01369527951A9788F697FD0EC0780188
:100740008FEFE81AF80AE90EF11CF70182917F0198
:100750000E94BE01E016F106C1F72A960FB6F89482
:10076000DEBF0FBECDBFDF91CF911F910F91FF90E4
:10077000EF90089580E32A960FB6F894DEBF0FBE7F
:10078000CDBFDF91CF911F910F91FF90EF900C940F
:10079000BE018130910559F08230910529F0892BF5
:1007A00029F43E983F9808953E9A3F9A08953E9ABC
:1007B0003F9808950F931F93CF93DF93CDB7DEB784
:1007C0002A970FB6F894DEBF0FBECDBF09831A83F8
:1007D0002B833C834D835E836F83788789879A87D9
:1007E00089819A810E94C9038B819C81019708F1BC
:1007F000D9F090B79F718985892B80BF96B1987F7A
:100800008F81892B86B997B1907E8D81892B87B98D
:10081000379A2A960FB6F894DEBF0FBECDBFDF9190
:10082000CF911F910F9108953D9A81E080939F0091
:10083000E0CF3D9810929F00DCCF379A089537980B
:100840000895019738F009F008953D9A81E080936A
:100850009F0008953D9810929F000895369A08953C
:1008600097B1907E892B87B9089596B1987F892B8F
:1008700086B9089590B79F71892B80BF089584B180
:1008800025B1369A349BFECF349A922F20919F0047
:10089000211549F00024880F991F001C880F991F0B
:1008A000001C892F902D089597B1907E892B87B9D0
:1008B0000C943F04359A089535980895339A089515
:1008C00033980895843020F4683010F4423008F0F2
:1008D000089521E001C0220F6A95EAF7413079F0CE
:1008E00020958230B1F0833031F08130B1F08AB39D
:1008F00082238ABB089581B3822381BB089582300D
:10090000C1F0833091F0813061F08AB3822B8ABBD1
:10091000089584B3822384BB089587B3822387BB61
:10092000089587B3822B87BB089581B3822B81BB47
:10093000089584B3822B84BB0895843020F46830FA
:1009400010F4423008F0089521E001C0220F6A95AA
:10095000EAF7413079F020958230B1F0833031F000
:100960008130B1F08BB382238BBB089582B3822395
:1009700082BB08958230C1F0833091F0813061F004
:100980008BB3822B8BBB089585B3822385BB0895DF
:1009900088B3822388BB089588B3822B88BB0895CF
:1009A00082B3822B82BB089585B3822B85BB0895C9
:1009B000843088F4683078F4823009F18330B1F003
:1009C000813059F089B390E002C0959587956A957A
:1009D000E2F78170089580E0089586B390E002C048
:1009E000959587956A95E2F78170089580B390E0B8
:1009F00002C0959587956A95E2F78170089583B353
:100A000090E002C0959587956A95E2F78170089508
:100A10008430A0F4683090F421E001C0220F6A9580
:100A2000EAF7823061F0833031F0813061F08BB3CE
:100A300082278BBB089582B3822782BB089585B33A
:100A4000822785BB089588B3822788BB08958430A8
:100A500048F4823051F0833021F0813021F06ABBBC
:100A6000089561BB089567BB089564BB0895843001
:100A700048F4823051F0833021F0813021F06BBB9B
:100A8000089562BB089568BB089565BB08958430DE
:100A900040F4823051F0833051F0813021F089B33D
:100AA000089580E0089586B3089583B3089580B3D0
:100AB00008958F929F92AF92BF92CF92DF92EF9262
:100AC000FF920F931F93CF93DF93CDB7DEB762975B
:100AD0000FB6F894DEBF0FBECDBF89829A82AB827B
:100AE000BC82CD82DE82EF82F88609871A872B8747
:100AF0003C874D875E876F87788B898B9A8BC980FF
:100B0000DA80EB80FC804D815E818F8198856B85DA
:100B10007C850D851E858F849888A988BA8822E1F6
:100B2000FE013196A0EAB0E001900D922A95E1F71E
:100B3000CA94CD2809F48AC020E84130510530F02C
:100B400009F468C04230510509F47BC0EA94EF28EB
:100B500009F465C08130910578F069F08230910523
:100B600009F476C08330910509F46DC0049729F427
:100B70002660529A02C02260529820BD61307105F1
:100B8000B8F55998880C991CAA1CBB1C880C991C98
:100B9000AA1CBB1C9401A501220F331F441F551F23
:100BA000220F331F441F551F60E072E18AE790E077
:100BB0000E94150721503109922F832F99B980BDCA
:100BC00001301105E8F4549A539862960FB6F894E0
:100BD000DEBF0FBECDBFDF91CF911F910F91FF9070
:100BE000EF90DF90CF90BF90AF909F908F9008953F
:100BF000C1F080E090E099B980BD0130110518F393
:100C000031F00230110509F7549A539ADECF549807
:100C1000539ADBCF2062EA94EF2809F09BCF28603B
:100C200099CF599A880C991CAA1CBB1C880C991C3A
:100C3000AA1CBB1C9401A501220F331F441F551F82
:100C4000B3CF206383CF2660529897CF20EC75CF27
:100C50002460529892CF9C015D9BFECF8091A600AC
:100C60009091A700049711F02CB90895509830FF87
:100C7000FBCF509A2CB908955F9BFECF8091A600C0
:100C80009091A700049721F090E02CB1822F089555
:100C9000882751998395982FF8CFDC019C91911565
:100CA00099F020E04091A6005091A7005D9BFECFF7
:100CB0004430510509F450989CB92F5FFD01E20FB3
:100CC000F11D90819111F2CF0895CF93DF93DC0154
:100CD000892BF9F05F9BFECFC091A600D091A700B1
:100CE000C430D105C9F02CB12C936217E1F090E02B
:100CF0009F5F5F9BFECFC430D10519F42227519925
:100D000023954CB1FD01E90FF11D40836413F0CF31
:100D10001082DF91CF9108958827519983952CB146
:100D20002C936213E4CFFD011082F3CFCF93DF93B6
:100D3000CDB7DEB72A970FB6F894DEBF0FBECDBF92
:100D400030E05DEC811509F445C0FE013196E30FFA
:100D5000F11D37FDFA95859F912D11249695969555
:100D60009695292F220F220F290F220F482F421B61
:100D7000242F205D2083432F3F5F282F892F2A3087
:100D800020F747FD1EC0842F942F990F990BFE0169
:100D90003296E80FF91F9E012F5F3F4F820F931F7E
:100DA000841B91094091A6005091A70022915D9B60
:100DB000FECF4430510509F450982CB9E817F907D3
:100DC000A9F72A960FB6F894DEBF0FBECDBFDF910C
:100DD000CF9108955D9BFECF8091A6009091A700D2
:100DE000049719F080E38CB9ECCF5098FBCF88279B
:100DF0005F9983950895549A0895539A0895549845
:100E00000895539808950E9449000E94B8018AE904
:100E100090E00E944D062FEF84E39CE0215080403B
:100E20009040E1F700C00000F0CFA1E21A2EAA1B0B
:100E3000BB1BFD010DC0AA1FBB1FEE1FFF1FA2178A
:100E4000B307E407F50720F0A21BB30BE40BF50B87
:100E5000661F771F881F991F1A9469F76095709510
:100E6000809590959B01AC01BD01CF01089550582C
:100E7000BB27AA270E944F070C9499080E948B0851
:100E800038F00E94920820F039F49F3F19F426F4BC
:100E90000C9488080EF4E095E7FB0C948208E92F87
:100EA0000E94AA0858F3BA176207730784079507C8
:100EB00020F079F4A6F50C94CC080EF4E0950B2EF6
:100EC000BA2FA02D0B01B90190010C01CA01A0019C
:100ED0001124FF27591B99F0593F50F4503E68F1F7
:100EE0001A16F040A22F232F342F4427585FF3CF38
:100EF000469537952795A795F0405395C9F77EF409
:100F00001F16BA0B620B730B840BBAF09150A1F051
:100F1000FF0FBB1F661F771F881FC2F70EC0BA0FD7
:100F2000621F731F841F48F4879577956795B7955F
:100F3000F7959E3F08F0B0CF9395880F08F099275A
:100F4000EE0F9795879508950E94B8070C9499081D
:100F50000E94920858F00E948B0840F029F45F3FED
:100F600029F00C94820851110C94CD080C94880837
:100F70000E94AA0868F39923B1F3552391F3951BB6
:100F8000550BBB27AA2762177307840738F09F5FAA
:100F90005F4F220F331F441FAA1FA9F335D00E2E17
:100FA0003AF0E0E832D091505040E695001CCAF784
:100FB0002BD0FE2F29D0660F771F881FBB1F261747
:100FC00037074807AB07B0E809F0BB0B802DBF011E
:100FD000FF2793585F4F3AF09E3F510578F00C94ED
:100FE00082080C94CD085F3FE4F3983ED4F38695D5
:100FF00077956795B795F7959F5FC9F7880F911D0E
:101000009695879597F90895E1E0660F771F881FF9
:10101000BB1F621773078407BA0720F0621B730BAC
:10102000840BBA0BEE1F88F7E09508950E94B20872
:1010300088F09F5798F0B92F9927B751B0F0E1F099
:10104000660F771F881F991F1AF0BA95C9F714C049
:10105000B13091F00E94CC08B1E008950C94CC0816
:10106000672F782F8827B85F39F0B93FCCF3869582
:1010700077956795B395D9F73EF4909580957095DF
:1010800061957F4F8F4F9F4F0895E89409C097FB5C
:101090003EF490958095709561957F4F8F4F9F4F4F
:1010A0009923A9F0F92F96E9BB279395F695879593
:1010B00077956795B795F111F8CFFAF4BB0F11F456
:1010C00060FF1BC06F5F7F4F8F4F9F4F16C08823FD
:1010D00011F096E911C0772321F09EE8872F762F33
:1010E00005C0662371F096E8862F70E060E02AF074
:1010F0009A95660F771F881FDAF7880F9695879560
:1011000097F9089597F99F6780E870E060E0089587
:101110009FEF80EC089500240A941616170618060F
:101120000906089500240A941216130614060506EB
:101130000895092E0394000C11F4882352F0BB0F7C
:1011400040F4BF2B11F460FF04C06F5F7F4F8F4FDF
:101150009F4F089557FD9058440F551F59F05F3F1A
:1011600071F04795880F97FB991F61F09F3F79F0C9
:1011700087950895121613061406551FF2CF46954B
:10118000F1DF08C0161617061806991FF1CF8695CD
:101190007105610508940895E894BB2766277727B1
:1011A000CB0197F908950E94E6080C9499080E94D3
:1011B0008B0838F00E94920820F0952311F00C94CF
:1011C00082080C94880811240C94CD080E94AA0867
:1011D00070F3959FC1F3950F50E0551F629FF0018A
:1011E000729FBB27F00DB11D639FAA27F00DB11DA3
:1011F000AA1F649F6627B00DA11D661F829F22272C
:10120000B00DA11D621F739FB00DA11D621F839FB2
:10121000A00D611D221F749F3327A00D611D231F88
:10122000849F600D211D822F762F6A2F11249F57D6
:1012300050409AF0F1F088234AF0EE0FFF1FBB1FD9
:10124000661F771F881F91505040A9F79E3F510598
:1012500080F00C9482080C94CD085F3FE4F3983E34
:10126000D4F3869577956795B795F795E7959F5F42
:10127000C1F7FE2B880F911D9695879597F90895D4
:04128000F894FFCF10
:101284000100000000000600000000000000000053
:10129400030001000000020080250000785F706FE9
:1012A40073203A2000202000795F706F73203A2069
:0E12B400007A5F706F73203A20000D0A000070
:00000001FF
