:100000000C942A000C943F000C943F000C943F0089
:100010000C943F000C943F000C943F000C943F0064
:100020000C943F000C943F000C943F000C943F0054
:100030000C943F000C943F000C943F000C943F0044
:100040000C943F000C943F000C943F000C943F0034
:100050000C943F0011241FBECFE5D8E0DEBFCDBF1A
:1000600010E0A0E6B0E0E8EEFDE002C005900D92E1
:10007000AE36B107D9F70E9465040C94F2060C94D1
:10008000000081E00E94240380E00C94460380E09D
:100090000E944E030E945C03BC0180E090E00E943D
:1000A000F70523E333E343E550E40E94850620E0AF
:1000B00030EC4FE754E40E94560523E333E343ED6D
:1000C0005FE30E94E9042AE939E949E95EE30E9415
:1000D0005605089581E00E944E030E945C03BC0116
:1000E00080E090E00E94F70523E333E343E550E42A
:1000F0000E94850620E030EC4FE754E40E9456054C
:1001000023E333E343ED5FE30E94E9042AE939E99D
:1001100049E95EE30E945605089582E00E944E037D
:100120000E945C03BC0180E090E00E94F70523E39D
:1001300033E343E550E40E94850620E030EC4FE7CE
:1001400054E40E94560523E333E343ED5FE30E944A
:10015000E9042AE939E949E95EE30E945605089570
:10016000CF93DF9300D000D000D0CDB7DEB78D8322
:100170009E8369837A834B835C83892B09F47EC0D9
:10018000672B09F47BC0452B09F478C080E00E94FE
:100190004E030E945C03BC0180E090E00E94F705E2
:1001A00023E333E343E550E40E94850620E030EC8E
:1001B0004FE754E40E94560523E333E343ED5FE346
:1001C0000E94E9042AE939E949E95EE30E945605FB
:1001D000ED81FE81608371838283938381E00E943D
:1001E0004E030E945C03BC0180E090E00E94F70592
:1001F00023E333E343E550E40E94850620E030EC3E
:100200004FE754E40E94560523E333E343ED5FE3F5
:100210000E94E9042AE939E949E95EE30E945605AA
:10022000E981FA81608371838283938382E00E94F3
:100230004E030E945C03BC0180E090E00E94F70541
:1002400023E333E343E550E40E94850620E030ECED
:100250004FE754E40E94560523E333E343ED5FE3A5
:100260000E94E9042AE939E949E95EE30E9456055A
:10027000EB81FC8160837183828393830F900F9065
:100280000F900F900F900F90DF91CF910895CF9323
:10029000DF930F92CDB7DEB789836130E1F120F0B3
:1002A0000F90DF91CF91089541E082E00E94B20368
:1002B00040E061E082E00E94B2036981607F83E0F8
:1002C0000E94F00341E062E082E00E94B2038FEC02
:1002D00097E00197F1F700C0000040E062E082E0A3
:1002E0000E94B20369816295607F83E00E94F003FF
:1002F00041E062E082E00E94B2038FEC97E0019758
:10030000F1F700C0000040E062E082E00F90DF9172
:10031000CF910C94B20341E060E082E00E94B2030E
:1003200040E061E082E00E94B2036981DECFCF93BA
:10033000DF930F92CDB7DEB789836130E1F120F012
:100340000F90DF91CF91089540E082E00E94B203C8
:1003500040E061E082E00E94B2036981607F83E057
:100360000E94F00341E062E082E00E94B2038FEC61
:1003700097E00197F1F700C0000040E062E082E002
:100380000E94B20369816295607F83E00E94F0035E
:1003900041E062E082E00E94B2038FEC97E00197B7
:1003A000F1F700C0000040E062E082E00F90DF91D2
:1003B000CF910C94B20340E060E082E00E94B2036F
:1003C00040E061E082E00E94B2036981DECF8130CB
:1003D00009F451C008F0089541E060E082E00E9415
:1003E000640341E061E082E00E94640341E062E076
:1003F00082E00E9464036FEF83E00E94A2039FEB00
:100400002AED80E0915020408040E1F700C00000DC
:1004100060E082E00E9497018FEC97E00197F1F78E
:1004200000C0000060E088E20E9497018FEC97E036
:100430000197F1F700C0000060E08CE00E94970196
:100440008FEC97E00197F1F700C0000060E081E0D9
:100450000E9497018FE99FE00197F1F700C000002B
:1004600060E086E00E9497018FEC97E00197F1F73A
:1004700000C00000089541E060E082E00E94640353
:1004800041E061E082E00E94640341E062E082E0DA
:100490000E9464036FEF83E00E94A2032FEB8AEDBA
:1004A00090E0215080409040E1F700C0000061E002
:1004B00088E30E9497018FEC97E00197F1F700C065
:1004C000000061E08EE00E9497018FEC97E00197B9
:1004D000F1F700C0000061E081E00E9497018FE920
:1004E0009FE00197F1F700C0000061E0BACF0F93E1
:1004F0001F93CF93DF9300D0CDB7DEB78C01698314
:10050000009791F0FC018081811571F01A82698158
:100510000E944701FA81FF5FFA83F8018A81E80FA0
:10052000F11D80818111F3CF0F900F90DF91CF915A
:100530001F910F910895813058F031F480E4860FB7
:10054000806860E00C94970180E860E00C9497016B
:10055000862F806860E00C949701EF92FF920F93D2
:100560001F93CF93DF93CDB7DEB72A970FB6F894DA
:10057000DEBF0FBECDBF9C01892B09F455C070E0D2
:100580008E010F5F1F4F9DECE92E4DEC5CEC922F1E
:1005900092959F70822F8F70890F932F9F70890F74
:1005A000932F92959F70890F8E9D912D1124692F05
:1005B000669566959C77960F891BD901A81BB10992
:1005C000A49FF001A59FF00DB49FF00D1124E0FD54
:1005D0008B5F972F7F5FD801A90FB11D805D8C9332
:1005E000D9019F01369527951A9788F697FD0FC078
:1005F00078018FEFE81AF80AE90EF11C60E0F701C4
:1006000082917F010E944701E016F106B9F72A9610
:100610000FB6F894DEBF0FBECDBFDF91CF911F9113
:100620000F91FF90EF90089560E080E32A960FB657
:10063000F894DEBF0FBECDBFDF91CF911F910F9118
:10064000FF90EF900C9447018130A1F0833051F07E
:10065000811102C03E983F9886B1887F866086B936
:10066000379A08953E9A3F9A86B1887F866086B908
:10067000379A08953E9A3F9886B1887F866086B9FA
:10068000379A0895379A089537980895813010F46D
:100690003D98089509F008953D9A089597B1907E88
:1006A000892B87B90895811101C0369A089596B1B2
:1006B000987F892B86B90895369A349BFECF349A59
:1006C00084B125B1922F08958430C0F46830B0F41D
:1006D0004130A9F098F421E001C0220F6A95EAF7B1
:1006E0002095823039F1833031F0813039F18AB38D
:1006F00082238ABB089581B3822381BB089521E0C0
:1007000001C0220F6A95EAF7823061F0833031F040
:10071000813061F08AB3822B8ABB089581B3822B2A
:1007200081BB089584B3822B84BB089587B3822B49
:1007300087BB089584B3822384BB089587B3822343
:1007400087BB0895823049F020F4811541F067BBE2
:100750000895833031F461BB089564BB08956ABB8A
:10076000089508958430C0F46830B0F44130A9F0A1
:1007700098F421E001C0220F6A95EAF720958230B3
:1007800039F1833031F0813039F18BB382238BBB67
:10079000089582B3822382BB089521E001C0220F15
:1007A0006A95EAF7823061F0833031F0813061F090
:1007B0008BB3822B8BBB089582B3822B82BB0895AF
:1007C00085B3822B85BB089588B3822B88BB08959F
:1007D00085B3822385BB089588B3822388BB08959F
:1007E000823049F020F4811541F068BB08958330D0
:1007F00031F462BB089565BB08956BBB08950895FD
:1008000041155105A1F0843090F4683080F48230B5
:1008100099F0833079F0813059F486B390E002C0CA
:10082000959587956A95E2F78170FA01808308951E
:1008300089B3F4CF80B3F2CF83B3F0CF61157105E4
:1008400071F0823091F030F4811559F086B3FB01DC
:1008500080830895833021F480B3FB018083089561
:10086000089589B3FB018083089583B3FB018083DE
:1008700008958230B9F058F48115E9F088B321E089
:1008800001C0220F6A95EAF7822788BB089583305A
:10089000D9F482B321E001C0220F6A95EAF78227DA
:1008A00082BB089585B321E001C0220F6A95EAF763
:1008B000822785BB08958BB321E001C0220F6A9582
:1008C000EAF782278BBB08950895CDB7DEB72C9742
:1008D0000FB6F894DEBF0FBECDBF19861A861B86F1
:1008E0001C861D821E821F82188619821A821B8214
:1008F0001C820E94410080E00E94E70160E080E0ED
:100900000E949B0260E080E690E00E94770268E02F
:1009100080E00E949B0260E084E690E00E94770203
:1009200060E081E00E949B0260E088E690E00E9427
:100930007702AE014F5F5F4FBE016B5F7F4FCE010D
:1009400009960E94B00062E080E00E949B026985E7
:100950007A858B859C850E94C805862F60E0972F3D
:100960000E94AD0260E08CE690E00E9477026AE0AF
:1009700080E00E949B026D817E818F8198850E941C
:10098000C805862F60E0972F0E94AD0260E08CE6DC
:1009900090E00E94770262E081E00E949B02698100
:1009A0007A818B819C810E94C805862F60E0972FF9
:1009B0000E94AD0260E08CE690E00E9477022FEF8B
:1009C00081EE94E0215080409040E1F700C00000AB
:1009D000B0CF5058BB27AA270E9401050C944B06A4
:1009E0000E943D0638F00E94440620F039F49F3FF3
:1009F00019F426F40C943A060EF4E095E7FB0C94F7
:100A00003406E92F0E945C0658F3BA176207730791
:100A10008407950720F079F4A6F50C947E060EF471
:100A2000E0950B2EBA2FA02D0B01B90190010C01FE
:100A3000CA01A0011124FF27591B99F0593F50F416
:100A4000503E68F11A16F040A22F232F342F44276E
:100A5000585FF3CF469537952795A795F040539566
:100A6000C9F77EF41F16BA0B620B730B840BBAF036
:100A70009150A1F0FF0FBB1F661F771F881FC2F7A1
:100A80000EC0BA0F621F731F841F48F487957795B5
:100A90006795B795F7959E3F08F0B0CF9395880F6F
:100AA00008F09927EE0F9795879508950E946A059B
:100AB0000C944B060E94440658F00E943D0640F0FC
:100AC00029F45F3F29F00C94340651110C947F06F1
:100AD0000C943A060E945C0668F39923B1F35523FF
:100AE00091F3951B550BBB27AA2762177307840741
:100AF00038F09F5F5F4F220F331F441FAA1FA9F3D7
:100B000035D00E2E3AF0E0E832D091505040E695C4
:100B1000001CCAF72BD0FE2F29D0660F771F881F25
:100B2000BB1F261737074807AB07B0E809F0BB0B18
:100B3000802DBF01FF2793585F4F3AF09E3F51052C
:100B400078F00C9434060C947F065F3FE4F3983EF3
:100B5000D4F3869577956795B795F7959F5FC9F715
:100B6000880F911D9695879597F90895E1E0660F96
:100B7000771F881FBB1F621773078407BA0720F00F
:100B8000621B730B840BBA0BEE1F88F7E095089578
:100B90000E94640688F09F5798F0B92F9927B751A3
:100BA000B0F0E1F0660F771F881F991F1AF0BA9511
:100BB000C9F714C0B13091F00E947E06B1E00895EB
:100BC0000C947E06672F782F8827B85F39F0B93FDD
:100BD000CCF3869577956795B395D9F73EF49095C4
:100BE0008095709561957F4F8F4F9F4F0895E89442
:100BF00009C097FB3EF490958095709561957F4F65
:100C00008F4F9F4F9923A9F0F92F96E9BB27939512
:100C1000F695879577956795B795F111F8CFFAF422
:100C2000BB0F11F460FF1BC06F5F7F4F8F4F9F4F53
:100C300016C0882311F096E911C0772321F09EE8B1
:100C4000872F762F05C0662371F096E8862F70E017
:100C500060E02AF09A95660F771F881FDAF7880FF1
:100C60009695879597F9089597F99F6780E870E0C2
:100C700060E008959FEF80EC089500240A94161612
:100C8000170618060906089500240A94121613067A
:100C9000140605060895092E0394000C11F4882308
:100CA00052F0BB0F40F4BF2B11F460FF04C06F5F24
:100CB0007F4F8F4F9F4F089557FD9058440F551FFA
:100CC00059F05F3F71F04795880F97FB991F61F0CE
:100CD0009F3F79F087950895121613061406551F45
:100CE000F2CF4695F1DF08C0161617061806991FB1
:100CF000F1CF86957105610508940895E894BB27A6
:100D000066277727CB0197F908950E9498060C94DF
:100D10004B060E943D0638F00E94440620F09523C1
:100D200011F00C9434060C943A0611240C947F06AE
:100D30000E945C0670F3959FC1F3950F50E0551F1C
:100D4000629FF001729FBB27F00DB11D639FAA2720
:100D5000F00DB11DAA1F649F6627B00DA11D661F6F
:100D6000829F2227B00DA11D621F739FB00DA11D90
:100D7000621F839FA00D611D221F749F3327A00D4A
:100D8000611D231F849F600D211D822F762F6A2FE6
:100D900011249F5750409AF0F1F088234AF0EE0F4B
:100DA000FF1FBB1F661F771F881F91505040A9F778
:100DB0009E3F510580F00C9434060C947F065F3FF3
:100DC000E4F3983ED4F3869577956795B795F795B4
:100DD000E7959F5FC1F7FE2B880F911D969587952C
:080DE00097F90895F894FFCF84
:0E0DE800583A2000593A20005A3A20002500BF
:00000001FF
