:100000000C942A000C943F000C943F000C943F0089
:100010000C943F000C943F000C943F000C943F0064
:100020000C943F000C943F000C943F000C943F0054
:100030000C943F000C943F000C943F000C943F0044
:100040000C943F000C943F000C943F000C943F0034
:100050000C943F0011241FBECFE5D8E0DEBFCDBF1A
:1000600010E0A0E6B0E0ECE8F9E002C005900D92E7
:10007000AE37B107D9F70E943A040C94C4040C942B
:10008000000041E066E083E00E94390341E066E061
:1000900083E00C948703CF92DF92EF92FF920F934D
:1000A0001F93CF93DF93CDB7DEB72E970FB6F8949B
:1000B000DEBF0FBECDBF8F83988769877A876E01B9
:1000C0008FEFC81AD80A85E0F60111928A95E9F7F0
:1000D00081E08E838F819885892B09F4BEC0E985E4
:1000E000FA85EF2B09F4B9C041E066E083E00E9495
:1000F000390340E066E083E00E9487038FE99CE8D3
:100100000197F1F700C0000041E066E083E00E9443
:10011000870390E59A95F1F740E066E083E00E945E
:10012000390300EA16E8AE014A5F5F4F66E083E0FC
:100130000E94D5030150104009F48FC08E81813098
:1001400091F300EA16E8AE014A5F5F4F66E083E094
:100150000E94D5030150104009F47FC08E818115A3
:1001600091F300EA16E8AE014A5F5F4F66E083E074
:100170000E94D5030150104009F46FC08E81813078
:1001800091F31D861E8687E0E82EF12C8D859E85D5
:100190008C0D9D1D8B879C8700EA16E8AE014A5F97
:1001A0005F4F66E083E00E94D5030150104009F4E0
:1001B00054C08E81811591F300EA16E8AE014A5FC2
:1001C0005F4F66E083E00E94D5030150104009F4C0
:1001D00044C08E81811591F3E0E5EA95F1F7AE0117
:1001E0004A5F5F4F66E083E00E94D503EB85FC85A4
:1001F000808121E00E2C01C0220F0A94EAF79E8133
:100200009130D9F120958223EB85FC85808300EA2B
:1002100016E8AE014A5F5F4F66E083E00E94D503B7
:1002200001501040D1F08E81813099F3F1E0EF1A46
:10023000F10808F0B1CFED85FE853196ED87FE8798
:10024000359709F0A0CF29819B818A81820F890F80
:100250003C81830F3D81381791F08FEF2E960FB6BA
:10026000F894DEBF0FBECDBFDF91CF911F910F91EC
:10027000FF90EF90DF90CF900895822BC5CFE98556
:10028000FA852083EF81F885908380E0E7CFCF93D4
:10029000DF930F92CDB7DEB789836130E1F120F0B3
:1002A0000F90DF91CF91089541E080E00E94870395
:1002B00040E061E080E00E9487036981607F81E027
:1002C0000E94C50341E062E080E00E9487038FEC5A
:1002D00097E00197F1F700C0000040E062E080E0A5
:1002E0000E94870369816295607F81E00E94C50357
:1002F00041E062E080E00E9487038FEC97E0019785
:10030000F1F700C0000040E062E080E00F90DF9174
:10031000CF910C94870341E060E080E00E94870366
:1003200040E061E080E00E9487036981DECFCF93E7
:10033000DF930F92CDB7DEB789836130E1F120F012
:100340000F90DF91CF91089540E080E00E948703F5
:1003500040E061E080E00E9487036981607F81E086
:100360000E94C50341E062E080E00E9487038FECB9
:1003700097E00197F1F700C0000040E062E080E004
:100380000E94870369816295607F81E00E94C503B6
:1003900041E062E080E00E9487038FEC97E00197E4
:1003A000F1F700C0000040E062E080E00F90DF91D4
:1003B000CF910C94870340E060E080E00E948703C7
:1003C00040E061E080E00E9487036981DECF8130F8
:1003D00009F450C008F0089541E060E00E9439033C
:1003E00041E061E080E00E94390341E062E080E0AA
:1003F0000E9439036FEF81E00E9477039FEB2AEDA3
:1004000080E0915020408040E1F700C0000060E0B3
:1004100082E00E9497018FEC97E00197F1F700C00E
:10042000000060E088E20E9497018FEC97E001975E
:10043000F1F700C0000060E08CE00E9497018FECB3
:1004400097E00197F1F700C0000060E081E00E94B2
:1004500097018FE99FE00197F1F700C0000060E08D
:1004600086E00E9497018FEC97E00197F1F700C0BA
:100470000000089541E060E080E00E94390341E01F
:1004800061E080E00E94390341E062E080E00E9488
:1004900039036FEF81E00E9477032FEB8AED90E044
:1004A000215080409040E1F700C0000061E088E307
:1004B0000E9497018FEC97E00197F1F700C00000D0
:1004C00061E08EE00E9497018FEC97E00197F1F7D1
:1004D00000C0000061E081E00E9497018FE99FE089
:1004E0000197F1F700C0000061E0BACF0F931F93AE
:1004F000CF93DF9300D0CDB7DEB78C01698300972F
:1005000091F0FC018081811571F01A8269810E944D
:100510004701FA81FF5FFA83F8018A81E80FF11D34
:1005200080818111F3CF0F900F90DF91CF911F91B8
:100530000F910895813058F031F480E4860F80687F
:1005400060E00C94970180E860E00C949701862F9E
:10055000806860E00C949701EF92FF920F931F93D5
:10056000CF93DF93CDB7DEB72A970FB6F894DEBFEF
:100570000FBECDBF9C01892B09F455C070E08E01E0
:100580000F5F1F4F9DECE92E4DEC5CEC922F929586
:100590009F70822F8F70890F932F9F70890F932FD9
:1005A00092959F70890F8E9D912D1124692F6695CC
:1005B00066959C77960F891BD901A81BB109A49F4A
:1005C000F001A59FF00DB49FF00D1124E0FD8B5FAD
:1005D000972F7F5FD801A90FB11D805D8C93D90142
:1005E0009F01369527951A9788F697FD0FC07801D9
:1005F0008FEFE81AF80AE90EF11C60E0F70182912A
:100600007F010E944701E016F106B9F72A960FB65E
:10061000F894DEBF0FBECDBFDF91CF911F910F9138
:10062000FF90EF90089560E080E32A960FB6F8946B
:10063000DEBF0FBECDBFDF91CF911F910F91FF9015
:10064000EF900C94470141E00C943903413021F0C4
:10065000423009F0089540E00C948703413019F0CE
:10066000423021F0089540E00C94870341E00C945F
:1006700087038430C0F46830B0F44130A9F098F4B6
:1006800021E001C0220F6A95EAF72095823039F106
:10069000833031F0813039F18AB382238ABB0895E7
:1006A00081B3822381BB089521E001C0220F6A95A6
:1006B000EAF7823061F0833031F0813061F08AB343
:1006C000822B8ABB089581B3822B81BB089584B3AA
:1006D000822B84BB089587B3822B87BB089584B394
:1006E000822384BB089587B3822387BB0895823019
:1006F00049F020F4811541F067BB0895833031F44F
:1007000061BB089564BB08956ABB08950895843061
:10071000C0F46830B0F44130A9F098F421E001C091
:10072000220F6A95EAF72095823039F1833031F053
:10073000813039F18BB382238BBB089582B382233E
:1007400082BB089521E001C0220F6A95EAF782304A
:1007500061F0833031F0813061F08BB3822B8BBB41
:10076000089582B3822B82BB089585B3822B85BB0B
:10077000089588B3822B88BB089585B3822385BBF7
:10078000089588B3822388BB0895823049F020F40D
:10079000811541F068BB0895833031F462BB089540
:1007A00065BB08956BBB0895089541155105A1F0EF
:1007B000843090F4683080F4823099F0833079F09E
:1007C000813059F486B390E002C0959587956A957B
:1007D000E2F78170FA018083089589B3F4CF80B382
:1007E000F2CF83B3F0CF6115710571F0823091F0D3
:1007F00030F4811559F086B3FB018083089583306E
:1008000021F480B3FB0180830895089589B3FB012F
:100810008083089583B3FB01808308958230B9F00B
:1008200058F48115E9F088B321E001C0220F6A95E0
:10083000EAF7822788BB08958330D9F482B321E098
:1008400001C0220F6A95EAF7822782BB089585B31B
:1008500021E001C0220F6A95EAF7822785BB08953F
:100860008BB321E001C0220F6A95EAF782278BBB88
:100870000895089500D0CDB7DEB71A82198241E0FD
:1008800060E082E00E94390341E065E082E00E947E
:10089000390380E00E94E7010E9441002FE788E3CE
:1008A00091E0215080409040E1F700C0000040E01E
:1008B00060E082E00E94870340E065E082E00E9401
:1008C000870360E080E00E949A0260E080E690E0AA
:1008D0000E94760260E081E00E949A0260E086E673
:1008E00090E00E9476022FC041E060E082E00E942A
:1008F000870340E065E082E00E94870366E080E0D5
:100900000E949A02898160E090E00E94AC0260E05F
:100910008DE690E00E94760266E081E00E949A02F5
:100920008A8160E090E00E94AC0260E08FE690E097
:100930000E9476022FEF83ED90E32150804090409B
:10094000E1F700C00000BE016F5F7F4FCE0102964D
:100950000E944B00811541F240E060E082E00E947D
:10096000870341E065E082E00E94870360E081E068
:100970000E94970160E080E00E949A0260E081E7B7
:0C09800090E00E947602D6CFF894FFCFE2
:10098C0048756D3A200054656D703A20002500437F
:0E099C00004448543131204572726F720000E1
:00000001FF
