:100000000C942A000C9447000C9447000C94470071
:100010000C9447000C9447000C9447000C94470044
:100020000C9447000C9447000C9447000C94470034
:100030000C9447000C9447000C9447000C94470024
:100040000C943C030C9447000C9447000C9447001C
:100050000C94470011241FBECFE5D8E0DEBFCDBF12
:1000600010E0A0E6B0E0E2E8FFE002C005900D92EB
:10007000A636B107D9F720E0A6E6B0E001C01D9290
:10008000A836B207E1F70E94B0040C94BF070C94A5
:1000900000000895CF93DF9300D000D000D0CDB7FB
:1000A000DEB78D839E8369837A834B835C83892B40
:1000B000C9F0672BB9F0452BA9F080E00E9410032E
:1000C000ED81FE818083918381E00E941003E981AC
:1000D000FA818083918382E00E941003EB81FC818E
:1000E000808391830F900F900F900F900F900F903F
:1000F000DF91CF910895CF93DF93CDB7DEB72C97E3
:100100000FB6F894DEBF0FBECDBF8B879C87698387
:100110007A834B835C83892B09F47EC0672B09F4B7
:100120007BC0452B09F478C080E00E9410038D83CA
:100130009E8381E00E9410038F83988782E00E9453
:10014000100389879A872D813E81B90180E090E074
:100150000E94770620E030EC4FE754E40E94CF0580
:1001600020E030E040EA50E40E94050720E030E063
:1001700040E250E40E9462059B01AC010E946305CD
:10018000EB85FC8560837183828393832F8138851F
:10019000B90180E090E00E94770620E030EC4FE764
:1001A00054E40E94CF0520E030E040EA50E40E9491
:1001B000050720E030E040E250E40E9462059B0128
:1001C000AC010E946305E981FA81608371838283B7
:1001D000938329853A85B90180E090E00E947706F3
:1001E00020E030EC4FE754E40E94CF0520E030E0FF
:1001F00040EA50E40E94050720E030E040E250E48D
:100200000E9462059B01AC010E946305EB81FC81A9
:1002100060837183828393832C960FB6F894DEBF3C
:100220000FBECDBFDF91CF910895CF93DF930F9293
:10023000CDB7DEB78983613009F443C020F00F9059
:10024000DF91CF91089541E063E082E00E94C9030D
:1002500040E064E082E00E94C9036981607F83E03E
:100260000E94850441E065E082E00E94C9038FECB2
:1002700097E00197F1F700C0000040E065E082E000
:100280000E94C9038FEC97E00197F1F700C00000CE
:1002900069816295607F83E00E94850441E065E0AA
:1002A00082E00E94C9038FEC97E00197F1F700C04C
:1002B000000040E065E082E00F90DF91CF910C9468
:1002C000C90341E063E082E00E94C90340E064E0CA
:1002D00082E00E94C9036981DECFCF93DF930F9242
:1002E000CDB7DEB78983613009F443C020F00F90A9
:1002F000DF91CF91089540E063E082E00E94C9035E
:1003000040E064E082E00E94C9036981607F83E08D
:100310000E94850441E065E082E00E94C9038FEC01
:1003200097E00197F1F700C0000040E065E082E04F
:100330000E94C9038FEC97E00197F1F700C000001D
:1003400069816295607F83E00E94850441E065E0F9
:1003500082E00E94C9038FEC97E00197F1F700C09B
:10036000000040E065E082E00F90DF91CF910C94B7
:10037000C90340E063E082E00E94C90340E064E01A
:1003800082E00E94C9036981DECFCF93C82F41E08C
:1003900063E082E00E94670341E064E082E00E9443
:1003A000670341E065E082E00E946703C13009F421
:1003B00044C010F0CF91089560EF83E00E9475046F
:1003C0009FEB2AED80E0915020408040E1F700C093
:1003D000000060E082E00E946D018FEC97E00197E1
:1003E000F1F700C0000060E088E20E946D018FEC30
:1003F00097E00197F1F700C0000060E08EE00E94F6
:100400006D018FEC97E00197F1F700C0000060E00C
:1004100081E00E946D018FE99FE00197F1F700C034
:10042000000060E086E00E946D018FEC97E001978C
:10043000F1F700C00000CF9108956FEF83E00E94B4
:1004400075042FEB8AED90E0215080409040E1F759
:1004500000C0000061E088E30E946D018FEC97E02E
:100460000197F1F700C0000061E08EE00E946D018D
:100470008FEC97E00197F1F700C0000061E081E0A8
:100480000E946D018FE99FE00197F1F700C0000025
:1004900061E0C8CF0F931F93CF93DF9300D0CDB708
:1004A000DEB78C016983009791F0FC018081811592
:1004B00071F01A8269810E941501FA81FF5FFA8347
:1004C000F8018A81E80FF11D80818111F3CF0F902F
:1004D0000F90DF91CF911F910F910895CF93DF93EC
:1004E0000F92CDB7DEB7813028F019F080E889830C
:1004F00003C0605C6068698340E063E082E00E9462
:10050000C90340E064E082E00E94C903698183E09E
:100510000E94850441E065E082E00E94C9038FECFF
:1005200097E00197F1F700C0000040E065E082E04D
:100530000F90DF91CF910C94C903CF93DF930F926B
:10054000CDB7DEB7898341E063E082E00E94C90352
:1005500040E064E082E00E94C9036981605D83E05D
:100560000E94850441E065E082E00E94C9038FECAF
:1005700097E00197F1F700C0000040E065E082E0FD
:100580000F90DF91CF910C94C903CF93DF9300D0EC
:1005900000D000D0CDB7DEB7242F4983452F5A8332
:1005A0006B83572F7C838D839E832130D0F43F98BB
:1005B0003E984130E9F078F16130E9F010F15130C6
:1005C000E8F4339896B1987F8E81892B86B9379A53
:1005D0000F900F900F900F900F900F90DF91CF9191
:1005E0000895D9F0223029F73F9A3E9A413019F701
:1005F0003D9A613019F73598513018F319F7339A4D
:10060000E1CF359A90B78D818295880F807E9F715A
:10061000892B80BFD4CF3D98CFCF3F983E9AC9CF8A
:1006200097B1907E892B87B9369A349913C0A0E090
:10063000B0E0CD0106C0803523EC9207A105B105DD
:1006400069F00196A11DB11D349BF5CF1097934C15
:10065000804521F0349A84B195B108958FEF9FEFD2
:10066000089597B1907E892B87B9369A0895809323
:1006700066009093670008951F920F920FB60F9235
:1006800011242F933F934F935F936F937F938F9397
:100690009F93AF93BF93EF93FF93E0916600F09128
:1006A0006700309719F084B195B10995FF91EF91EA
:1006B000BF91AF919F918F917F916F915F914F917A
:1006C0003F912F910F900FBE0F901F9018954130C2
:1006D000F9F0E8F4823009F446C068F4811509F4B1
:1006E0004CC027B381E001C0880F6A95EAF7809576
:1006F000822387BB0895833009F04AC021B381E08B
:1007000001C0880F6A95EAF78095822381BB08951E
:100710008230B9F058F48115E9F087B321E001C0C7
:10072000220F6A95EAF7822B87BB0895833079F50B
:1007300081B321E001C0220F6A95EAF7822B81BBC9
:10074000089584B321E001C0220F6A95EAF7822B55
:1007500084BB08958AB321E001C0220F6A95EAF7AD
:10076000822B8ABB089524B381E001C0880F6A956B
:10077000EAF78095822384BB08952AB381E001C003
:10078000880F6A95EAF7809582238ABB08950895B9
:1007900008954130F9F0E8F4823009F446C068F475
:1007A000811509F44CC028B381E001C0880F6A9517
:1007B000EAF78095822388BB0895833009F04AC008
:1007C00022B381E001C0880F6A95EAF78095822301
:1007D00082BB08958230B9F058F48115E9F088B3EE
:1007E00021E001C0220F6A95EAF7822B88BB0895A9
:1007F000833079F582B321E001C0220F6A95EAF7D0
:10080000822B82BB089585B321E001C0220F6A9537
:10081000EAF7822B85BB08958BB321E001C0220F3C
:100820006A95EAF7822B8BBB089525B381E001C05E
:10083000880F6A95EAF78095822385BB08952BB3CC
:1008400081E001C0880F6A95EAF7809582238BBB0F
:1008500008950895089541155105A1F0843090F44C
:10086000683080F4823099F0833079F0813059F427
:1008700086B390E002C0959587956A95E2F78170FE
:10088000FA018083089589B3F4CF80B3F2CF83B3A4
:10089000F0CF8230B9F058F48115E9F088B321E047
:1008A00001C0220F6A95EAF7822788BB089583303A
:1008B000D9F482B321E001C0220F6A95EAF78227BA
:1008C00082BB089585B321E001C0220F6A95EAF743
:1008D000822785BB08958BB321E001C0220F6A9562
:1008E000EAF782278BBB08950895823049F020F4FF
:1008F000811541F067BB0895833031F461BB0895E1
:1009000064BB08956ABB08950895823049F020F4CD
:10091000811541F068BB0895833031F462BB0895BE
:1009200065BB08956BBB089508956115710571F05D
:10093000823091F030F4811559F086B3FB01808349
:100940000895833021F480B3FB01808308950895D6
:1009500089B3FB018083089583B3FB0180830895ED
:10096000CF93DF93CDB7DEB762970FB6F894DEBFB3
:100970000FBECDBF1A821B821C821D8281E089833B
:100980008B8386E08E8381E00E94C50149815A8174
:100990006B817C818D819E810E94C5020E944900ED
:1009A0001F86188A198A1A8A1B861C861D861E862F
:1009B0001F82188619861A863DECC32E4CECF42E45
:1009C000EC2C55E0D52E54C08DE20E941501002775
:1009D000112708191909812F880F880B982F9370F8
:1009E000302F3F70202F22952F70230F312F3F7013
:1009F000230F312F32953F70230F290F2C9D912DFE
:100A00001124392F369536959C7F930F291B8C7FA7
:100A1000280F322F330F330B021B130B0E9DC00117
:100A20000F9D900D1E9D900D1124AC0141705078CA
:100A300097FF05C04A954E6F5FEF4F5F5F4FD49EA3
:100A40008001D59E100D1124020F131F97FD0196F2
:100A5000959587950E949D0261E08EE20E941501A6
:100A6000C8010E949D0261E083E690E00E944A0274
:100A7000AE01495F5F4FBE01655F7F4FCE010F96AC
:100A80000E947B0020E030E040E251E46F857889ED
:100A900089899A890E9405070E9472070E9441066F
:100AA0004B018B0160E080E00E946E0261E080E615
:100AB00090E00E944A0261E097FC86CF8BE20E94A0
:100AC000150189CF5058BB27AA270E947A050C949C
:100AD000CB060E94BD0638F00E94C40620F039F40F
:100AE0009F3F19F426F40C94BA060EF4E095E7FB48
:100AF0000C94B406E92F0E94DC0658F3BA1762077B
:100B000073078407950720F079F4A6F50C94FE0688
:100B10000EF4E0950B2EBA2FA02D0B01B901900118
:100B20000C01CA01A0011124FF27591B99F0593F5C
:100B300050F4503E68F11A16F040A22F232F342FA4
:100B40004427585FF3CF469537952795A795F040F2
:100B50005395C9F77EF41F16BA0B620B730B840B07
:100B6000BAF09150A1F0FF0FBB1F661F771F881FBF
:100B7000C2F70EC0BA0F621F731F841F48F4879517
:100B800077956795B795F7959E3F08F0B0CF939509
:100B9000880F08F09927EE0F9795879508950E9482
:100BA000E3050C94CB060E94C40658F00E94BD06D3
:100BB00040F029F45F3F29F00C94B40651110C94D5
:100BC000FF060C94BA060E94DC0668F39923B1F381
:100BD000552391F3951B550BBB27AA276217730763
:100BE000840738F09F5F5F4F220F331F441FAA1FF7
:100BF000A9F335D00E2E3AF0E0E832D091505040B3
:100C0000E695001CCAF72BD0FE2F29D0660F771F60
:100C1000881FBB1F261737074807AB07B0E809F046
:100C2000BB0B802DBF01FF2793585F4F3AF09E3FCB
:100C3000510578F00C94B4060C94FF065F3FE4F382
:100C4000983ED4F3869577956795B795F7959F5F0E
:100C5000C9F7880F911D9695879597F90895E1E05A
:100C6000660F771F881FBB1F621773078407BA07B9
:100C700020F0621B730B840BBA0BEE1F88F7E09514
:100C800008950E9448066894B1110C94FF060895D7
:100C90000E94E40688F09F5798F0B92F9927B75122
:100CA000B0F0E1F0660F771F881F991F1AF0BA9510
:100CB000C9F714C0B13091F00E94FE06B1E008956A
:100CC0000C94FE06672F782F8827B85F39F0B93F5C
:100CD000CCF3869577956795B395D9F73EF49095C3
:100CE0008095709561957F4F8F4F9F4F0895E89441
:100CF00009C097FB3EF490958095709561957F4F64
:100D00008F4F9F4F9923A9F0F92F96E9BB27939511
:100D1000F695879577956795B795F111F8CFFAF421
:100D2000BB0F11F460FF1BC06F5F7F4F8F4F9F4F52
:100D300016C0882311F096E911C0772321F09EE8B0
:100D4000872F762F05C0662371F096E8862F70E016
:100D500060E02AF09A95660F771F881FDAF7880FF0
:100D60009695879597F9089597F99F6780E870E0C1
:100D700060E008959FEF80EC089500240A94161611
:100D8000170618060906089500240A941216130679
:100D9000140605060895092E0394000C11F4882307
:100DA00052F0BB0F40F4BF2B11F460FF04C06F5F23
:100DB0007F4F8F4F9F4F089557FD9058440F551FF9
:100DC00059F05F3F71F04795880F97FB991F61F0CD
:100DD0009F3F79F087950895121613061406551F44
:100DE000F2CF4695F1DF08C0161617061806991FB0
:100DF000F1CF86957105610508940895E894BB27A5
:100E000066277727CB0197F908950E9418070C945D
:100E1000CB060E94BD0638F00E94C40620F0952340
:100E200011F00C94B4060C94BA0611240C94FF062D
:100E30000E94DC0670F3959FC1F3950F50E0551F9B
:100E4000629FF001729FBB27F00DB11D639FAA271F
:100E5000F00DB11DAA1F649F6627B00DA11D661F6E
:100E6000829F2227B00DA11D621F739FB00DA11D8F
:100E7000621F839FA00D611D221F749F3327A00D49
:100E8000611D231F849F600D211D822F762F6A2FE5
:100E900011249F5750409AF0F1F088234AF0EE0F4A
:100EA000FF1FBB1F661F771F881F91505040A9F777
:100EB0009E3F510580F00C94B4060C94FF065F3FF2
:100EC000E4F3983ED4F3869577956795B795F795B3
:100ED000E7959F5FC1F7FE2B880F911D969587952B
:100EE00097F908950E94E406E8F09E37E8F09639F5
:100EF000B8F49E3848F4672F782F8827985FF9CF89
:100F000086957795679593959539D0F3B62FB170FF
:100F10006B0F711D811D20F48795779567959395CB
:100F20000C9496070C94B1070C94FF06882371F477
:100F3000772321F09850872B762F07C0662311F472
:100F400099270DC09051862B70E060E02AF09A95A9
:100F5000660F771F881FDAF7880F9695879597F9A0
:100F600008959F3F31F0915020F4879577956795CC
:100F7000B795880F911D9695879597F90895F894E0
:020F8000FFCFA1
:060F8200583A0067200050
:00000001FF
