:100000000C942A000C9447000C9447000C94470071
:100010000C9447000C9447000C9447000C94470044
:100020000C9447000C9447000C9447000C94470034
:100030000C9447000C9447000C9447000C94470024
:100040000C9447000C9447000C9447000C94470014
:100050000C94470011241FBECFE5D8E0DEBFCDBF12
:1000600010E0A0E6B0E0E2E0F8E002C005900D92FA
:10007000A437B107D9F720E0A4E7B0E001C01D9292
:10008000A537B207E1F70E9485030C94FF030C9497
:10009000000041E060E081E00E94910240E060E009
:1000A00081E00E94DF028FE99CE80197F1F700C030
:1000B000000041E060E081E00C94DF02CF93DF9329
:1000C0000F92CDB7DEB7198240E060E081E00E9478
:1000D0009102AE014F5F5F4F60E081E00E944C03F0
:1000E00089818111F6CFAE014F5F5F4F60E081E003
:1000F0000E944C0389818115B1F3AE014F5F5F4FC0
:1001000060E081E00E944C0389818111F6CF0F905D
:10011000DF91CF910895CF92DF92EF92FF920F93EC
:100120001F93CF93DF9300D000D000D0CDB7DEB7C0
:1001300041E060E081E00E94910240E060E081E007
:100140000E94DF028FE39CE90197F1F700C00000F5
:1001500041E060E081E00E94DF0290E59A95F1F7CE
:1001600040E060E081E00E9491028E010A5F1F4F33
:10017000A80160E081E00E944C038E818111F8CFDC
:10018000A80160E081E00E944C038E818115C1F3DB
:10019000A80160E081E00E944C038E818111F8CFBC
:1001A0006E01EFEFCE1ADE0A88E0E82EF12CA801EE
:1001B00060E081E00E944C038E818115C1F3FAE674
:1001C000FA95F1F700C0A80160E081E00E944C03BD
:1001D000FF0C8E81811511F06894F0F8A80160E0A1
:1001E00081E00E944C038E818111F8CFEA94F9F6E8
:1001F000F601F1926F010E171F07B1F689819A81FE
:10020000980F2B81920F2C81920F2D8192138FEFDB
:100210000F900F900F900F900F900F90DF91CF9154
:100220001F910F91FF90EF90DF90CF900895CF93A3
:10023000DF930F92CDB7DEB7898341E060E080E0C5
:100240000E94DF0240E061E080E00E94DF026981FD
:1002500082E00E941D0341E062E080E00E94DF0234
:100260008FEC97E00197F1F700C0000040E062E0FA
:1002700080E00F90DF91CF910C94DF02CF93DF935A
:100280000F92CDB7DEB7898340E060E080E00E9446
:10029000DF0240E061E080E00E94DF02698182E0ED
:1002A0000E941D0341E062E080E00E94DF028FECCB
:1002B00097E00197F1F700C0000040E062E080E0C5
:1002C0000F90DF91CF910C94DF02613009F0089517
:1002D0000C941701613009F008950C943E018130AF
:1002E00009F0089541E060E080E00E94910241E061
:1002F00061E080E00E94910241E062E080E00E94C3
:1003000091026FEF82E00E94CF022FEB8AED90E026
:10031000215080409040E1F700C0000088E30E9437
:100320003E018FEC97E00197F1F700C000008EE0EE
:100330000E943E018FEC97E00197F1F700C00000AA
:1003400081E00E943E018FE99FE00197F1F700C034
:10035000000086E00E943E018FEC97E00197F1F7E4
:1003600000C0000008950F931F93CF938C01009756
:1003700071F0FC018081811551F0C0E00E941701ED
:10038000CF5FF801EC0FF11D80818111F7CFCF9184
:100390001F910F910895813048F029F480E4860F71
:1003A00080680C943E0180E80C943E01862F8068A2
:1003B0000C943E014F925F926F927F928F929F9228
:1003C000AF92BF92CF92DF92EF92FF92CF936B01E9
:1003D0007C01C42FC114D104E104F1040CF44FC01A
:1003E00009F43FC080E090E0BC013B01EAE04E2E02
:1003F000512C4B015C01880C991CAA1CBB1C880C5D
:10040000991CAA1CBB1C860E971EA81EB91E880C20
:10041000991CAA1CBB1CB601C7019201A3010E9432
:10042000BE03680D791D8A1D9B1D69017A01C114E7
:10043000D104E104F104E9F600977040604089F0CE
:100440003AE0C32ED12CE12CF12CC13021F19601E0
:10045000A7010E94BE03B901CA0100977040604025
:10046000A1F7CF91FF90EF90DF90CF90BF90AF902A
:100470009F908F907F906F905F904F9008958DE246
:100480000E941701F094E094D094C094C11CD11C38
:10049000E11CF11CA7CF2AE0822E912CA12CB12CBB
:1004A0009401A5010E94BE03D22EE32EF42EC52F87
:1004B00080E3860F0E9417016D2D7E2D8F2D9C2FBE
:1004C00000977040604061F7CCCFCF93DF930F92DD
:1004D000CDB7DEB7498341E00E94910289818093C4
:1004E00074000F90DF91CF91089590917400913036
:1004F00019F0923021F0089541E00C94DF0240E0C1
:100500000C94DF0290917400913019F0923021F038
:10051000089540E00C94DF0241E00C94DF020C945B
:100520002D038430C0F46830B0F44130A9F098F461
:1005300021E001C0220F6A95EAF72095823039F157
:10054000833031F0813039F18AB382238ABB089538
:1005500081B3822381BB089521E001C0220F6A95F7
:10056000EAF7823061F0833031F0813061F08AB394
:10057000822B8ABB089581B3822B81BB089584B3FB
:10058000822B84BB089587B3822B87BB089584B3E5
:10059000822384BB089587B3822387BB089582306A
:1005A00049F020F4811541F067BB0895833031F4A0
:1005B00061BB089564BB08956ABB089508958430B3
:1005C000C0F46830B0F44130A9F098F421E001C0E3
:1005D000220F6A95EAF72095823039F1833031F0A5
:1005E000813039F18BB382238BBB089582B3822390
:1005F00082BB089521E001C0220F6A95EAF782309C
:1006000061F0833031F0813061F08BB3822B8BBB92
:10061000089582B3822B82BB089585B3822B85BB5C
:10062000089588B3822B88BB089585B3822385BB48
:10063000089588B3822388BB0895823049F020F45E
:10064000811541F068BB0895833031F462BB089591
:1006500065BB08956BBB089508958430A0F468309D
:1006600090F421E001C0220F6A95EAF7823061F030
:10067000833031F0813061F08BB382278BBB0895DA
:1006800082B3822782BB089585B3822785BB0895F4
:1006900088B3822788BB089541155105A1F08430A5
:1006A00090F4683080F4823099F0833079F08130B2
:1006B00059F486B390E002C0959587956A95E2F764
:1006C0008170FA018083089589B3F4CF80B3F2CFAB
:1006D00083B3F0CF6115710571F0823091F030F481
:1006E000811559F086B3FB0180830895833021F48E
:1006F00080B3FB0180830895089589B3FB01808353
:10070000089583B3FB018083089541E063E081E0B5
:100710000E94650281E00E946F010E94490061E031
:1007200080E690E00E94B30161E081E00E946A01EE
:100730002FEF80E792E0215080409040E1F700C029
:10074000000061E080E00E94CB0161E088E690E07B
:100750000E94B3010E948B00C82F682F70E080E0D8
:1007600090E041E00E94DA0163E081E0C63419F4D0
:100770000E948202E6CF0E947502E3CF052E97FB0E
:100780001EF400940E94D50357FD07D00E94DD039C
:1007900007FC03D04EF40C94D5035095409530954A
:1007A00021953F4F4F4F5F4F0895909580957095DD
:1007B00061957F4F8F4F9F4F0895A1E21A2EAA1B7C
:1007C000BB1BFD010DC0AA1FBB1FEE1FFF1FA21701
:1007D000B307E407F50720F0A21BB30BE40BF50BFE
:1007E000661F771F881F991F1A9469F76095709587
:1007F000809590959B01AC01BD01CF010895F894BF
:02080000FFCF28
:1008020077656C636F6D650068756D69646974798D
:0408120020200000A2
:00000001FF
