:100000000C942A000C9447000C9447000C94470071
:100010000C9447000C9447000C9447000C94470044
:100020000C9447000C9447000C9447000C94470034
:100030000C9447000C9447000C9447000C94470024
:100040000C9447000C9447000C9447000C94470014
:100050000C94470011241FBECFE5D8E0DEBFCDBF12
:1000600010E0A0E6B0E0E2E7F7E002C005900D92F4
:10007000AE37B107D9F720E0AEE7B0E001C01D927E
:10008000AF37B207E1F70E943D030C94B7030C941D
:10009000000041E060E081E00E94490240E060E051
:1000A00081E00E9497028FE99CE80197F1F700C078
:1000B000000041E060E081E00C949702CF93DF9371
:1000C0000F92CDB7DEB7198240E060E081E00E9478
:1000D0004902AE014F5F5F4F60E081E00E94040380
:1000E00089818111F6CFAE014F5F5F4F60E081E003
:1000F0000E94040389818115B1F3AE014F5F5F4F08
:1001000060E081E00E94040389818111F6CF0F90A5
:10011000DF91CF9108950F931F93CF93DF930F92A9
:10012000CDB7DEB7198208E010E0AE014F5F5F4F38
:1001300060E081E00E94040389818115B1F385E8C4
:100140008A95F1F70000AE014F5F5F4F60E081E0FC
:100150000E9404038981110F81111160AE014F5F6C
:100160005F4F60E081E00E94040389818111F6CF36
:100170000150D9F6812F0F90DF91CF911F910F91F0
:100180000895CF93DF930F92CDB7DEB7898341E017
:1001900060E080E00E94970240E061E080E00E9421
:1001A0009702698182E00E94D50241E062E080E02E
:1001B0000E9497028FEC97E00197F1F700C00000D2
:1001C00040E062E080E00F90DF91CF910C949702C5
:1001D000CF93DF930F92CDB7DEB7898340E060E025
:1001E00080E00E94970240E061E080E00E94970278
:1001F000698182E00E94D50241E062E080E00E94D5
:1002000097028FEC97E00197F1F700C0000040E003
:1002100062E080E00F90DF91CF910C949702613003
:1002200009F008950C94C100613009F008950C9410
:10023000E800813009F0089541E060E080E00E942C
:10024000490241E061E080E00E94490241E062E051
:1002500080E00E9449026FEF82E00E9487022FEB4C
:100260008AED90E0215080409040E1F700C000000E
:1002700088E30E94E8008FEC97E00197F1F700C057
:1002800000008EE00E94E8008FEC97E00197F1F704
:1002900000C0000081E00E94E8008FE99FE0019724
:1002A000F1F700C0000086E00E94E8008FEC97E0C4
:1002B0000197F1F700C0000008950F931F93CF93AB
:1002C0008C01009771F0FC018081811551F0C0E034
:1002D0000E94C100CF5FF801EC0FF11D80818111F8
:1002E000F7CFCF911F910F910895813048F029F4F5
:1002F00080E4860F80680C94E80080E80C94E800A5
:10030000862F80680C94E8004F925F926F927F92E4
:100310008F929F92AF92BF92CF92DF92EF92FF9215
:10032000CF936B017C01C42FB12C8EE6F7FC5FC02C
:100330000E94C100B394EB2DF0E0E05AFF4F8081A2
:100340008111F6CFC114D104E104F10409F43FC0D6
:1003500080E090E0BC013B01EAE04E2E512C4B01C5
:100360005C01880C991CAA1CBB1C880C991CAA1C3B
:10037000BB1C860E971EA81EB91E880C991CAA1CB1
:10038000BB1CB601C7019201A3010E947603680D50
:10039000791D8A1D9B1D69017A01C114D104E104F4
:1003A000F104E9F600977040604089F03AE0C32E0E
:1003B000D12CE12CF12CC13031F19601A7010E9422
:1003C0007603B901CA01009770406040A1F780E34D
:1003D000CF91FF90EF90DF90CF90BF90AF909F9024
:1003E0008F907F906F905F904F900C94C1008DE242
:1003F0000E94C100F094E094D094C094C11CD11C20
:10040000E11CF11CA5CF2AE0822E912CA12CB12C4D
:100410009401A5010E947603D22EE32EF42EC52F5F
:1004200080E3860F0E94C1006D2D7E2D8F2D9C2FA5
:1004300000977040604061F7CACFCF93DF930F926F
:10044000CDB7DEB7498341E00E944902898180939C
:100450007E000F90DF91CF91089590917E009130B2
:1004600019F0923021F0089541E00C94970240E099
:100470000C94970290917E00913019F0923021F007
:10048000089540E00C94970241E00C9497020C947C
:10049000E5028430C0F46830B0F44130A9F098F43B
:1004A00021E001C0220F6A95EAF72095823039F1E8
:1004B000833031F0813039F18AB382238ABB0895C9
:1004C00081B3822381BB089521E001C0220F6A9588
:1004D000EAF7823061F0833031F0813061F08AB325
:1004E000822B8ABB089581B3822B81BB089584B38C
:1004F000822B84BB089587B3822B87BB089584B376
:10050000822384BB089587B3822387BB08958230FA
:1005100049F020F4811541F067BB0895833031F430
:1005200061BB089564BB08956ABB08950895843043
:10053000C0F46830B0F44130A9F098F421E001C073
:10054000220F6A95EAF72095823039F1833031F035
:10055000813039F18BB382238BBB089582B3822320
:1005600082BB089521E001C0220F6A95EAF782302C
:1005700061F0833031F0813061F08BB3822B8BBB23
:10058000089582B3822B82BB089585B3822B85BBED
:10059000089588B3822B88BB089585B3822385BBD9
:1005A000089588B3822388BB0895823049F020F4EF
:1005B000811541F068BB0895833031F462BB089522
:1005C00065BB08956BBB089508958430A0F468302E
:1005D00090F421E001C0220F6A95EAF7823061F0C1
:1005E000833031F0813061F08BB382278BBB08956B
:1005F00082B3822782BB089585B3822785BB089585
:1006000088B3822788BB089541155105A1F0843035
:1006100090F4683080F4823099F0833079F0813042
:1006200059F486B390E002C0959587956A95E2F7F4
:100630008170FA018083089589B3F4CF80B3F2CF3B
:1006400083B3F0CF6115710571F0823091F030F411
:10065000811559F086B3FB0180830895833021F41E
:1006600080B3FB0180830895089589B3FB018083E3
:10067000089583B3FB018083089541E063E081E046
:100680000E941D0281E00E9419010E94490061E060
:100690008BE690E00E945D0161E081E00E94140120
:1006A0002FEF80E792E0215080409040E1F700C0BA
:1006B000000061E080E00E94750161E083E790E066
:1006C0000E945D010E948B00C82F682F70E080E0BF
:1006D00090E041E00E94840163E081E0C63419F4B7
:1006E0000E942D02E6CF0E943A02E3CF052E97FB2F
:1006F0001EF400940E948D0357FD07D00E949503BD
:1007000007FC03D04EF40C948D0350954095309522
:1007100021953F4F4F4F5F4F08959095809570956D
:1007200061957F4F8F4F9F4F0895A1E21A2EAA1B0C
:10073000BB1BFD010DC0AA1FBB1FEE1FFF1FA21791
:10074000B307E407F50720F0A21BB30BE40BF50B8E
:10075000661F771F881F991F1A9469F76095709517
:10076000809590959B01AC01BD01CF010895F8944F
:02077000FFCFB9
:100772006E6F74206E756D6265720077656C636F63
:0E0782006D650068756D6964697479202000EA
:00000001FF
