:100000000C942A000C9447000C9447000C94470071
:100010000C9447000C9447000C9447000C94470044
:100020000C9447000C9447000C9447000C94470034
:100030000C9447000C9447000C9447000C94470024
:100040000C9447000C9447000C9447000C94470014
:100050000C94470011241FBECFE5D8E0DEBFCDBF12
:1000600010E0A0E6B0E0E0E7F7E002C005900D92F6
:10007000AE37B107D9F720E0AEE7B0E001C01D927E
:10008000AF37B207E1F70E9435030C94B6030C9426
:10009000000041E060E081E00E94410240E060E059
:1000A00081E00E948F028FE99CE80197F1F700C080
:1000B000000041E060E081E00C948F02CF93DF9379
:1000C0000F92CDB7DEB7198240E060E081E00E9478
:1000D0004102AE014F5F5F4F60E081E00E94FC0291
:1000E0008981811118C0AE014F5F5F4F60E081E0F0
:1000F0000E94FC028981811581F0AE014F5F5F4F44
:1001000060E081E00E94FC028981811105C00F90AE
:10011000DF91CF910895FFCFFFCFFFCF1F93CF93F4
:10012000DF930F92CDB7DEB7198217E002C01150EE
:10013000D1F0AE014F5F5F4F60E081E00E94FC02B2
:100140008981811579F085E88A95F1F70000AE0183
:100150004F5F5F4F60E081E00E94FC028981811562
:1001600031F3FFCFFFCF80E00F90DF91CF911F9150
:100170000895CF93DF930F92CDB7DEB7898341E027
:1001800060E080E00E948F0240E061E080E00E9439
:100190008F02698182E00E94CD0241E062E080E04E
:1001A0000E948F028FEC97E00197F1F700C00000EA
:1001B00040E062E080E00F90DF91CF910C948F02DD
:1001C000CF93DF930F92CDB7DEB7898340E060E035
:1001D00080E00E948F0240E061E080E00E948F0298
:1001E000698182E00E94CD0241E062E080E00E94ED
:1001F0008F028FEC97E00197F1F700C0000040E01C
:1002000062E080E00F90DF91CF910C948F0261301B
:1002100009F008950C94B900613009F008950C9428
:10022000E000813009F0089541E060E080E00E9444
:10023000410241E061E080E00E94410241E062E071
:1002400080E00E9441026FEF82E00E947F022FEB6C
:100250008AED90E0215080409040E1F700C000001E
:1002600088E30E94E0008FEC97E00197F1F700C06F
:1002700000008EE00E94E0008FEC97E00197F1F71C
:1002800000C0000081E00E94E0008FE99FE001973C
:10029000F1F700C0000086E00E94E0008FEC97E0DC
:1002A0000197F1F700C0000008950F931F93CF93BB
:1002B0008C01009771F0FC018081811551F0C0E044
:1002C0000E94B900CF5FF801EC0FF11D8081811110
:1002D000F7CFCF911F910F910895813048F029F405
:1002E00080E4860F80680C94E00080E80C94E000C5
:1002F000862F80680C94E0004F925F926F927F92FD
:100300008F929F92AF92BF92CF92DF92EF92FF9225
:10031000CF936B017C01C42FB12C8EE6F7FC5FC03C
:100320000E94B900B394EB2DF0E0E05AFF4F8081BA
:100330008111F6CFC114D104E104F10409F43FC0E6
:1003400080E090E0BC013B01EAE04E2E512C4B01D5
:100350005C01880C991CAA1CBB1C880C991CAA1C4B
:10036000BB1C860E971EA81EB91E880C991CAA1CC1
:10037000BB1CB601C7019201A3010E947503680D61
:10038000791D8A1D9B1D69017A01C114D104E10404
:10039000F104E9F600977040604089F03AE0C32E1E
:1003A000D12CE12CF12CC13031F19601A7010E9432
:1003B0007503B901CA01009770406040A1F780E35E
:1003C000CF91FF90EF90DF90CF90BF90AF909F9034
:1003D0008F907F906F905F904F900C94B9008DE25A
:1003E0000E94B900F094E094D094C094C11CD11C38
:1003F000E11CF11CA5CF2AE0822E912CA12CB12C5E
:100400009401A5010E947503D22EE32EF42EC52F70
:1004100080E3860F0E94B9006D2D7E2D8F2D9C2FBD
:1004200000977040604061F7CACFCF93DF930F927F
:10043000CDB7DEB7498341E00E94410289818093B4
:100440007E000F90DF91CF91089590917E009130C2
:1004500019F0923021F0089541E00C948F0240E0B1
:100460000C948F0290917E00913019F0923021F01F
:10047000089540E00C948F0241E00C948F020C949C
:10048000DD028430C0F46830B0F44130A9F098F453
:1004900021E001C0220F6A95EAF72095823039F1F8
:1004A000833031F0813039F18AB382238ABB0895D9
:1004B00081B3822381BB089521E001C0220F6A9598
:1004C000EAF7823061F0833031F0813061F08AB335
:1004D000822B8ABB089581B3822B81BB089584B39C
:1004E000822B84BB089587B3822B87BB089584B386
:1004F000822384BB089587B3822387BB089582300B
:1005000049F020F4811541F067BB0895833031F440
:1005100061BB089564BB08956ABB08950895843053
:10052000C0F46830B0F44130A9F098F421E001C083
:10053000220F6A95EAF72095823039F1833031F045
:10054000813039F18BB382238BBB089582B3822330
:1005500082BB089521E001C0220F6A95EAF782303C
:1005600061F0833031F0813061F08BB3822B8BBB33
:10057000089582B3822B82BB089585B3822B85BBFD
:10058000089588B3822B88BB089585B3822385BBE9
:10059000089588B3822388BB0895823049F020F4FF
:1005A000811541F068BB0895833031F462BB089532
:1005B00065BB08956BBB089508958430A0F468303E
:1005C00090F421E001C0220F6A95EAF7823061F0D1
:1005D000833031F0813061F08BB382278BBB08957B
:1005E00082B3822782BB089585B3822785BB089595
:1005F00088B3822788BB089541155105A1F0843046
:1006000090F4683080F4823099F0833079F0813052
:1006100059F486B390E002C0959587956A95E2F704
:100620008170FA018083089589B3F4CF80B3F2CF4B
:1006300083B3F0CF6115710571F0823091F030F421
:10064000811559F086B3FB0180830895833021F42E
:1006500080B3FB0180830895089589B3FB018083F3
:10066000089583B3FB018083089541E063E081E056
:100670000E94150281E00E9411010E94490061E080
:100680008BE690E00E94550161E081E00E940C0140
:100690002FEF80E792E0215080409040E1F700C0CA
:1006A000000061E080E00E946D0161E083E790E07E
:1006B0000E94550141E066E07FEF8FEF9FEF0E94BF
:1006C0007C010E948E00C82F682F70E080E090E0CF
:1006D00041E00E947C0163E081E0C63419F40E948D
:1006E0003202DFCF0E942502DCCF052E97FB1EF4DD
:1006F00000940E948C0357FD07D00E94940307FCCE
:1007000003D04EF40C948C03509540953095219570
:100710003F4F4F4F5F4F089590958095709561952D
:100720007F4F8F4F9F4F0895A1E21A2EAA1BBB1B2C
:10073000FD010DC0AA1FBB1FEE1FFF1FA217B307AD
:10074000E407F50720F0A21BB30BE40BF50B661FC3
:10075000771F881F991F1A9469F760957095809587
:1007600090959B01AC01BD01CF010895F894FFCF96
:100770006E6F74206E756D6265720077656C636F65
:0E0780006D650068756D6964697479202000EC
:00000001FF
