:100000000C942A000C9447000C9447000C94470071
:100010000C9447000C9447000C9447000C94470044
:100020000C9447000C9447000C9447000C94470034
:100030000C9447000C9477030C94AC030C94D503F8
:100040000C9447000C9447000C9447000C94470014
:100050000C94470011241FBECFE5D8E0DEBFCDBF12
:1000600010E0A0E6B0E0E2E1F9E002C005900D92F8
:10007000A439B107D9F720E0A4E9B0E001C01D928E
:10008000A53AB207E1F70E94FE030C947F040C949A
:100090000000EF92FF920F931F93CF93DF93CDB7A2
:1000A000DEB72B970FB6F894DEBF0FBECDBFE12CA5
:1000B000F12C00E013E020E835E2A70162E070E0F7
:1000C00080E00E9486012B960FB6F894DEBF0FBE2B
:1000D000CDBFDF91CF911F910F91FF90EF900895C9
:1000E00090E00C946F02CF93DF9300D0CDB7DEB7D2
:1000F00019821A82CE0101960E948D02892B31F459
:1001000089810F900F90DF91CF91089580E00F903B
:100110000F90DF91CF9108950C94B7020C94DA02FE
:100120000C9462038430C0F46830B0F44130A9F01C
:1001300098F421E001C0220F6A95EAF720958230F9
:1001400039F1833031F0813039F18AB382238ABBAF
:10015000089581B3822381BB089521E001C0220F5D
:100160006A95EAF7823061F0833031F0813061F0D6
:100170008AB3822B8ABB089581B3822B81BB0895F9
:1001800084B3822B84BB089587B3822B87BB0895E9
:1001900084B3822384BB089587B3822387BB0895E9
:1001A000823049F020F4811541F067BB0895833017
:1001B00031F461BB089564BB08956ABB0895089546
:1001C0008430C0F46830B0F44130A9F098F421E0F4
:1001D00001C0220F6A95EAF720958230F9F083304A
:1001E00031F08130F9F08BB382238BBB089582B359
:1001F000822382BB089521E001C0220F6A95EAF7AD
:100200008230A1F0833031F08130A1F08BB3822BAA
:100210008BBB089582B3822B82BB089585B3822362
:1002200085BB089588B3822388BB089585B3822B4C
:1002300085BB089588B3822B88BB0895823049F02E
:1002400020F4811541F068BB0895833031F462BB1E
:10025000089565BB08956BBB089508954115510538
:10026000A1F0843090F4683080F4823099F08330CB
:1002700079F0813059F486B390E002C09595879566
:100280006A95E2F78170FA018083089589B3F4CF0B
:1002900080B3F2CF83B3F0CF6115710571F0823076
:1002A00091F030F4811559F086B3FB0180830895F5
:1002B000833021F480B3FB0180830895089589B3CE
:1002C000FB018083089583B3FB018083089584300C
:1002D000A0F4683090F421E001C0220F6A95EAF79B
:1002E000823061F0833031F0813061F08BB382274E
:1002F0008BBB089582B3822782BB089585B3822782
:1003000085BB089588B3822788BB0895EF92FF923A
:100310000F931F93CF93DF93CDB7DEB72B970FB615
:10032000F894DEBF0FBECDBFAE2DE982FF2DFA825D
:10033000E02F0B83912F1C832D833E834F8358879F
:10034000E62E6987672F7A87F82E8B872D813E816D
:100350004F815885A0939400F093950000939600E8
:1003600010939700209398003093990040939A003F
:1003700050939B00E0929C0070939D0080939E00A0
:10038000A13008F453C009F499C001E010E080E8FE
:10039000F13008F051C0E11539F0E23009F48CC0B9
:1003A000E33009F497C001E0943008F049C0529856
:1003B000990F892B80BD613009F448C008F054C002
:1003C0005998220F331F441F551F220F331F441FFC
:1003D000551F220F331F441F551F220F331F441F69
:1003E000551F60E072E18AE790E00E9457042150B7
:1003F0003109922F832F99B980BD579856985598F7
:1004000088E0F816E0F101E0E11044C0549A5398F6
:10041000C8012B960FB6F894DEBF0FBECDBFDF919B
:10042000CF911F910F91FF90EF90089500E010E0A1
:1004300080E8F13008F4AFCF09F444C001E0ABCF5D
:10044000C1F101E080BD613009F0B8CF599A220FA7
:10045000331F441F551F220F331F441F551F220FE8
:10046000331F441F551FBDCF80E090E001E099B9D4
:1004700080BD57985698559888E0F81620F6EF2DCD
:10048000F0E0EF57FB4F0C947904569A559AE1141B
:1004900009F4BCCF81E0E816D1F082E0E816E1F083
:1004A00001E0B6CF579A569AAFCF569A559A579AB7
:1004B000ABCF8660529A7ECF806276CF00E010E0AC
:1004C00080ECB7CF886067CF579A559A9DCF539AE3
:1004D00054989ECF806368CF549A539A99CF9C01C9
:1004E00080E090E005C00196813543EC940791F0DF
:1004F0005D9BF9CF80919700843021F02CB980E08A
:1005000090E00895509830FFF9CF509A2CB980E0D0
:1005100090E0089582E090E00895009711F120E0C6
:1005200030E006C02F5F3F4F213543EC3407E1F048
:100530005F9BF8CF2091970030E0243039F04CB128
:10054000FC014083318380E090E008952227519997
:100550002395322F4CB1FC014083318380E090E041
:10056000089581E090E0089582E090E0089500977A
:10057000F1F0FC0120812115A1F0319680E090E09E
:1005800005C00196813533EC930771F05D9BF9CF7F
:1005900080919700843009F450982CB92191211151
:1005A000EDCF80E090E0089582E090E0089581E052
:1005B00090E00895CF93DF93EC01892B91F16115C1
:1005C000710579F180919700DE01E0E0F0E0615083
:1005D000710920E030E006C02F5F3F4F213593ECDA
:1005E0003907B9F05F9BF8CF30E0843021F422273F
:1005F00051992395322F9CB1292F9C933196421704
:10060000130621F01196E617F70718F380E090E043
:1006100002C082E090E0CE0FDF1F1882DF91CF9101
:10062000089581E090E0DF91CF910895009719F14E
:100630006115710519F1FC01AB0141505109480FD9
:10064000591F20E030E006C02F5F3F4F213583EC7B
:10065000380771F05D9BF8CF8081909197009430BE
:1006600009F450988CB9E417F50741F03196E9CFB9
:1006700082E090E0089581E090E0089580E090E0CD
:1006800008959C0180919700843011F02CB9089551
:10069000509830FFFBCF509A2CB90895549A089582
:1006A000539A08955498089553980895579A089521
:1006B000569A0895559A089557980895569808950A
:1006C00055980895009721F08093A3009093A4007B
:1006D0000895009721F08093A1009093A2000895BF
:1006E000009721F080939F009093A00008951F929F
:1006F0000F920FB60F9211242F933F934F935F9356
:100700006F937F938F939F93AF93BF93EF93FF93D9
:10071000E091A300F091A400309741F08091970000
:1007200090E08430A1F02CB1822F0995FF91EF91D8
:10073000BF91AF919F918F917F916F915F914F91F9
:100740003F912F910F900FBE0F901F901895882703
:1007500051998395982FE7CF1F920F920FB60F9262
:1007600011242F933F934F935F936F937F938F93B6
:100770009F93AF93BF93EF93FF93E0919F00F0910E
:10078000A000309709F00995FF91EF91BF91AF91CB
:100790009F918F917F916F915F914F913F912F9199
:1007A0000F900FBE0F901F9018951F920F920FB6CB
:1007B0000F9211242F933F934F935F936F937F93E7
:1007C0008F939F93AF93BF93EF93FF93E091A1001B
:1007D000F091A200309709F00995FF91EF91BF9138
:1007E000AF919F918F917F916F915F914F913F91C9
:1007F0002F910F900FBE0F901F9018950F92CDB7AD
:10080000DEB781E0898341E060E080E00E949200F1
:1008100040E061E080E00E9492000E94490080E692
:1008200090E00E948C0001E0AE014F5F5F4F61E0FD
:1008300080E00E942E011981111110C0013061F178
:1008400000E0F2CFAE014F5F5F4F61E080E00E94B9
:100850002E018981012F811599F3182F113091F7FD
:10086000011579F0AE014F5F5F4F61E080E00E94BB
:100870002E011981111581F001E0113019F70111D4
:10088000F1CF80E890E00E948C0040E060E080E0E2
:100890000E94E0000981C8CF8EE690E00E948C00A3
:1008A00041E060E080E00E94E0000981BDCFA1E26C
:1008B0001A2EAA1BBB1BFD010DC0AA1FBB1FEE1FDA
:1008C000FF1FA217B307E407F50720F0A21BB30B25
:1008D000E40BF50B661F771F881F991F1A9469F7A1
:1008E00060957095809590959B01AC01BD01CF01FD
:1008F0000895EE0FFF1F0590F491E02D0994F894F0
:10090000FFCF04025702530246025202640245021C
:0209100055028E
:10091200416C6920536F746F6879210D0A0042752A
:1009220074746F6E2050726573736564210D0A00D2
:10093200427574746F6E2052656C656173656421D3
:040942000D0A00009A
:00000001FF
