:100000000C942A000C9447000C9447000C94470071
:100010000C9447000C9447000C9447000C94470044
:100020000C9447000C9447000C9447000C94470034
:100030000C9447000C9447000C9447000C94470024
:100040000C9447000C9447000C9447000C94470014
:100050000C94470011241FBECFE5D8E0DEBFCDBF12
:1000600011E0A0E6B0E0EEE0F9E002C005900D92EC
:10007000A836B107D9F721E0A8E6B1E001C01D928A
:10008000AA37B207E1F70E9432040C9485040C945D
:1000900000008F929F92AF92BF92CF92DF92EF9229
:1000A000FF920F931F93CF93DF93CDB7DEB7629785
:1000B0000FB6F894DEBF0FBECDBF82E1E2E6F0E0FE
:1000C000DE01119601900D928A95E1F789809A8060
:1000D000AB80BC80CD80DE80EF80F88409851A85F6
:1000E0002B853C854D855E856F85788989899A89C0
:1000F0000E94880240E060E083E00E94890141E0C4
:1001000061E083E00E94890110926000109261001A
:1001100062960FB6F894DEBF0FBECDBFDF91CF91D0
:100120001F910F91FF90EF90DF90CF90BF90AF9015
:100130009F908F900895811106C082E080936000A7
:1001400010926100089590E00E945A0384E0809329
:100150006000109261000895CF92DF92EF92FF92BB
:10016000CF93DF93EC016A017B0182E090E020975E
:1001700059F413C0C114D104E104F104C9F081E0C1
:10018000C81AD108E108F1080E942604811591F3EC
:100190000E946B03888383E090E08093600010925C
:1001A0006100DF91CF91FF90EF90DF90CF900895A5
:1001B00081E090E0F2CF009741F00E947C0384E060
:1001C0008093600010926100089582E08093600047
:1001D0001092610008956F927F928F929F92AF92DA
:1001E000BF92CF92DF92EF92FF920F931F93CF9324
:1001F000DF938C01662EA22E932E842E752E82E024
:1002000090E00115110509F44AC0C22ED32EE42E48
:10021000F52E0AC0C114D104E104F104F1F181E02A
:10022000C81AD108E108F1080E942604811591F34B
:100230000E946B03F8018083B12CC3E0D0E0C0932F
:100240006000D0936100681609F1CA2CD92CE82C03
:10025000F72C0AC0C114D104E104F104F1F0F1E07B
:10026000CF1AD108E108F1080E942604811591F304
:10027000B3947801EB0CF11C0E946B03F7018083AF
:10028000C0936000D09361006812DFCFF801EB0DDE
:10029000F11D108283E090E002C081E090E0809345
:1002A000600010926100DF91CF911F910F91FF903C
:1002B000EF90DF90CF90BF90AF909F908F907F9006
:1002C0006F900895809160009091610008958091F1
:1002D0006000909161008230910579F08130910544
:1002E00048F071F08430910589F0039761F084ED56
:1002F00090E0089583E890E0089584E790E0089501
:1003000080E990E008958AEB90E0089582EA90E019
:100310000895843020F4683010F4423008F00895D5
:1003200021E001C0220F6A95EAF7413079F020956B
:100330008230B1F0833031F08130B1F08AB3822362
:100340008ABB089581B3822381BB08958230C1F0B6
:10035000833091F0813061F08AB3822B8ABB08959B
:1003600084B3822384BB089587B3822387BB089517
:1003700087B3822B87BB089581B3822B81BB0895FD
:1003800084B3822B84BB0895843020F4683010F449
:10039000423008F0089521E001C0220F6A95EAF783
:1003A000413079F020958230B1F0833031F08130E6
:1003B000B1F08BB382238BBB089582B3822382BBBF
:1003C00008958230C1F0833091F0813061F08BB3B9
:1003D000822B8BBB089585B3822385BB089588B398
:1003E000822388BB089588B3822B88BB089582B38B
:1003F000822B82BB089585B3822B85BB0895843000
:1004000088F4683078F4823009F18330B1F08130BB
:1004100059F089B390E002C0959587956A95E2F707
:100420008170089580E0089586B390E002C09595AC
:1004300087956A95E2F78170089580B390E002C0D5
:10044000959587956A95E2F78170089583B390E05A
:1004500002C0959587956A95E2F78170089584307A
:10046000A0F4683090F421E001C0220F6A95EAF709
:10047000823061F0833031F0813061F08BB38227BC
:100480008BBB089582B3822782BB089585B38227F0
:1004900085BB089588B3822788BB0895843048F4CB
:1004A000823051F0833021F0813021F06ABB089511
:1004B00061BB089567BB089564BB0895843048F418
:1004C000823051F0833021F0813021F06BBB0895F0
:1004D00062BB089568BB089565BB0895843040F4FD
:1004E000823051F0833051F0813021F089B308958A
:1004F00080E0089586B3089583B3089580B3089586
:100500008FB780688FBF08958FB78F778FBF08959B
:100510008F929F92AF92BF92CF92DF92EF92FF9213
:100520000F931F93CF93DF93CDB7DEB762970FB6CC
:10053000F894DEBF0FBECDBF89829A82AB82BC82A7
:10054000CD82DE82EF82F88609871A872B873C8767
:100550004D875E876F87788B898B9A8BC980DA800D
:10056000EB80FC804D815E818F8198856B857C85D9
:100570000D851E858F849888A988BA8822E1FE019E
:100580003196A8E6B1E001900D922A95E1F7CA9460
:10059000CD2809F48AC020E84130510530F009F433
:1005A00068C04230510509F47BC0EA94EF2809F491
:1005B00065C08130910578F069F08230910509F4C9
:1005C00076C08330910509F46DC0049729F4266044
:1005D000529A02C02260529820BD61307105B8F570
:1005E0005998880C991CAA1CBB1C880C991CAA1C25
:1005F000BB1C9401A501220F331F441F551F220F5E
:10060000331F441F551F60E072E18AE790E00E94AB
:10061000630421503109922F832F99B980BD013095
:100620001105E8F4549A539862960FB6F894DEBF19
:100630000FBECDBFDF91CF911F910F91FF90EF9033
:10064000DF90CF90BF90AF909F908F900895C1F0B2
:1006500080E090E099B980BD0130110518F331F0C8
:100660000230110509F7549A539ADECF5498539AE1
:10067000DBCF2062EA94EF2809F09BCF286099CF66
:10068000599A880C991CAA1CBB1C880C991CAA1C82
:10069000BB1C9401A501220F331F441F551FB3CF6C
:1006A000206383CF2660529897CF20EC75CF2460CB
:1006B000529892CF9C015D9BFECF80916E019091EC
:1006C0006F01049711F02CB90895509830FFFBCFBB
:1006D000509A2CB908955F9BFECF80916E01909146
:1006E0006F01049721F090E02CB1822F08958827A4
:1006F00051998395982FF8CFDC019C91911599F031
:1007000020E040916E0150916F015D9BFECF44301F
:10071000510509F450989CB92F5FFD01E20FF11DBE
:1007200090819111F2CF0895CF93DF93DC01892B53
:10073000F9F05F9BFECFC0916E01D0916F01C43084
:10074000D105C9F02CB12C936217E1F090E09F5FC6
:100750005F9BFECFC430D10519F422275199239510
:100760004CB1FD01E90FF11D40836413F0CF1082FD
:10077000DF91CF9108958827519983952CB12C93BF
:100780006213E4CFFD011082F3CFCF93DF93CDB797
:10079000DEB72A970FB6F894DEBF0FBECDBF30E0AC
:1007A0005DEC811509F445C0FE013196E30FF11DA2
:1007B00037FDFA95859F912D1124969596959695DE
:1007C000292F220F220F290F220F482F421B242FDF
:1007D000205D2083432F3F5F282F892F2A3020F769
:1007E00047FD1EC0842F942F990F990BFE0132965E
:1007F000E80FF91F9E012F5F3F4F820F931F841B4D
:10080000910940916E0150916F0122915D9BFECF45
:100810004430510509F450982CB9E817F907A9F7A5
:100820002A960FB6F894DEBF0FBECDBFDF91CF91F1
:1008300008955D9BFECF80916E0190916F010497AA
:1008400019F080E38CB9ECCF5098FBCF88275F99E3
:1008500083950895549A0895539A08955498089545
:10086000539808950E9449008AEE90E00E94DB00B0
:100870002FEF84E39CE0215080409040E1F700C0DE
:10088000000084E091E00E94DB0081E291E00E94A0
:10089000DB000E9467010E94DB008BE291E00E9476
:1008A000DB0082E491E00E94DB0083E691E00E949D
:1008B000DB002FEF84E39CE0215080409040E1F783
:1008C00000C00000E2CFA1E21A2EAA1BBB1BFD0153
:1008D0000DC0AA1FBB1FEE1FFF1FA217B307E4071F
:1008E000F50720F0A21BB30BE40BF50B661F771F77
:1008F000881F991F1A9469F7609570958095909557
:0E0900009B01AC01BD01CF010895F894FFCF1B
:10090E0005000000000000000300010000000200CE
:10091E0080250000426C7565746F6F74685F4E556C
:10092E004C4C00426C7565746F6F74685F4F4B0072
:10093E00426C7565746F6F74685F54494D454F55C1
:10094E005400426C7565746F6F74685F73656E6486
:10095E005F636F6D706C65746500426C7565746F66
:10096E006F74685F7265636976655F636F6D706CD7
:10097E0065746500426C7565746F6F74685F6E6F39
:10098E00745F737461727465640057656C636F6D28
:10099E006520746F20426C7565746F6F74682021CA
:1009AE00200D0A00426C7565746F6F746820526575
:1009BE0061647920666F7220416374696F6E0D0AEF
:1009CE00000D0A746573743F0D0A000D0A692067E5
:1009DE0075657373206920776F726B206E6F770D5C
:1009EE000A000D0A70726F6772616D20746F6F6B03
:1009FE00203220686F75727320746F206D616B6585
:080A0E000D0A000D0A0D0A009B
:00000001FF
