:100000000C942A000C9447000C9447000C94470071
:100010000C9447000C9447000C9447000C94470044
:100020000C9447000C9447000C9447000C94470034
:100030000C9447000C9447000C945C030C9447000C
:100040000C9447000C9447000C9447000C94470014
:100050000C94470011241FBECFE5D8E0DEBFCDBF12
:1000600010E0A0E6B0E0EAEDFAE002C005900D92E3
:10007000AC38B107D9F720E0ACE8B0E001C01D9280
:10008000AF38B207E1F70E947B040C946B050C9427
:100090000000CF93DF9300D000D000D0CDB7DEB703
:1000A00041E050E0BA0180E096E00E94DD0280E08D
:1000B0000F900F900F900F900F900F90DF91CF91B6
:1000C0000895CF93DF9300D0CDB7DEB769837A83ED
:1000D000833000F529813A81232BE1F0813031F022
:1000E00091E0823009F090E0892F880F40EA56E8CD
:1000F00061E070E00E9429038E3F3FEF930750F4C8
:10010000E981FA818083918380E00F900F90DF91E5
:10011000CF91089581E00F900F90DF91CF910895D6
:10012000CF93DF93EB01209799F1833088F58130ED
:1001300031F091E0823009F090E0892F880F40EA99
:1001400056E861E070E00E9429038E3F2FEF92078E
:10015000F8F49C01A8E8B3E10E9410052FEF33E00A
:1001600040E050E00E941F052C5D354041095109D7
:10017000A8EEB3E00E943E052CE231E040E050E002
:100180000E941F052883398380E0DF91CF91089575
:1001900081E0DF91CF910895CF93DF9300D000D01D
:1001A00000D0CDB7DEB78D839E8369837A834B837E
:1001B0005C83892B09F486C089819A81892B09F493
:1001C00081C0EB81FC81EF2B09F47CC040EA56E84A
:1001D00061E070E080E00E9429038E3FFFEF9F07FF
:1001E00008F070C09C01A8E8B3E10E9410052FEF51
:1001F00033E040E050E00E941F052C5D354041098E
:100200005109A8EEB3E00E943E052CE231E040E047
:1002100050E00E941F05ED81FE812083318340EA7A
:1002200056E861E070E081E00E9429038E3FFFEF15
:100230009F0708F047C09C01A8E8B3E10E941005A1
:100240002FEF33E040E050E00E941F052C5D354069
:1002500041095109A8EEB3E00E943E052CE231E0CD
:1002600040E050E00E941F05E981FA81208331833C
:1002700040EA56E861E070E082E00E9429038E3F88
:10028000FFEF9F07F8F49C01A8E8B3E10E94100576
:100290002FEF33E040E050E00E941F052C5D354019
:1002A00041095109A8EEB3E00E943E052CE231E07D
:1002B00040E050E00E941F05EB81FC8120833183E8
:1002C00080E001C081E00F900F900F900F900F9091
:1002D0000F90DF91CF910895CF93DF9300D0CDB7EA
:1002E000DEB789834A83462F60E082E00E94D5030F
:1002F00040E061E082E00E94D5038A81698181301B
:1003000001F19A81911529F00F900F90DF91CF9113
:1003100008956981607F83E00E94130441E062E0F8
:1003200082E00E94D5038FEC97E00197F1F700C0BF
:10033000000040E062E082E00E94D503698162959E
:10034000607F83E00E94130441E062E082E00E944B
:10035000D5038FEC97E00197F1F700C0000040E073
:1003600062E082E00F900F90DF91CF910C94D50363
:10037000462F61E00C946C01462F60E00C946C01F8
:10038000CF93C82F823010F0CF91089580938C00C6
:1003900041E060E082E00E94870341E061E082E0AA
:1003A0000E94870341E062E082E00E9487036FEFD2
:1003B00083E00E94C5032FEB8AED90E0215080403E
:1003C0009040E1F700C00000C130C9F140E060E0BA
:1003D00082E00E946C018FEC97E00197F1F700C07A
:1003E000000040E060E088E20E946C018FEC97E042
:1003F0000197F1F700C0000040E060E08CE00E944F
:100400006C018FEC97E00197F1F700C0000040E02D
:1004100060E081E00E946C018FE99FE00197F1F7B5
:1004200000C0000040E060E086E00E946C018FECBC
:1004300097E00197F1F700C00000CF91089541E0E7
:1004400060E088E30E946C018FEC97E00197F1F780
:1004500000C0000041E060E08EE00E946C018FEC83
:1004600097E00197F1F700C0000041E060E081E013
:100470000E946C018FE99FE00197F1F700C0000036
:1004800041E0D1CFCF93DF9300D00F92CDB7DEB74D
:100490008A839B836983009791F0FC018081811599
:1004A00071F03196EA83FB83498161E00E946C011F
:1004B000EA81FB818191EA83FB838111F5CF0F9063
:1004C0000F900F90DF91CF910895823008F008953A
:1004D0006031E8F78295880F880F807C860F409105
:1004E0008C0060E080680C946C01EF92FF920F9397
:1004F0001F93CF93DF9300D000D000D0CDB7DEB7ED
:100500009C016E838E010F5F1F4F85E0F8011192F1
:100510008A95E9F760E0FDECEF2E4DEC5CEC922F54
:1005200092959F70822F8F70890F932F9F70890FE4
:10053000932F92959F70890F8E9D912D1124792F65
:10054000769576959C77970F891BD901A81BB109E1
:10055000A49FF001A59FF00DB49FF00D1124E0FDC4
:100560008B5FD801A60FB11D805D8C93762F6F5FD6
:10057000C9019F01369527950A9788F6611581F084
:100580007801FFEFEF1AFF0AE70EF11C4E8161E0E0
:10059000F70182917F010E946C010E151F05B1F7D2
:1005A0000F900F900F900F900F900F90DF91CF91C1
:1005B0001F910F91FF90EF900895CF93DF9300D09C
:1005C00000D000D0CDB7DEB7242F4983452F5A8302
:1005D000562F6B837C83382F8D839E83213010F5BB
:1005E0003E983F98413029F178F1313029F150F1AE
:1005F000513028F5359A90B78C818295880F807E8E
:100600009F71892B80BF96B1987F8E81892B86B987
:10061000379A0F900F900F900F900F900F90DF91DF
:10062000CF91089599F02230E9F63E9A3F9A4130F1
:10063000D9F63D9A3130D9F6339A5130D8F219F7BC
:100640003598E1CF3398D4CF3D98CFCF3E9A3F989D
:10065000C9CF883000F54115510561057105C1F01C
:1006600097B1987F982B97B9349A369AA0E0B0E06A
:10067000CD0108C00196A11DB11D481759076A0791
:100680007B0731F0349BF6CF84B195B1349A08954D
:100690008FEF9FEF08958EEF9FEF089597B18770CA
:1006A000987F892B87B9369A0895009721F0809317
:1006B0008D0090938E0008951F920F920FB60F92A7
:1006C00011242F933F934F935F936F937F938F9357
:1006D0009F93AF93BF93EF93FF9384B195B1E09154
:1006E0008D00F0918E00309709F00995FF91EF9100
:1006F000BF91AF919F918F917F916F915F914F913A
:100700003F912F910F900FBE0F901F90189584303E
:10071000C0F46830B0F44130A9F098F421E001C091
:10072000220F6A95EAF72095823039F1833031F053
:10073000813039F18AB382238ABB089581B3822341
:1007400081BB089521E001C0220F6A95EAF782304B
:1007500061F0833031F0813061F08AB3822B8ABB43
:10076000089581B3822B81BB089584B3822B84BB0F
:10077000089587B3822B87BB089584B3822384BBFB
:10078000089587B3822387BB0895823049F020F40F
:10079000811541F067BB0895833031F461BB089542
:1007A00064BB08956ABB089508958430C0F468302E
:1007B000B0F44130A9F098F421E001C0220F6A950D
:1007C000EAF72095823039F1833031F0813039F108
:1007D0008BB382238BBB089582B3822382BB08959F
:1007E00021E001C0220F6A95EAF7823061F0833080
:1007F00031F0813061F08BB3822B8BBB089582B3D3
:10080000822B82BB089585B3822B85BB089588B364
:10081000822B88BB089585B3822385BB089588B356
:10082000822388BB0895823049F020F4811541F07D
:1008300068BB0895833031F462BB089565BB0895A9
:100840006BBB089508958430A0F4683090F421E0E3
:1008500001C0220F6A95EAF7823061F0833031F0EF
:10086000813061F08BB382278BBB089582B38227DE
:1008700082BB089585B3822785BB089588B38227FC
:1008800088BB089541155105A1F0843090F468307B
:1008900080F4823099F0833079F0813059F486B356
:1008A00090E002C0959587956A95E2F78170FA010C
:1008B0008083089589B3F4CF80B3F2CF83B3F0CFB0
:1008C0006115710571F0823091F030F4811559F0A5
:1008D00086B3FB0180830895833021F480B3FB014C
:1008E00080830895089589B3FB018083089583B3BD
:1008F000FB018083089500D000D000D0CDB7DEB7D3
:100900000E94490080E00E94C00160E080E00E94F7
:10091000650260E080E690E00E94420255C00E94BD
:10092000650260E08DE690E00E9442020D811E812A
:1009300060E017FD6EC08BE20E94B80160E0C80164
:100940000E94750260E080E790E00E94420268E049
:1009500080E00E94650260E085E790E00E9442022C
:100960000B811C8160E017FD4DC08BE20E94B80135
:1009700060E0C8010E94750260E080E790E00E949C
:10098000420260E081E00E94650260E088E790E05A
:100990000E94420209811A8160E017FD2CC08BE29F
:1009A0000E94B80160E0C8010E94750260E080E723
:1009B00090E00E9442022FEF81EE94E021508040AF
:1009C0009040E1F700C00000AE014F5F5F4FBE01F5
:1009D0006D5F7F4FCE0105960E94CC0060E08115CF
:1009E00009F49DCF81E00E94650260E08BE790E012
:1009F0000E944202E0CF8DE20E94B801119501955C
:100A00001109D0CF8DE20E94B8011195019511090D
:100A1000AFCF8DE20E94B8011195019511098ECFDB
:100A2000A29FB001B39FC001A39F700D811D11242F
:100A3000911DB29F700D811D1124911D0895052EE9
:100A400097FB1EF400940E94360557FD07D00E94C4
:100A5000490507FC03D04EF40C943605509540959B
:100A6000309521953F4F4F4F5F4F0895909580955A
:100A7000709561957F4F8F4F9F4F08950E9410058D
:100A8000A59F900DB49F900DA49F800D911D1124E2
:100A90000895A1E21A2EAA1BBB1BFD010DC0AA1FBF
:100AA000BB1FEE1FFF1FA217B307E407F50720F0D7
:100AB000A21BB30BE40BF50B661F771F881F991F52
:100AC0001A9469F760957095809590959B01AC019B
:0A0AD000BD01CF010895F894FFCF97
:100ADA004144584C3333352044656D6F00583A0011
:100AEA002020202000593A005A3A0053656E736F4D
:0C0AFA0072206572726F722120202000B3
:00000001FF
