:100000000C942A000C9447000C9447000C94470071
:100010000C9447000C9447000C9447000C94470044
:100020000C9447000C9447000C9447000C94470034
:100030000C9447000C9447000C9447000C94470024
:100040000C9447000C9447000C9447000C94470014
:100050000C94470011241FBECFE5D8E0DEBFCDBF12
:1000600010E0A0E6B0E0ECEAF8E002C005900D92E6
:10007000A437B107D9F720E0A4E7B0E001C01D9292
:10008000A537B207E1F70E942A020C9454040C949D
:10009000000041E060E081E00E94650240E060E035
:1000A00081E00E94F5028FE99CE80197F1F700C01A
:1000B000000041E060E081E00E94F5020895CF93E6
:1000C000DF930F92CDB7DEB7198240E060E081E0A8
:1000D0000E946502AE014F5F5F4F60E081E00E94C9
:1000E000BF0389818111F6CFAE014F5F5F4F60E0A2
:1000F00081E00E94BF0389818115B1F3AE014F5F9A
:100100005F4F60E081E00E94BF0389818111F6CFDB
:100110000F90DF91CF9108950F931F93CF93DF93AB
:100120000F92CDB7DEB719820E945F0000E010E0A9
:100130000CC0110FAE014F5F5F4F60E081E00E9485
:10014000BF0389818111F6CF0F5F0830D8F4AE016B
:100150004F5F5F4F60E081E00E94BF03898181159E
:10016000B1F385E88A95F1F70000AE014F5F5F4F6C
:1001700060E081E00E94BF0389818115D1F2110FF7
:100180001160D8CF812F0F90DF91CF911F910F91E8
:100190000895CF93DF930F92CDB7DEB78983613097
:1001A00021F00F90DF91CF91089541E060E080E071
:1001B0000E94F50240E061E080E00E94F502698162
:1001C00082E00E94730341E062E080E00E94F50259
:1001D0008FEC97E00197F1F700C0000040E062E08B
:1001E00080E00E94F502DDCFCF93DF930F92CDB771
:1001F000DEB78983613021F00F90DF91CF910895B0
:1002000040E060E080E00E94F50240E061E080E0D4
:100210000E94F502698182E00E94730341E062E07E
:1002200080E00E94F5028FEC97E00197F1F700C0A3
:10023000000040E062E080E00E94F502DDCF813006
:1002400009F0089541E060E080E00E94650241E02D
:1002500061E080E00E94650241E062E080E00E948F
:1002600065026FEF82E00E94E3022FEB8AED90E0DF
:10027000215080409040E1F700C0000061E088E339
:100280000E94F4008FEC97E00197F1F700C00000A6
:1002900061E08EE00E94F4008FEC97E00197F1F7A7
:1002A00000C0000061E081E00E94F4008FE99FE05F
:1002B0000197F1F700C0000061E086E00E94F400C1
:1002C0008FEC97E00197F1F700C0000008950F93BD
:1002D0001F93CF93082F192F0115110561F0C0E06E
:1002E00004C061E00E94C900CF5FF801EC0FF11D6E
:1002F00080818111F6CFCF911F910F910895982F92
:10030000862F913010F031F4805C61E080680E94AB
:10031000F400089580E0F9CF8F929F92AF92BF9240
:10032000CF92DF92EF92FF92CF93DF930F92CDB7F0
:10033000DEB7862E972EA82EB92E4983BB2024F037
:1003400060E070E0CB012FC0642F8DE20E94C900F5
:10035000B094A09490948094811C911CA11CB11C19
:10036000EFCF6B017C01CC0CDD1CEE1CFF1CCC0C18
:10037000DD1CEE1CFF1CC60ED71EE81EF91ECC0CA1
:10038000DD1CEE1CFF1CC501B4012AE030E040E09A
:1003900050E00E9413046C0D7D1D8E1D9F1D822E4A
:1003A000932EA42EB52E81149104A104B104C9F694
:1003B00013C02AE030E040E050E00E941304C22E57
:1003C000D32EE42EF52E862F6981805D0E94C90010
:1003D0006C2D7D2D8E2D9F2D00977040604049F72C
:1003E000698180E30E94C9000F90DF91CF91FF9057
:1003F000EF90DF90CF90BF90AF909F908F90089537
:10040000CF93C42F41E00E946502C0937400CF9146
:10041000089590917400913019F0923029F0089568
:1004200041E00E94F502089540E00E94F50208951F
:1004300090917400913019F0923029F0089540E0C5
:100440000E94F502089541E00E94F50208950E947D
:100450008503089541E063E081E00E94000281E0AD
:100460000E941F010E94490061E080E690E00E9426
:10047000670161E081E00E94F4002FEF80E792E0E5
:10048000215080409040E1F700C0000004C063E0CC
:1004900081E00E94090261E080E00E947F0161E04A
:1004A00088E690E00E9467010E948C00C82F682FA8
:1004B00070E080E090E041E00E948C01C63439F7A2
:1004C00063E081E00E941802E6CF843008F061C04A
:1004D000683008F05EC04130C1F008F05AC0823088
:1004E00009F465C008F048C0813008F454C009F030
:1004F00042C027B381E090E002C0880F991F6A953F
:10050000E2F78095822387BB0895823049F178F421
:100510008130D8F059F487B321E030E002C0220FD7
:10052000331F6A95E2F7822B87BB089508958330C5
:1005300059F481B321E030E002C0220F331F6A95E5
:10054000E2F7822B81BB089508958AB321E030E061
:1005500002C0220F331F6A95E2F7822B8ABB0895EF
:1005600084B321E030E002C0220F331F6A95E2F726
:10057000822B84BB08950895833061F421B381E018
:1005800090E002C0880F991F6A95E2F78095822358
:1005900081BB089508952AB381E090E002C0880FDE
:1005A000991F6A95E2F7809582238ABB089524B348
:1005B00081E090E002C0880F991F6A95E2F780956C
:1005C000822384BB0895823071F030F4813048F08A
:1005D00011F467BB08950895833011F461BB089549
:1005E00008956ABB089564BB0895843008F061C023
:1005F000683008F05EC04130C1F008F05AC0823067
:1006000009F465C008F048C0813008F454C009F00E
:1006100042C028B381E090E002C0880F991F6A951C
:10062000E2F78095822388BB0895823049F178F4FF
:100630008130D8F059F488B321E030E002C0220FB5
:10064000331F6A95E2F7822B88BB089508958330A3
:1006500059F482B321E030E002C0220F331F6A95C3
:10066000E2F7822B82BB089508958BB321E030E03E
:1006700002C0220F331F6A95E2F7822B8BBB0895CD
:1006800085B321E030E002C0220F331F6A95E2F704
:10069000822B85BB08950895833061F422B381E0F5
:1006A00090E002C0880F991F6A95E2F78095822337
:1006B00082BB089508952BB381E090E002C0880FBB
:1006C000991F6A95E2F7809582238BBB089525B325
:1006D00081E090E002C0880F991F6A95E2F780954B
:1006E000822385BB0895823071F030F4813048F068
:1006F00011F468BB08950895833011F462BB089526
:1007000008956BBB089565BB0895843000F568308B
:10071000F0F4823049F178F48130D8F059F488B39C
:1007200021E030E002C0220F331F6A95E2F78227F2
:1007300088BB08950895833059F482B321E030E0F6
:1007400002C0220F331F6A95E2F7822782BB089509
:1007500008958BB321E030E002C0220F331F6A9569
:10076000E2F782278BBB089585B321E030E002C019
:10077000220F331F6A95E2F7822785BB0895E42F85
:10078000F52F309701F18430F0F46830E0F48230D6
:1007900031F170F48130C8F051F486B390E002C0BA
:1007A000959587956A95E2F78170808308950895FD
:1007B000833051F480B390E002C0959587956A9597
:1007C000E2F7817080830895089589B390E002C0B4
:1007D000959587956A95E2F781708083089583B334
:1007E00090E002C0959587956A95E2F781708083C5
:1007F0000895E62FF72F309771F0823089F038F4A2
:10080000813058F019F486B38083089508958330B9
:1008100019F480B380830895089589B3808308957F
:1008200083B380830895052E97FB1EF400940E94E5
:100830002A0457FD07D00E94320407FC03D04EF46F
:100840000C942A0450954095309521953F4F4F4F79
:100850005F4F089590958095709561957F4F8F4F6C
:100860009F4F0895A1E21A2EAA1BBB1BFD010DC0CC
:10087000AA1FBB1FEE1FFF1FA217B307E407F50750
:1008800020F0A21BB30BE40BF50B661F771F881F2C
:10089000991F1A9469F760957095809590959B01C2
:0C08A000AC01BD01CF010895F894FFCF1A
:1008AC0077656C636F6D650068756D6964697479E3
:0408BC0020200000F8
:00000001FF
