:100000000C942A000C9447000C9447000C94470071
:100010000C9447000C9447000C9447000C94470044
:100020000C9447000C9447000C9447000C94470034
:100030000C9447000C9447000C9447000C94470024
:100040000C9447000C9447000C9447000C94470014
:100050000C94470011241FBECFE5D8E0DEBFCDBF12
:1000600011E0A0E6B0E0E2E7FAE002C005900D92F0
:10007000A832B107D9F721E0A8E2B1E001C01D9292
:10008000AA33B207E1F70E947A010C9437050C9469
:1000900000008F929F92AF92BF92CF92DF92EF9229
:1000A000FF920F931F93CF93DF93CDB7DEB7629785
:1000B0000FB6F894DEBF0FBECDBF82E1E2E6F0E0FE
:1000C000DE01119601900D928A95E1F789809A8060
:1000D000AB80BC80CD80DE80EF80F88409851A85F6
:1000E0002B853C854D855E856F85788989899A89C0
:1000F0000E941A0440E060E083E00E94A20141E017
:1001000061E083E00E94A201109261001092600001
:1001100062960FB6F894DEBF0FBECDBFDF91CF91D0
:100120001F910F91FF90EF90DF90CF90BF90AF9015
:100130009F908F900895811107C082E090E0909386
:10014000610080936000089590E00E94580384E06D
:1001500090E090936100809360000895CF92DF92C9
:10016000EF92FF92CF93DF93C82FD92FC42ED52EB5
:10017000E62EF72E209731F10E940604811112C05D
:10018000C114D104E104F10431F081E0C81AD108AE
:10019000E108F108F1CF81E090E090936100809355
:1001A000600009C00E946D03888383E090E0909313
:1001B000610080936000DF91CF91FF90EF90DF901E
:1001C000CF90089582E090E090936100809360006A
:1001D000F2CF282F392F2115310551F0C9010E9486
:1001E000840384E090E09093610080936000089520
:1001F00082E090E0909361008093600008950F93F7
:100200001F93CF93DF9300D000D000D0CDB7DEB7DF
:10021000082F192F6E8329833A834B835C83011542
:100220001105E9F1422F532F6B817C81C8010E9497
:10023000AE00E82FF92F1D82E330F105B9F4D801A3
:100240008D81A80FB11D8C919E81891779F02D8128
:100250002F5F2D8349815A816B817C81C801820F78
:10026000911D0E94AE00E82FF92FE6CFE330F10593
:1002700081F0F0936100E0936000CF010F900F9048
:100280000F900F900F900F90DF91CF911F910F91D2
:100290000895D8012D81A20FB11D1C92EACF82E0F2
:1002A00090E09093610080936000E2E0F0E0E5CFA1
:1002B000809160009091610008950E945801823001
:1002C00069F0813070F081F0843089F0833019F06A
:1002D00084ED90E008958AEB90E0089584E790E043
:1002E000089583E890E0089580E990E0089582EA17
:1002F00090E008950E9449008AEE90E00E94E90093
:100300002FEF84E39CE0215080409040E1F700C053
:10031000000084E091E00E94E90081E291E00E9407
:10032000E90081E60E949B000E945D010E94E900B5
:100330002FEF84E39CE0215080409040E1F700C023
:100340000000EBCF8430E8F46830D8F44130C0F4DA
:10035000411117C0823009F467C008F04AC08130EB
:1003600008F456C009F044C027B381E090E002C011
:10037000880F991F6A95E2F78095822387BB0895BD
:1003800009F00895823049F178F48130D8F059F4B9
:1003900087B321E030E002C0220F331F6A95E2F7F5
:1003A000822B87BB08950895833059F481B321E0EF
:1003B00030E002C0220F331F6A95E2F7822B81BB27
:1003C000089508958AB321E030E002C0220F331F60
:1003D0006A95E2F7822B8ABB089584B321E030E06E
:1003E00002C0220F331F6A95E2F7822B84BB089567
:1003F0000895833061F421B381E090E002C0880F5A
:10040000991F6A95E2F78095822381BB089508952C
:100410002AB381E090E002C0880F991F6A95E2F745
:10042000809582238ABB089524B381E090E002C0C6
:10043000880F991F6A95E2F78095822384BB0895FF
:100440008430E8F46830D8F44130C0F4411117C06A
:10045000823009F467C008F04AC0813008F456C001
:1004600009F044C028B381E090E002C0880F991FD2
:100470006A95E2F78095822388BB089509F0089574
:10048000823049F178F48130D8F059F488B321E012
:1004900030E002C0220F331F6A95E2F7822B88BB3F
:1004A00008950895833059F482B321E030E002C00A
:1004B000220F331F6A95E2F7822B82BB08950895BD
:1004C0008BB321E030E002C0220F331F6A95E2F7C0
:1004D000822B8BBB089585B321E030E002C0220F50
:1004E000331F6A95E2F7822B85BB08950895833008
:1004F00061F422B381E090E002C0880F991F6A95F1
:10050000E2F78095822382BB089508952BB381E0A2
:1005100090E002C0880F991F6A95E2F780958223C8
:100520008BBB089525B381E090E002C0880F991F2E
:100530006A95E2F78095822385BB0895843090F513
:10054000683090F5823029F170F48130C8F049F4B8
:1005500086B390E002C0959587956A95E2F7817021
:10056000089580E00895833049F480B390E002C09C
:10057000959587956A95E2F78170089580E00895D2
:1005800089B390E002C0959587956A95E2F78170EE
:10059000089583B390E002C0959587956A95E2F738
:1005A0008170089580E0089580E00895843000F51A
:1005B0006830F0F4823049F178F48130D8F059F4A1
:1005C00088B321E030E002C0220F331F6A95E2F7C2
:1005D000822788BB08950895833059F482B321E0BF
:1005E00030E002C0220F331F6A95E2F7822782BBF8
:1005F000089508958BB321E030E002C0220F331F2D
:100600006A95E2F782278BBB089585B321E030E03D
:1006100002C0220F331F6A95E2F7822785BB089537
:10062000843060F4823071F030F4813048F011F49D
:1006300067BB08950895833011F461BB0895089550
:100640006ABB089564BB0895843060F4823071F011
:1006500030F4813048F011F468BB08950895833078
:1006600011F462BB089508956BBB089565BB0895AE
:100670008430A0F4823081F038F4813058F011F4E5
:1006800086B3089580E00895833011F480B308950F
:1006900080E0089589B3089583B3089580E00895B4
:1006A0008FB780688FBF08958FB78F778FBF0895FA
:1006B000282F392F5D9BFECF80912E0190912F0125
:1006C000049711F02CB908958AB18E7F8AB930FF52
:1006D000F9CF8AB181608AB9F5CF5F9BFECF809157
:1006E0002E0190912F01049739F020E030E08CB179
:1006F000A901482BCA010895519903C020E030E0B8
:10070000F6CF20E031E0F3CF0F931F93CF93082F64
:10071000192FC0E004C090E00E945803CF5FF80199
:10072000EC0FF11D80818111F6CFCF911F910F91B8
:1007300008950F931F93CF93DF93082F192FD62F70
:1007400001151105A1F00E946D03F8018083C0E03E
:1007500007C0CF5F0E946D03F801EC0FF11D80838D
:10076000F801EC0FF11D80818D13F3CF1082DF9122
:10077000CF911F910F9108951F93CF93DF93CDB722
:10078000DEB72A970FB6F894DEBF0FBECDBF811536
:1007900011F010E01EC080E390E00E9458032CC0CE
:1007A0009DEC899F912D1124969596959695292FCC
:1007B000220F220F290F220F821B805DE1E0F0E063
:1007C000EC0FFD1FE10FF11D17FDFA9580831F5FF0
:1007D000892F8111E5CF11500DC0E1E0F0E0EC0F61
:1007E000FD1FE10FF11D17FDFA95808190E00E9439
:1007F0005803115011158CF72A960FB6F894DEBFE6
:100800000FBECDBFDF91CF911F91089588275F99CB
:10081000839508958AB180618AB908958AB1886004
:100820008AB908958AB18F7E8AB908958AB1877F7F
:100830008AB908958F929F92AF92BF92CF92DF9222
:10084000EF92FF920F931F93CF93DF93CDB7DEB755
:1008500062970FB6F894DEBF0FBECDBF89829A8231
:10086000AB82BC82CD82DE82EF82F88609871A874E
:100870002B873C874D875E876F87788B898B9A8B18
:1008800082E1FE013196A8E2B1E001900D928A95D5
:10089000E1F789819A81019720F009F469C080E825
:1008A00001C080E82D813E812130310530F009F40E
:1008B00061C02230310509F45FC02B813C812130B9
:1008C000310508F05BC0877F2F81388521303105E5
:1008D00008F058C0897F9AB19B7F9AB980BD8B85FB
:1008E0009C85019708F06FC08BB18D7F8BB98B858C
:1008F0009C85019708F06DC02F85388949895A89F0
:10090000220F331F441F551F220F331F441F551F33
:10091000220F331F441F551F220F331F441F551F23
:1009200060E072E18AE790E00E94150521503109EC
:1009300029B930BD8D859E858130910508F466C04A
:1009400009F469C0029709F46BC062960FB6F89477
:10095000DEBF0FBECDBFDF91CF911F910F91FF90F2
:10096000EF90DF90CF90BF90AF909F908F900895C1
:1009700080EC98CF8062A1CF80639FCF09F0A4CF95
:100980008860A2CF79F02230310591F02330310513
:10099000A9F02430310509F0A1CF86609AB19460A6
:1009A0009AB99CCF8B7F82609AB19B7F9AB996CF80
:1009B0008D7F84609AB19B7F9AB990CF86609AB1FF
:1009C0009B7F9AB98BCF09F092CF8BB182608BB9A4
:1009D0008ECF19F020E030E0ABCF2F8538894989E0
:1009E0005A89220F331F441F551F220F331F441FE4
:1009F000551F220F331F441F551F60E072E18AE725
:100A000090E00E9415052150310992CF0E940A04FE
:100A10000E9416049ACF0E9412040E940E0495CFE1
:100A20000E940A040E940E0490CFA1E21A2EAA1B73
:100A3000BB1BFD010DC0AA1FBB1FEE1FFF1FA2178E
:100A4000B307E407F50720F0A21BB30BE40BF50B8B
:100A5000661F771F881F991F1A9469F76095709514
:100A6000809590959B01AC01BD01CF010895F8944C
:020A7000FFCFB6
:100A72000500000000000000030001000000020069
:100A820080250000426C7565746F6F74685F4E5507
:100A92004C4C00426C7565746F6F74685F4F4B000D
:100AA200426C7565746F6F74685F54494D454F555C
:100AB2005400426C7565746F6F74685F73656E6421
:100AC2005F636F6D706C65746500426C7565746F01
:100AD2006F74685F7265636976655F636F6D706C72
:100AE20065746500426C7565746F6F74685F6E6FD4
:100AF200745F737461727465640057656C636F6DC3
:100B02006520746F20426C7565746F6F7468202164
:100B1200200D0A00426C7565746F6F74682052650F
:100B220061647920666F7220416374696F6E0D0A89
:080B320000746573743F0A00B2
:00000001FF
