:100000000C942A000C9447000C9447000C94470071
:100010000C9447000C9447000C9447000C94470044
:100020000C9447000C9447000C9447000C94470034
:100030000C9447000C9447000C9447000C94470024
:100040000C9447000C9447000C9447000C94470014
:100050000C94470011241FBECFE5D8E0DEBFCDBF12
:1000600010E0A0E6B0E0ECEEF8E002C005900D92E2
:10007000AA38B107D9F720E0AAE8B0E001C01D9284
:10008000AB38B207E1F70E9420040C9474040C947E
:10009000000041E060E080E00E94290341E060E070
:1000A00080E00C94640341E060E080E00E9429035A
:1000B00040E060E080E00E9464038FE99CE80197E3
:1000C000F1F700C0000041E060E080E00E946403BE
:1000D00090E59A95F1F7089560E080E00E949F0313
:1000E0008130D1F360E080E00E949F038115D1F35D
:1000F00060E080E00E949F038130D1F30895CF92A9
:10010000DF92EF92FF920F931F93CF93DF93CDB7C0
:10011000DEB729970FB6F894DEBF0FBECDBF8E8332
:100120009F83688779877E018FEFE81AF80A85E058
:10013000F70111928A95E9F741E060E080E00E94C2
:10014000290340E060E080E00E9464038FE99CE8BE
:100150000197F1F700C0000041E060E080E00E94FC
:10016000640390E59A95F1F740E060E080E00E943A
:1001700029030E946C006E01E6E0CE0ED11C08E05F
:1001800060E080E00E949F038115D1F3FAE6FA95C2
:10019000F1F700C0F7011081110F108360E080E0DB
:1001A0000E949F03813069F1015051F7FFEFEF1A70
:1001B000FF0ACE14DF0419F741E060E080E00E94FE
:1001C000290341E060E080E00E94640329819B8173
:1001D0008A81820F890F3C81830F3D813817D9F0C6
:1001E00081E090E029960FB6F894DEBF0FBECDBF38
:1001F000DF91CF911F910F91FF90EF90DF90CF9003
:1002000008951160F701108360E080E00E949F0371
:100210008130D1F3C9CFEE81FF812083E885F98554
:10022000908383E090E0DECF41E060E080E00E94D8
:10023000290341E060E080E00C946403CF93C82F71
:1002400080918A00813020F009F45FC0CF91089539
:1002500041E062E082E00E946403C4FB442740F96D
:1002600064E082E00E946403C5FB442740F965E036
:1002700082E00E946403C6FB442740F966E082E006
:100280000E946403C7FB442740F967E082E00E94B4
:10029000640341E063E082E00E9464038FEC97E036
:1002A0000197F1F700C0000040E063E082E00E94A7
:1002B00064034C2F417064E082E00E946403C1FB40
:1002C000442740F965E082E00E946403C2FB4427B2
:1002D00040F966E082E00E946403C3FB442740F9D2
:1002E00067E082E00E94640341E063E082E00E94F4
:1002F00064038FEC97E00197F1F700C0000040E045
:1003000063E082E0CF910C94640341E062E082E01C
:100310000E9464036C2F82E00E94FE03E5CFCF931E
:10032000C82F80918A00813020F009F45FC0CF91FE
:10033000089540E062E082E00E946403C4FB442729
:1003400040F964E082E00E946403C5FB442740F961
:1003500065E082E00E946403C6FB442740F966E042
:1003600082E00E946403C7FB442740F967E082E013
:100370000E94640341E063E082E00E9464038FEC2A
:1003800097E00197F1F700C0000040E063E082E0F1
:100390000E9464034C2F417064E082E00E94640379
:1003A000C1FB442740F965E082E00E946403C2FB80
:1003B000442740F966E082E00E946403C3FB4427BF
:1003C00040F967E082E00E94640341E063E082E07C
:1003D0000E9464038FEC97E00197F1F700C00000E2
:1003E00040E063E082E0CF910C94640340E062E07F
:1003F00082E00E9464036C2F82E00E94FE03E5CF3E
:10040000CF93C82F813020F009F44AC0CF910895CE
:1004100060EF82E00E94EE0341E062E082E00E9431
:10042000290341E063E082E00E9429032FEB8AED7B
:1004300090E0215080409040E1F700C0000082E051
:100440000E948F018FE99FE00197F1F700C0000043
:1004500088E20E948F018FEC97E00197F1F700C0CE
:1004600000008CE00E948F018FEC97E00197F1F77C
:1004700000C0000081E00E948F018FE99FE001979A
:10048000F1F700C0000086E00E948F018FEC97E03A
:100490000197F1F700C0000010928A00CF910895F3
:1004A0006FEF82E00E94EE0341E062E082E00E9492
:1004B000290341E063E082E00E9429039FEB2AEDDB
:1004C00080E0915020408040E1F700C0000088E3C8
:1004D0000E948F018FEC97E00197F1F700C00000B8
:1004E0008EE00E948F018FEC97E00197F1F700C03A
:1004F000000081E00E948F018FE99FE00197F1F7F2
:1005000000C0000086E00E948F018FEC97E0019709
:10051000F1F700C00000C0938A00CF9108950F93B7
:100520001F93CF938C01FC018081811551F0C0E0B5
:100530000E941E01CF5FF801EC0FF11D8081811137
:10054000F7CFCF911F910F910895813048F029F492
:1005500080E4860F80680C948F0180E80C948F01F2
:10056000862F80680C948F01EF92FF920F931F9358
:10057000CF93DF93CDB7DEB72A970FB6F894DEBFDF
:100580000FBECDBF9C01892B09F454C070E08E01D1
:100590000F5F1F4F9DECE92E4DEC5CEC922F929576
:1005A0009F70822F8F70890F932F9F70890F932FC9
:1005B00092959F70890F8E9D912D1124692F6695BC
:1005C00066959C77960F891BD901A81BB109A49F3A
:1005D000F001A59FF00DB49FF00D1124E0FD8B5F9D
:1005E000972F7F5FD801A90FB11D805D8C93D90132
:1005F0009F01369527951A9788F697FD0EC07801CA
:100600008FEFE81AF80AE90EF11CF70182917F01D9
:100610000E941E01E016F106C1F72A960FB6F89463
:10062000DEBF0FBECDBFDF91CF911F910F91FF9025
:10063000EF90089580E32A960FB6F894DEBF0FBEC0
:10064000CDBFDF91CF911F910F91FF90EF900C9450
:100650001E01843020F4683010F4423008F0089510
:1006600021E001C0220F6A95EAF7413079F0209528
:100670008230B1F0833031F08130B1F08AB382231F
:100680008ABB089581B3822381BB08958230C1F073
:10069000833091F0813061F08AB3822B8ABB089558
:1006A00084B3822384BB089587B3822387BB0895D4
:1006B00087B3822B87BB089581B3822B81BB0895BA
:1006C00084B3822B84BB0895843020F4683010F406
:1006D000423008F0089521E001C0220F6A95EAF740
:1006E000413079F020958230B1F0833031F08130A3
:1006F000B1F08BB382238BBB089582B3822382BB7C
:1007000008958230C1F0833091F0813061F08BB375
:10071000822B8BBB089585B3822385BB089588B354
:10072000822388BB089588B3822B88BB089582B347
:10073000822B82BB089585B3822B85BB08958430BC
:1007400088F4683078F4823009F18330B1F0813078
:1007500059F089B390E002C0959587956A95E2F7C4
:100760008170089580E0089586B390E002C0959569
:1007700087956A95E2F78170089580B390E002C092
:10078000959587956A95E2F78170089583B390E017
:1007900002C0959587956A95E2F781700895843037
:1007A000A0F4683090F421E001C0220F6A95EAF7C6
:1007B000823061F0833031F0813061F08BB3822779
:1007C0008BBB089582B3822782BB089585B38227AD
:1007D00085BB089588B3822788BB0895843048F488
:1007E000823051F0833021F0813021F06ABB0895CE
:1007F00061BB089567BB089564BB0895843048F4D5
:10080000823051F0833021F0813021F06BBB0895AC
:1008100062BB089568BB089565BB0895843040F4B9
:10082000823051F0833051F0813021F089B3089546
:1008300080E0089586B3089583B3089580B3089542
:10084000CF93DF9300D0CDB7DEB71A82198280E054
:100850000E9400020E94490060E080E00E94A50220
:1008600080E690E00E948F0260E081E00E94A50295
:100870008AE690E00E948F020BC0019761F12FEF92
:1008800083ED90E3215080409040E1F700C00000EC
:10089000BE016F5F7F4FCE0102960E947F008330C2
:1008A000910559F76AE080E00E94A5028A8190E0F4
:1008B0000E94B40280E790E00E948F0266E081E02F
:1008C0000E94A502898190E00E94B40284E790E032
:1008D0000E948F02D4CF60E080E00E94A50288E7EA
:0C08E00090E00E948F02CBCFF894FFCF75
:1008EC0048756D69646974793A0054656D703A00A5
:1008FC002025200020432000436865636B73756DD1
:0A090C00204572726F722020200057
:00000001FF
