:100000000C942A000C943F000C943F000C943F0089
:100010000C943F000C943F000C943F000C943F0064
:100020000C943F000C943F000C943F000C943F0054
:100030000C943F000C943F000C943F000C943F0044
:100040000C943F000C943F000C943F000C943F0034
:100050000C943F0011241FBECFE5D8E0DEBFCDBF1A
:1000600010E0A0E6B0E0E2ECF7E002C005900D92EF
:10007000AC38B107D9F70E9483030C94DF030C94CA
:10008000000041E060E083E00E948F0240E060E019
:1000900083E00E94DD028FE99CE80197F1F700C040
:1000A000000041E060E083E00E94DD0290E59A9567
:1000B000F1F740E060E083E00C948F020F931F9310
:1000C000CF93DF930F92CDB7DEB7AE014F5F5F4F97
:1000D00060E083E00E942B03898100E513EC81300E
:1000E00029F00EC00150104009F445C0AE014F5F29
:1000F0005F4F60E083E00E942B038981813091F3A0
:10010000AE014F5F5F4F60E083E00E942B03898167
:1001100000E513EC811521F00DC00150104059F19C
:10012000AE014F5F5F4F60E083E00E942B03898147
:10013000811599F3AE014F5F5F4F60E083E00E944D
:100140002B03898100E513EC813021F00DC00150B3
:10015000104089F0AE014F5F5F4F60E083E00E9486
:100160002B038981813099F381E00F90DF91CF914A
:100170001F910F91089580E00F90DF91CF911F9113
:100180000F910895BF92CF92DF92EF92FF920F935B
:100190001F93CF93DF9300D00F92CDB7DEB76C01E2
:1001A00085E0F60111928A95E9F77601C601059678
:1001B0008A839B8388E0B82EAE014F5F5F4F60E07B
:1001C00083E00E942B03898100E513EC811529F05F
:1001D0000EC00150104009F446C0AE014F5F5F4FA2
:1001E00060E083E00E942B038981811591F3AE01C9
:1001F0004F5F5F4F60E083E00E942B03898101E045
:1002000010E0813039F03DC00F5F1F4F0135F3EC36
:100210001F0749F1AE014F5F5F4F60E083E00E942E
:100220002B038981813081F3F7018081880F0930A8
:10023000110508F081608083BA9409F0BDCFFFEF0B
:10024000EF1AFF0A8A819B818E159F0509F0B2CFB4
:10025000F60190818181980F8281980F8381980F98
:1002600081E02481921380E00F900F900F90DF9136
:10027000CF911F910F91FF90EF90DF90CF90BF90A3
:100280000895F7018081880F8083D6CFCF93DF93C5
:100290000F92CDB7DEB7898341E060E080E00E9435
:1002A000DD0240E061E080E00E94DD02698181E0E2
:1002B0000E941B0341E062E080E00E94DD028FECBF
:1002C00097E00197F1F700C0000040E062E080E0B5
:1002D0000F90DF91CF910C94DD02CF93DF930F92BB
:1002E000CDB7DEB7898340E060E080E00E94DD02A8
:1002F00040E061E080E00E94DD02698181E00E94CF
:100300001B0341E062E080E00E94DD028FEC97E099
:100310000197F1F700C0000040E062E080E00F903C
:10032000DF91CF910C94DD02613009F008950C94B7
:100330004601613009F008950C946D01813009F097
:10034000089541E060E080E00E948F0241E061E0BA
:1003500080E00E948F0241E062E080E00E948F0214
:100360006FEF81E00E94CD028FE292EF0197F1F7EB
:1003700000C0000088E30E946D0195E89A95F1F7AE
:1003800000008CE00E946D0185E88A95F1F700007D
:1003900081E00E946D0187E09CE00197F1F700C0C9
:1003A000000086E00E946D018FEC97E00197F1F765
:1003B00000C0000008950F931F93CF938C01009706
:1003C00071F0FC018081811551F0C0E0613059F07D
:1003D000CF5FF801EC0FF11D80818111F7CFCF9134
:1003E0001F910F9108950E944601CF5FF801EC0F15
:1003F000F11D80818111F7CFF2CF813048F029F4CF
:1004000080E4860F80680C946D0180E80C946D0187
:10041000862F80680C946D01CF92DF92EF92FF924D
:100420000F931F93CF93DF9300D000D00F92CDB7DF
:10043000DEB79C01892B09F455C040E07DECECEC63
:10044000DE2EC72E922F92959F70822F8F70890F6C
:10045000932F9F70890F932F92959F70890F879F7D
:10046000912D1124592F569556959C77950F891BE0
:100470008901081B11090C9DD0010D9DB00D1C9D1B
:10048000B00D1124A0FD8B5F8E010F5F1F4F040F75
:10049000111D805DF8018083C9019D013695279566
:1004A000142F4F5F0A9770F617FD0EC082E0E82EFA
:1004B000F12CEC0EFD1EE10EF11CF1E0EF1AF1083B
:1004C000613011F11150C8F70F900F900F900F90FD
:1004D0000F90DF91CF911F910F91FF90EF90DF90E0
:1004E000CF900895613081F780E30F900F900F90C7
:1004F0000F900F90DF91CF911F910F91FF90EF9090
:10050000DF90CF900C944601F701808103C0F70182
:1005100082917F010E9446011150C8F7D5CF8430E7
:10052000C0F46830B0F44130A9F098F421E001C083
:10053000220F6A95EAF72095823039F1833031F045
:10054000813039F18AB382238ABB089581B3822333
:1005500081BB089521E001C0220F6A95EAF782303D
:1005600061F0833031F0813061F08AB3822B8ABB35
:10057000089581B3822B81BB089584B3822B84BB01
:10058000089587B3822B87BB089584B3822384BBED
:10059000089587B3822387BB0895823049F020F401
:1005A000811541F067BB0895833031F461BB089534
:1005B00064BB08956ABB089508958430C0F4683020
:1005C000B0F44130A9F098F421E001C0220F6A95FF
:1005D000EAF720958230F9F0833031F08130F9F07C
:1005E0008BB382238BBB089582B3822382BB089591
:1005F00021E001C0220F6A95EAF78230A1F0833032
:1006000031F08130A1F08BB3822B8BBB089582B384
:10061000822B82BB089585B3822385BB089588B35E
:10062000822388BB089585B3822B85BB089588B348
:10063000822B88BB0895823049F020F4811541F067
:1006400068BB0895833031F462BB089565BB08959B
:100650006BBB0895089541155105A1F0843090F4C5
:10066000683080F4823099F0833079F0813059F429
:1006700086B390E002C0959587956A95E2F7817000
:10068000FA018083089589B3F4CF80B3F2CF83B3A6
:10069000F0CF6115710571F0823091F030F4811561
:1006A00059F086B3FB0180830895833021F480B331
:1006B000FB0180830895089589B3FB018083089529
:1006C00083B3FB01808308958430A0F4683090F4F4
:1006D00021E001C0220F6A95EAF7823061F0833091
:1006E00031F0813061F08BB382278BBB089582B3E8
:1006F000822782BB089585B3822785BB089588B37E
:10070000822788BB089500D000D00F92CDB7DEB706
:1007100081E00E949E0164E080E00E94FD0161E0B2
:1007200080E690E00E94DB012FEF81EE94E0215003
:1007300080409040E1F700C0000061E081E00E944D
:1007400099010EC061E086E690E00E94DB012FEF88
:1007500083ED90E3215080409040E1F700C000001D
:100760000E9441000E945E00811561F3CE01019656
:100770000E94C200811106C061E08CE690E00E94F8
:10078000DB01E5CF60E080E00E94FD0161E082E7EF
:1007900090E00E94DB01898161E090E00E940C0200
:1007A00060E081E00E94FD0161E08DE790E00E9441
:1007B000DB018B8161E090E00E940C02C8CFF894CD
:0207C000FFCF69
:1007C2003534353638007265633A20006768683A16
:1007D200200048756D69646974793A200054656D2A
:0C07E20070657261747572653A20000049
:00000001FF
