:100000000C942A000C9447000C9447000C94470071
:100010000C9447000C9447000C9447000C94470044
:100020000C9447000C9447000C9447000C94470034
:100030000C9447000C94F1050C9445060C941C0696
:100040000C9447000C9447000C9447000C94470014
:100050000C94470011241FBECFE5D8E0DEBFCDBF12
:1000600010E0A0E6B0E0E6EAF1E102C005900D92F2
:10007000AE37B107D9F720E0AEE7B0E001C01D927E
:10008000AF38B207E1F70E946E060C94CA080C94D0
:100090000000EF92FF920F931F93CF93DF93CDB7A2
:1000A000DEB760970FB6F894DEBF0FBECDBF8BE012
:1000B000E0E6F0E0DE01119601900D928A95E1F7FD
:1000C000E980FA800B811C812D813E814F8158850A
:1000D00069857A858B850E94E90385E0EBE6F0E08F
:1000E000DE011C9601900D928A95E1F74C855D85A5
:1000F0006E857F8588890E94A40240E060E080E0F0
:100100000E94F50240E061E080E00E94F50240E0DC
:1001100062E080E060960FB6F894DEBF0FBECDBF00
:10012000DF91CF911F910F91FF90EF900C94F5020A
:10013000CF93DF93CDB7DEB72C970FB6F894DEBF21
:100140000FBECDBF80E00E94E30289839A8381E0E5
:100150000E94E3028D839E8382E00E94E3028987EE
:100160009A8729813A81B90180E090E00E94CF0707
:1001700020E030E040EA50E40E945D0820E030E0FA
:1001800040E85AE30E945D0820E030E040EC5FE385
:100190000E94BA062AE939E949E95EE30E94270785
:1001A00069837A838B839C832D813E81B90180E0B2
:1001B00090E00E94CF0720E030E040EA50E40E9447
:1001C0005D0820E030E040E85AE30E945D0820E04E
:1001D00030E040EC5FE30E94BA062AE939E949E9D8
:1001E0005EE30E9427076D837E838F83988729852E
:1001F0003A85B90180E090E00E94CF0720E030E02E
:1002000040EA50E40E945D0820E030E040E85AE314
:100210000E945D0820E030E040EC5FE30E94BA06F7
:100220002AE939E949E95EE30E94270769877A8765
:100230008B879C8780E790E00E94D60469817A8151
:100240008B819C810E9499070E94310584E790E090
:100250000E94D6046D817E818F8198850E949907C6
:100260000E94310589E790E00E94D60469857A856D
:100270008B859C850E9499070E9431058DE090E056
:100280000E94B6043FEF84E39CE0315080409040F0
:10029000E1F700C000002C960FB6F894DEBF0FBE49
:1002A000CDBFDF91CF910895CF93DF930F92CDB75C
:1002B000DEB7898341E060E080E00E94430340E0D4
:1002C00061E080E00E944303698182E00E94810333
:1002D00041E062E080E00E9443038FEC97E00197E9
:1002E000F1F700C0000040E062E080E00F90DF9195
:1002F000CF910C944303CF93DF930F92CDB7DEB72A
:10030000898340E060E080E00E94430340E061E0D8
:1003100080E00E944303698182E00E94810341E002
:1003200062E080E00E9443038FEC97E00197F1F7D1
:1003300000C0000040E062E080E00F90DF91CF91CC
:100340000C944303613009F008950C94540161301A
:1003500009F008950C947B01813009F0089541E083
:1003600060E080E00E94F50241E061E080E00E94F0
:10037000F50241E062E080E00E94F5026FEF82E06A
:100380000E9433032FEB8AED90E021508040904093
:10039000E1F700C0000088E30E947B018FEC97E04A
:1003A0000197F1F700C000008EE00E947B018FEC06
:1003B00097E00197F1F700C0000081E00E947B0107
:1003C0008FE99FE00197F1F700C0000086E00E94EE
:1003D0007B018FEC97E00197F1F700C000000895D2
:1003E0000F931F93CF938C01009771F0FC018081D4
:1003F000811551F0C0E00E945401CF5FF801EC0F6D
:10040000F11D80818111F7CFCF911F910F91089538
:10041000813048F029F480E4860F80680C947B01D9
:1004200080E80C947B01862F80680C947B014F92AE
:100430005F926F927F928F929F92AF92BF92CF9274
:10044000DF92EF92FF92CF936B017C01C42FC11416
:10045000D104E104F1040CF451C009F43FC080E080
:1004600090E0BC013B01EAE04E2E512C4B015C01B7
:10047000880C991CAA1CBB1C880C991CAA1CBB1CB0
:10048000860E971EA81EB91E880C991CAA1CBB1CA0
:10049000B601C7019201A3010E949506680D791D5E
:1004A0008A1D9B1D69017A01C114D104E104F10484
:1004B000E9F600977040604089F03AE0C32ED12CF5
:1004C000E12CF12CC13031F19601A7010E94950673
:1004D000B901CA01009770406040A1F780E3CF9155
:1004E000FF90EF90DF90CF90BF90AF909F908F9054
:1004F0007F906F905F904F900C9454018DE20E941A
:100500005401F094E094D094C094C11CD11CE11C1F
:10051000F11CA5CF2AE0822E912CA12CB12C9401A4
:10052000A5010E949506D22EE32EF42EC52F80E35E
:10053000860F0E9454016D2D7E2D8F2D9C2F0097CC
:100540007040604061F7CACFCF93DF9300D000D0F6
:100550000F92CDB7DEB749835A836B837C838D833B
:100560004130D8F43F983E985130F1F038F18B810A
:100570008130F1F035988C818130F1F0339896B16B
:10058000987F8D81892B86B9379A0F900F900F90A5
:100590000F900F90DF91CF91089591F0433021F7A4
:1005A0003F9A3E9A513011F73D9A8B81813011F775
:1005B000359A8C81813011F7339AE1CF3D98D7CFAE
:1005C0003F983E9AD1CF97B1907E892B87B9369AC2
:1005D000349BFECF349A84B125B1922F089597B100
:1005E000907E892B87B9369A08958430C0F468309C
:1005F000B0F44130A9F098F421E001C0220F6A95CF
:10060000EAF72095823039F1833031F0813039F1C9
:100610008AB382238ABB089581B3822381BB089564
:1006200021E001C0220F6A95EAF7823061F0833041
:1006300031F0813061F08AB3822B8ABB089581B397
:10064000822B81BB089584B3822B84BB089587B32A
:10065000822B87BB089584B3822384BB089587B31C
:10066000822387BB0895823049F020F4811541F040
:1006700067BB0895833031F461BB089564BB08956E
:100680006ABB089508958430C0F46830B0F44130F6
:10069000A9F098F421E001C0220F6A95EAF72095AD
:1006A000823039F1833031F0813039F18BB38223DC
:1006B0008BBB089582B3822382BB089521E001C0E1
:1006C000220F6A95EAF7823061F0833031F0813091
:1006D00061F08BB3822B8BBB089582B3822B82BBDC
:1006E000089585B3822B85BB089588B3822B88BB80
:1006F000089585B3822385BB089588B3822388BB80
:100700000895823049F020F4811541F068BB0895C6
:10071000833031F462BB089565BB08956BBB0895C7
:1007200008958430A0F4683090F421E001C0220FD5
:100730006A95EAF7823061F0833031F0813061F000
:100740008BB382278BBB089582B3822782BB089527
:1007500085B3822785BB089588B3822788BB089517
:1007600041155105A1F0843090F4683080F4823056
:1007700099F0833079F0813059F486B390E002C06B
:10078000959587956A95E2F78170FA0180830895BF
:1007900089B3F4CF80B3F2CF83B3F0CF6115710585
:1007A00071F0823091F030F4811559F086B3FB017D
:1007B00080830895833021F480B3FB018083089502
:1007C000089589B3FB018083089583B3FB0180837F
:1007D0000895EF92FF920F931F93CF93DF93CDB7BE
:1007E000DEB72B970FB6F894DEBF0FBECDBFBE2D80
:1007F000E982AF2DFA82E02F0B83912F1C83F22F19
:100800002D833E834F8358876987172F7A87082F58
:100810008B874E815F8168857985E0927E00F092BA
:100820007F00E093800090938100209382004093AA
:10083000830050938400609385007093860010932A
:1008400087008093880080ECB13009F080E8E130C7
:1008500009F47CC0E23009F460C0A13009F461C041
:10086000913068F059F0923009F47DC0933009F46A
:1008700072C0973029F48660529A02C08260529802
:1008800080BDF13008F03FC05998440F551F661FD6
:10089000771F440F551F661F771F9A01AB01220F68
:1008A000331F441F551F220F331F441F551F60E085
:1008B00072E18AE790E00E94730621503109922F7D
:1008C000832F99B980BD5798569855981150173075
:1008D00048F4E12FF0E0E453F74F0C94B406569A35
:1008E000579A559A013098F4549A53982B960FB60C
:1008F000F894DEBF0FBECDBFDF91CF911F910F9156
:10090000FF90EF90089579F080E090E0DACF01F168
:10091000023061F7549A539AE9CF8063A13009F00D
:100920009FCF88609DCF599A9A01AB01220F331F48
:10093000441F551F220F331F441F551F220F331F03
:10094000441F551FB4CF579A569ACCCF806285CF9B
:10095000539A5498CBCF8660529892CF579AC2CF71
:10096000569A559ABFCF846052988ACF9C015D9B5E
:10097000FECF80918100873011F02CB908955098F6
:1009800030FFFBCF509A2CB908955F9BFECF80912A
:100990008100873029F080E090E02CB1822B08950F
:1009A000882751998395880F990BF7CFDC01892B04
:1009B00091F09C91911579F020E05D9BFECF9CB960
:1009C0002F5F8AE18A95F1F700C0FD01E20FF11D6A
:1009D00090819111F2CF0895DC01892B09F15F9B81
:1009E000FECF8091810020E08730D9F04CB1242BDC
:1009F0002C93621701F190E09F5F5F9BFECF20E098
:100A0000873029F4222751992395220F330B4CB1BB
:100A1000FD01E90FF11D242B20836213EDCF10821D
:100A20000895222751992395220F331F4CB1242B6F
:100A30002C936213E0CFFD011082089561157105BA
:100A400079F0FC01680F791F9091810081915D9B85
:100A5000FECF973009F450988CB9E617F707B1F735
:100A600008954F925F926F927F928F929F92AF9272
:100A7000BF92CF92DF92EF92FF92CF93DF932B0141
:100A80003C0141145104610471040CF46AC009F47E
:100A900059C080E090E0BC015B015AE0852E912CAA
:100AA000D0E304C0232B242B252B71F16B017C0197
:100AB000CC0CDD1CEE1CFF1CCC0CDD1CEE1CFF1C4A
:100AC000C60ED71EE81EF91ECC0CDD1CEE1CFF1C4A
:100AD000B201C3019401A5010E9495066C0D7D1D14
:100AE0008E1D9F1D29013A01009770406040D1F68C
:100AF0005D9BFECFC0918100C73009F443C0DCB9D3
:100B0000232B242B252B91F6009770406040D1F0C9
:100B1000C09181002AE0C22ED12CE12CF12C96014B
:100B2000A7010E949506DC01CB01805D5D9BFECF95
:100B3000C73009F450988CB9B901CA0100977040C8
:100B4000604069F7DF91CF91FF90EF90DF90CF90F9
:100B5000BF90AF909F908F907F906F905F904F90DD
:100B600008955D9BFECFC0918100C73071F08DE28A
:100B70008CB97094609450944094411C511C611C39
:100B8000711C87CF5098DCB9BBCF5098F0CF549AE6
:100B90000895539A08955498089553980895089580
:100BA000579A0895569A0895559A08955798089512
:100BB0005698089555980895009721F080938D00D8
:100BC00090938E000895009721F080938B0090936E
:100BD0008C000895009721F08093890090938A00FB
:100BE00008951F920F920FB60F9211242F933F93E7
:100BF0004F935F936F937F938F939F93AF93BF9325
:100C0000EF93FF93E0918D00F0918E00309719F0F3
:100C100080E090E00995FF91EF91BF91AF919F9196
:100C20008F917F916F915F914F913F912F910F9095
:100C30000FBE0F901F9018951F920F920FB60F9234
:100C400011242F933F934F935F936F937F938F93D1
:100C50009F93AF93BF93EF93FF93E0918B00F0913D
:100C60008C00309709F00995FF91EF91BF91AF91FA
:100C70009F918F917F916F915F914F913F912F91B4
:100C80000F900FBE0F901F9018951F920F920FB6E6
:100C90000F9211242F933F934F935F936F937F9302
:100CA0008F939F93AF93BF93EF93FF93E09189004E
:100CB000F0918A00309709F00995FF91EF91BF916B
:100CC000AF919F918F917F916F915F914F913F91E4
:100CD0002F910F900FBE0F901F9018950E94490002
:100CE0000E949800FDCFA1E21A2EAA1BBB1BFD019A
:100CF0000DC0AA1FBB1FEE1FFF1FA217B307E407FB
:100D0000F50720F0A21BB30BE40BF50B661F771F52
:100D1000881F991F1A9469F7609570958095909532
:100D20009B01AC01BD01CF010895052E97FB1EF478
:100D300000940E94AC0657FD07D00E94730607FC82
:100D400003D04EF40C94AC06509540953095219507
:100D50003F4F4F4F5F4F08959095809570956195E7
:100D60007F4F8F4F9F4F0895EE0FFF1F0590F49117
:100D7000E02D09945058BB27AA270E94D2060C9454
:100D800023080E94150838F00E941C0820F039F44E
:100D90009F3F19F426F40C9412080EF4E095E7FB3B
:100DA0000C940C08E92F0E94340858F3BA17620714
:100DB00073078407950720F079F4A6F50C9456087C
:100DC0000EF4E0950B2EBA2FA02D0B01B901900166
:100DD0000C01CA01A0011124FF27591B99F0593FAA
:100DE00050F4503E68F11A16F040A22F232F342FF2
:100DF0004427585FF3CF469537952795A795F04040
:100E00005395C9F77EF41F16BA0B620B730B840B54
:100E1000BAF09150A1F0FF0FBB1F661F771F881F0C
:100E2000C2F70EC0BA0F621F731F841F48F4879564
:100E300077956795B795F7959E3F08F0B0CF939556
:100E4000880F08F09927EE0F9795879508950E94CF
:100E50003B070C9423080E941C0858F00E941508B8
:100E600040F029F45F3F29F00C940C0851110C94C8
:100E700057080C9412080E94340868F39923B1F3C0
:100E8000552391F3951B550BBB27AA2762177307B0
:100E9000840738F09F5F5F4F220F331F441FAA1F44
:100EA000A9F335D00E2E3AF0E0E832D09150504000
:100EB000E695001CCAF72BD0FE2F29D0660F771FAE
:100EC000881FBB1F261737074807AB07B0E809F094
:100ED000BB0B802DBF01FF2793585F4F3AF09E3F19
:100EE000510578F00C940C080C9457085F3FE4F31C
:100EF000983ED4F3869577956795B795F7959F5F5C
:100F0000C9F7880F911D9695879597F90895E1E0A7
:100F1000660F771F881FBB1F621773078407BA0706
:100F200020F0621B730B840BBA0BEE1F88F7E09561
:100F300008950E94A0076894B1110C945708089571
:100F40000E943C0888F09F5798F0B92F9927B75115
:100F5000B0F0E1F0660F771F881F991F1AF0BA955D
:100F6000C9F714C0B13091F00E945608B1E008955D
:100F70000C945608672F782F8827B85F39F0B93F4F
:100F8000CCF3869577956795B395D9F73EF4909510
:100F90008095709561957F4F8F4F9F4F0895E8948E
:100FA00009C097FB3EF490958095709561957F4FB1
:100FB0008F4F9F4F9923A9F0F92F96E9BB2793955F
:100FC000F695879577956795B795F111F8CFFAF46F
:100FD000BB0F11F460FF1BC06F5F7F4F8F4F9F4FA0
:100FE00016C0882311F096E911C0772321F09EE8FE
:100FF000872F762F05C0662371F096E8862F70E064
:1010000060E02AF09A95660F771F881FDAF7880F3D
:101010009695879597F9089597F99F6780E870E00E
:1010200060E008959FEF80EC089500240A9416165E
:10103000170618060906089500240A9412161306C6
:10104000140605060895092E0394000C11F4882354
:1010500052F0BB0F40F4BF2B11F460FF04C06F5F70
:101060007F4F8F4F9F4F089557FD9058440F551F46
:1010700059F05F3F71F04795880F97FB991F61F01A
:101080009F3F79F087950895121613061406551F91
:10109000F2CF4695F1DF08C0161617061806991FFD
:1010A000F1CF86957105610508940895E894BB27F2
:1010B00066277727CB0197F908950E9470080C9452
:1010C00023080E94150838F00E941C0820F0952380
:1010D00011F00C940C080C94120811240C9457086D
:1010E0000E94340870F3959FC1F3950F50E0551F8F
:1010F000629FF001729FBB27F00DB11D639FAA276D
:10110000F00DB11DAA1F649F6627B00DA11D661FBB
:10111000829F2227B00DA11D621F739FB00DA11DDC
:10112000621F839FA00D611D221F749F3327A00D96
:10113000611D231F849F600D211D822F762F6A2F32
:1011400011249F5750409AF0F1F088234AF0EE0F97
:10115000FF1FBB1F661F771F881F91505040A9F7C4
:101160009E3F510580F00C940C080C9457085F3F8B
:10117000E4F3983ED4F3869577956795B795F79500
:10118000E7959F5FC1F7FE2B880F911D9695879578
:1011900097F90895F894FFCFAE04A4047104A30452
:0611A0007004B0046F04AE
:1011A6000000000300802500000002010000000787
:0E11B600583A200020593A2000205A3A2000D2
:00000001FF
