:100000000C942A000C9447000C9447000C94470071
:100010000C9447000C9447000C9447000C94470044
:100020000C9447000C9447000C9447000C94470034
:100030000C9447000C9483050C94D7050C94AE05E2
:100040000C9447000C9447000C9447000C94470014
:100050000C94470011241FBECFE5D8E0DEBFCDBF12
:1000600010E0A0E6B0E0EAEAFCE002C005900D92E4
:10007000A439B107D9F720E0A4E9B0E001C01D928E
:10008000A53AB207E1F70E9400060C944C060C94C6
:100090000000EF92FF920F931F93CF93DF93CDB7A2
:1000A000DEB760970FB6F894DEBF0FBECDBF8BE012
:1000B000E0E6F0E0DE01119601900D928A95E1F7FD
:1000C000E980FA800B811C812D813E814F8158850A
:1000D00069857A858B850E948A0385E0EBE6F0E0EE
:1000E000DE011C9601900D928A95E1F74C855D85A5
:1000F0006E857F8588890E94450240E060E080E04F
:100100000E94960240E061E080E00E94960240E09A
:1001100062E080E00E94960280E790E060960FB671
:10012000F894DEBF0FBECDBFDF91CF911F910F912D
:10013000FF90EF900C947704CF93DF9300D000D022
:1001400000D0CDB7DEB780E00E94840289839A8315
:1001500081E00E9484028B839C8382E00E9484025F
:100160008D839E838FE790E00E94770429813A81F6
:10017000B90180E090E00E94D20482E890E00E9401
:1001800077042B813C81B90180E090E00E94D20489
:1001900085E890E00E9477042D813E81B90180E0DE
:1001A00090E00E94D2048DE090E00E9457043FEF5F
:1001B00084E39CE0315080409040E1F700C00000B3
:1001C0000F900F900F900F900F900F90DF91CF91A5
:1001D0000895CF93DF930F92CDB7DEB7898341E0C7
:1001E00060E080E00E94E40240E061E080E00E9484
:1001F000E402698182E00E94220341E062E080E043
:100200000E94E4028FEC97E00197F1F700C0000034
:1002100040E062E080E00F90DF91CF910C94E40227
:10022000CF93DF930F92CDB7DEB7898340E060E0D4
:1002300080E00E94E40240E061E080E00E94E4028D
:10024000698182E00E94220341E062E080E00E9436
:10025000E4028FEC97E00197F1F700C0000040E066
:1002600062E080E00F90DF91CF910C94E402613066
:1002700009F008950C94E900613009F008950C9498
:100280001001813009F0089541E060E080E00E94B3
:10029000960241E061E080E00E94960241E062E067
:1002A00080E00E9496026FEF82E00E94D4022FEB62
:1002B0008AED90E0215080409040E1F700C00000BE
:1002C00088E30E9410018FEC97E00197F1F700C0DE
:1002D00000008EE00E9410018FEC97E00197F1F78B
:1002E00000C0000081E00E9410018FE99FE00197AB
:1002F000F1F700C0000086E00E9410018FEC97E04B
:100300000197F1F700C0000008950F931F93CF935A
:100310008C01009771F0FC018081811551F0C0E0E3
:100320000E94E900CF5FF801EC0FF11D808181117F
:10033000F7CFCF911F910F910895813048F029F4A4
:1003400080E4860F80680C94100180E80C94100102
:10035000862F80680C9410014F925F926F927F926B
:100360008F929F92AF92BF92CF92DF92EF92FF92C5
:10037000CF936B017C01C42FB12C8EE6F7FC5FC0DC
:100380000E94E900B394EB2DF0E0E857FF4F808125
:100390008111F6CFC114D104E104F10409F43FC086
:1003A00080E090E0BC013B01EAE04E2E512C4B0175
:1003B0005C01880C991CAA1CBB1C880C991CAA1CEB
:1003C000BB1C860E971EA81EB91E880C991CAA1C61
:1003D000BB1CB601C7019201A3010E942706680D4C
:1003E000791D8A1D9B1D69017A01C114D104E104A4
:1003F000F104E9F600977040604089F03AE0C32EBE
:10040000D12CE12CF12CC13031F19601A7010E94D1
:100410002706B901CA01009770406040A1F780E348
:10042000CF91FF90EF90DF90CF90BF90AF909F90D3
:100430008F907F906F905F904F900C94E9008DE2C9
:100440000E94E900F094E094D094C094C11CD11CA7
:10045000E11CF11CA5CF2AE0822E912CA12CB12CFD
:100460009401A5010E942706D22EE32EF42EC52F5B
:1004700080E3860F0E94E9006D2D7E2D8F2D9C2F2D
:1004800000977040604061F7CACFCF93DF9300D0F0
:1004900000D00F92CDB7DEB749835A836B837C833C
:1004A0008D834130D8F43F983E985130F1F038F1C7
:1004B0008B818130F1F035988C818130F1F0339867
:1004C00096B1987F8D81892B86B9379A0F900F90BE
:1004D0000F900F900F90DF91CF91089591F04330DE
:1004E00021F73F9A3E9A513011F73D9A8B81813026
:1004F00011F7359A8C81813011F7339AE1CF3D980D
:10050000D7CF3F983E9AD1CF97B1907E892B87B9AC
:10051000369A349BFECF349A84B125B1922F089538
:1005200097B1907E892B87B9369A08958430C0F4AC
:100530006830B0F44130A9F098F421E001C0220FF6
:100540006A95EAF72095823039F1833031F08130B5
:1005500039F18AB382238ABB089581B3822381BB98
:10056000089521E001C0220F6A95EAF7823061F018
:10057000833031F0813061F08AB3822B8ABB0895D9
:1005800081B3822B81BB089584B3822B84BB0895F1
:1005900087B3822B87BB089584B3822384BB0895DD
:1005A00087B3822387BB0895823049F020F48115F8
:1005B00041F067BB0895833031F461BB089564BB9B
:1005C00008956ABB089508958430C0F46830B0F48B
:1005D0004130A9F098F421E001C0220F6A95EAF7B2
:1005E0002095823039F1833031F0813039F18BB38D
:1005F00082238BBB089582B3822382BB089521E0BE
:1006000001C0220F6A95EAF7823061F0833031F041
:10061000813061F08BB3822B8BBB089582B3822B28
:1006200082BB089585B3822B85BB089588B3822B46
:1006300088BB089585B3822385BB089588B3822340
:1006400088BB0895823049F020F4811541F068BBE1
:100650000895833031F462BB089565BB08956BBB88
:10066000089508958430A0F4683090F421E001C02A
:10067000220F6A95EAF7823061F0833031F08130E1
:1006800061F08BB382278BBB089582B3822782BB34
:10069000089585B3822785BB089588B3822788BBD8
:1006A000089541155105A1F0843090F4683080F42C
:1006B000823099F0833079F0813059F486B390E03C
:1006C00002C0959587956A95E2F78170FA0180835B
:1006D000089589B3F4CF80B3F2CF83B3F0CF61151F
:1006E000710571F0823091F030F4811559F086B3C4
:1006F000FB0180830895833021F480B3FB01808364
:100700000895089589B3FB018083089583B3FB01A5
:1007100080830895EF92FF920F931F93CF93DF93FF
:10072000CDB7DEB72B970FB6F894DEBF0FBECDBFA7
:10073000BE2DE982AF2DFA82E02F0B83912F1C830F
:10074000F22F2D833E834F8358876987172F7A872F
:10075000082F8B874E815F8168857985E0929400B0
:10076000F0929500E0939600909397002093980064
:100770004093990050939A0060939B0070939C0063
:1007800010939D0080939E0080ECB13009F080E8CA
:10079000E13009F47CC0E23009F460C0A13009F412
:1007A00061C0913068F059F0923009F47DC0933007
:1007B00009F472C0973029F48660529A02C08260B0
:1007C000529880BDF13008F03FC05998440F551F32
:1007D000661F771F440F551F661F771F9A01AB01D5
:1007E000220F331F441F551F220F331F441F551F55
:1007F00060E072E18AE790E00E940506215031092D
:10080000922F832F99B980BD5798569855981150BB
:10081000173048F4E12FF0E0E25BF94F0C94460604
:10082000569A579A559A013098F4549A53982B96A1
:100830000FB6F894DEBF0FBECDBFDF91CF911F91F1
:100840000F91FF90EF90089579F080E090E0DACF7B
:1008500001F1023061F7549A539AE9CF8063A130D5
:1008600009F09FCF88609DCF599A9A01AB01220F62
:10087000331F441F551F220F331F441F551F220FC4
:10088000331F441F551FB4CF579A569ACCCF80625E
:1008900085CF539A5498CBCF8660529892CF579A6F
:1008A000C2CF569A559ABFCF846052988ACF9C0186
:1008B0005D9BFECF80919700873011F02CB9089591
:1008C000509830FFFBCF509A2CB908955F9BFECF14
:1008D00080919700873029F080E090E02CB1822B46
:1008E0000895882751998395880F990BF7CFDC01DC
:1008F000892B91F09C91911579F020E05D9BFECFC2
:100900009CB92F5F8AE18A95F1F700C0FD01E20FE3
:10091000F11D90819111F2CF0895DC01892B09F12D
:100920005F9BFECF8091970020E08730D9F04CB1DB
:10093000242B2C93621701F190E09F5F5F9BFECF09
:1009400020E0873029F4222751992395220F330B79
:100950004CB1FD01E90FF11D242B20836213EDCF73
:1009600010820895222751992395220F331F4CB1ED
:10097000242B2C936213E0CFFD01108208956115A2
:10098000710579F0FC01680F791F909197008191B2
:100990005D9BFECF973009F450988CB9E617F707A6
:1009A000B1F708958F929F92AF92BF92CF92DF924C
:1009B000EF92FF920F931F93CF938B019C01011530
:1009C0001105210531050CF45DC009F46DC0C0911D
:1009D000970080E090E0BC015B01EAE08E2E912C54
:1009E0006B017C01CC0CDD1CEE1CFF1CCC0CDD1C57
:1009F000EE1CFF1CC60ED71EE81EF91ECC0CDD1C1B
:100A0000EE1CFF1CB801C9019401A5010E94270634
:100A10006C0D7D1D8E1D9F1D89019A01011511050B
:100A200021053105E9F6009770406040C1F02AE0E9
:100A3000C22ED12CE12CF12C9601A7010E94270691
:100A4000DC01CB01805D5D9BFECFC73009F450987F
:100A50008CB9B901CA0100977040604069F75D9B8D
:100A6000FECFC73009F4509880E38CB9CF911F9125
:100A70000F91FF90EF90DF90CF90BF90AF909F903D
:100A80008F9008955D9BFECFC0919700C73051F0C5
:100A90008DE28CB930952095109501951F4F2F4F01
:100AA0003F4F97CF5098F4CFC09197005D9BD7CF21
:100AB000D8CF549A0895539A089554980895539806
:100AC00008950895579A0895569A0895559A089545
:100AD000579808955698089555980895009721F0CD
:100AE0008093A3009093A4000895009721F0809331
:100AF000A1009093A2000895009721F080939F0099
:100B00009093A00008951F920F920FB60F92112498
:100B10002F933F934F935F936F937F938F939F9305
:100B2000AF93BF93EF93FF93E091A300F091A400E4
:100B3000309719F080E090E00995FF91EF91BF9117
:100B4000AF919F918F917F916F915F914F913F9165
:100B50002F910F900FBE0F901F9018951F920F921C
:100B60000FB60F9211242F933F934F935F936F9380
:100B70007F938F939F93AF93BF93EF93FF93E091F6
:100B8000A100F091A200309709F00995FF91EF9133
:100B9000BF91AF919F918F917F916F915F914F9195
:100BA0003F912F910F900FBE0F901F9018951F929D
:100BB0000F920FB60F9211242F933F934F935F9391
:100BC0006F937F938F939F93AF93BF93EF93FF9315
:100BD000E0919F00F091A000309709F00995FF91F6
:100BE000EF91BF91AF919F918F917F916F915F91A5
:100BF0004F913F912F910F900FBE0F901F9018951E
:100C00000E9449000E949C00FDCFA1E21A2EAA1B5F
:100C1000BB1BFD010DC0AA1FBB1FEE1FFF1FA217AC
:100C2000B307E407F50720F0A21BB30BE40BF50BA9
:100C3000661F771F881F991F1A9469F76095709532
:100C4000809590959B01AC01BD01CF010895052EC3
:100C500097FB1EF400940E943E0657FD07D00E94A9
:100C6000050607FC03D04EF40C943E0650954095C3
:100C7000309521953F4F4F4F5F4F08959095809548
:100C8000709561957F4F8F4F9F4F0895EE0FFF1F17
:100C90000590F491E02D0994F894FFCF4F0445049A
:0A0CA000120444041104510410046E
:100CAA000000000300802500000002010000000788
:100CBA0077686572652061726520796F750D0058D5
:100CCA003A00593A005A3A006E6F74206E756D6296
:040CDA00657200003F
:00000001FF
