:100000000C942A000C944F080C9478080C94A108C6
:100010000C9447000C9447000C9447000C94470044
:100020000C9447000C9447000C9447000C94470034
:100030000C948E090C94970B0C94EF0B0C94C60B3C
:100040000C9447000C9447000C9447000C94470014
:100050000C94470011241FBECFE5D8E0DEBFCDBF12
:1000600010E0A0E6B0E0E6E2FFE102C005900D92EC
:10007000A63DB107D9F721E0A6EDB0E001C01D9281
:10008000AF36B207E1F70E94180C0C948A0F0C945B
:100090000000EF92FF920F931F93CF93DF93CDB7A2
:1000A000DEB72B970FB6F894DEBF0FBECDBFFE01B3
:1000B00031968BE0DF011D928A95E9F7E980FA809D
:1000C0000B8113E020E835E240E050E062E07A8501
:1000D0008B850E94BC092B960FB6F894DEBF0FBE2D
:1000E000CDBFDF91CF911F910F91FF90EF900895B9
:1000F00090E00C94810A8230910519F00E94EB0A7D
:10010000089581E008958230910511F00C949B0AC6
:1001100008958230910511F00C94B00A089541E0E1
:1001200065E083E00E94BD0641E066E083E00E9456
:10013000BD0640E065E083E00E940B0740E066E01A
:1001400083E00C940B0741E065E083E00E940B071D
:1001500040E066E083E00E940B072FEF82E597E026
:10016000215080409040E1F700C0000040E065E091
:1001700083E00E940B0740E066E083E00C940B07ED
:1001800040E065E083E00E940B0741E066E083E029
:100190000E940B072FEF82E597E0215080409040AE
:1001A000E1F700C0000040E065E083E00E940B073B
:1001B00040E066E083E00C940B0740E065E083E0FC
:1001C0000E940B0740E066E083E00C940B07EF927F
:1001D000FF920F931F93CF93DF93C8E7D0E09CE784
:1001E000E92E90E0F92E0991F70111917F0140E08D
:1001F000602F812F0E94BD0641E0602F812F0E9459
:100200000B07F0E0CC37DF0771F7C0E7D0E084E7F9
:10021000E82E80E0F82E0991F70111917F0141E06D
:10022000602F812F0E94BD0641E0602F812F0E9428
:100230000B07F0E0C437DF0771F7DF91CF911F9113
:100240000F91FF90EF9008952F923F924F925F92FF
:100250006F927F928F929F92AF92BF92CF92DF92D6
:10026000EF92FF920F931F93CF93DF930F92CDB72F
:10027000DEB7198250E7852E50E0952E64E7662E92
:1002800060E0762EA12CB12CF4012080F3013080A7
:1002900040E0622D832D0E940B0738E7C32E30E02B
:1002A000D32E4CE7E42E40E0F42E00E010E0F601FF
:1002B0005080F7014080AE014F5F5F4F652D842D68
:1002C0000E9459078981811599F19FEFC91AD90AAE
:1002D000EFEFEE1AFE0A0F5F1F4F0430110539F7DA
:1002E000FFEF8F1A9F0A8FEF681A780A41E0622D9C
:1002F000832D0E940B079FEFA91AB90AE4E0AE16FE
:10030000B10411F61FEF812F0F90DF91CF911F9154
:100310000F91FF90EF90DF90CF90BF90AF909F90A4
:100320008F907F906F905F904F903F902F900895A7
:10033000C501880F991F880F991F805A9F4FFC0194
:10034000E00FF11F1081AE014F5F5F4F652D842DCF
:100350000E94590789818115B1F38FE39CE90197C8
:10036000F1F700C0000041E0622D832D0E940B07D1
:10037000CACFCF93DF930F92CDB7DEB789836130B9
:10038000E1F120F00F90DF91CF91089541E080E0FE
:100390000E940B0740E061E080E00E940B0769814A
:1003A000607F81E00E94490741E062E080E00E94B6
:1003B0000B078FEC97E00197F1F700C0000040E0D9
:1003C00062E080E00E940B0769816295607F81E0B6
:1003D0000E94490741E062E080E00E940B078FEC39
:1003E00097E00197F1F700C0000040E062E080E094
:1003F0000F90DF91CF910C940B0741E060E080E01B
:100400000E940B0740E061E080E00E940B076981D9
:10041000DECFCF93DF930F92CDB7DEB78983613004
:10042000E1F120F00F90DF91CF91089540E080E05E
:100430000E940B0740E061E080E00E940B076981A9
:10044000607F81E00E94490741E062E080E00E9415
:100450000B078FEC97E00197F1F700C0000040E038
:1004600062E080E00E940B0769816295607F81E015
:100470000E94490741E062E080E00E940B078FEC98
:1004800097E00197F1F700C0000040E062E080E0F3
:100490000F90DF91CF910C940B0740E060E080E07B
:1004A0000E940B0740E061E080E00E940B07698139
:1004B000DECF813009F450C008F0089541E060E0DB
:1004C0000E94BD0641E061E080E00E94BD0641E07F
:1004D00062E080E00E94BD066FEF81E00E94FB06B3
:1004E0009FEB2AED80E0915020408040E1F700C072
:1004F000000060E082E00E9409028FEC97E0019723
:10050000F1F700C0000060E088E20E9409028FEC71
:1005100097E00197F1F700C0000060E08CE00E94D6
:1005200009028FEC97E00197F1F700C0000060E04E
:1005300081E00E9409028FE99FE00197F1F700C076
:10054000000060E086E00E9409028FEC97E00197CE
:10055000F1F700C00000089541E060E080E00E94F3
:10056000BD0641E061E080E00E94BD0641E062E03E
:1005700080E00E94BD066FEF81E00E94FB062FEB3A
:100580008AED90E0215080409040E1F700C00000EB
:1005900061E088E30E9409028FEC97E00197F1F790
:1005A00000C0000061E08EE00E9409028FEC97E03D
:1005B0000197F1F700C0000061E081E00E940902AC
:1005C0008FE99FE00197F1F700C0000061E0BACF2A
:1005D0000F931F93CF93DF9300D0CDB7DEB78C017D
:1005E0006983009791F0FC018081811571F01A8276
:1005F00069810E94B901FA81FF5FFA83F8018A815B
:10060000E80FF11D80818111F3CF0F900F90DF91E2
:10061000CF911F910F910895813058F031F480E40B
:10062000860F806860E00C94090280E860E00C941A
:100630000902862F806860E00C940902FF920F93F4
:100640001F93CF93DF93CDB7DEB72C970FB6F894F7
:10065000DEBF0FBECDBF4C879F938F937F936F9369
:1006600080E890E09F938F938E010F5F1F4F1F9341
:100670000F930E94920C89810FB6F894DEBF0FBED3
:10068000CDBF811559F0F12C6C850E94B901F3940E
:10069000F801EF0DF11D80818111F6CF2C960FB678
:1006A000F894DEBF0FBECDBFDF91CF911F910F91A8
:1006B000FF90089541E00C94BD06413021F0423096
:1006C00009F0089540E00C940B07413019F04230D6
:1006D00021F0089540E00C940B0741E00C940B07C7
:1006E000CF93DF930F92CDB7DEB741E062E081E0B8
:1006F0000E940B0741E062E083E00E940B0741E0AB
:1007000062E081E00E940B0740E062E083E00E942B
:100710000B078FE097E20197F1F700C0000041E07E
:1007200062E083E00E940B079FE728E381E091509D
:1007300020408040E1F700C0000040E062E081E03E
:100740000E940B0782E00E94B7098FE00E94B70960
:1007500041E062E081E00E940B079FE728E381E02F
:10076000915020408040E1F700C0000040E062E08E
:1007700081E00E940B0784E50E94B7098DE80E9482
:10078000B70941E062E081E00E940B0740E062E0CF
:1007900081E00E940B0786E50E94B7098EE30E9464
:1007A000B70941E062E081E00E940B0740E062E0AF
:1007B00081E00E940B078AE50E94B7098EE10E9442
:1007C000B70941E062E081E00E940B0740E062E08F
:1007D00081E00E940B0788E50E94B70980E00E9433
:1007E000B70941E062E081E00E940B0740E062E06F
:1007F00081E00E940B078AE20E94B70980E40E9410
:10080000B70941E062E081E00E940B0740E062E04E
:1008100081E00E940B0782E20E94B70983E00E94F8
:10082000B70941E062E081E00E940B0740E062E02E
:1008300081E00E940B0788EA0E94B70980E00E94CD
:10084000B709898341E062E081E00E940B0789815A
:10085000837021F00F90DF91CF91089540E062E026
:1008600081E00E940B0788E20E94B70989818360BA
:100870000E94B70941E062E081E00F90DF91CF91E3
:100880000C940B07CF93DF9300D0CDB7DEB78983ED
:100890006A8340E062E081E00E940B078981880F53
:1008A0008E770E94B7098A810E94B70941E062E011
:1008B00081E00F900F90DF91CF910C940B07CF93B5
:1008C000DF930F92CDB7DEB7898340E062E081E02D
:1008D0000E940B078981880F8E7780680E94B70974
:1008E00080E00E94B709898341E062E081E00E94D4
:1008F0000B0789810F90DF91CF910895CF93DF93FC
:1009000000D000D000D00F92CDB7DEB789839A8394
:1009100040E062E081E00E940B0784E00E94B7099A
:1009200081E30E94B70941E062E081E00E940B0789
:1009300040E062E081E00E940B0788E00E94B70976
:100940008FE70E94B70941E062E081E00E940B0757
:1009500040E062E081E00E940B0782E00E94B7095C
:1009600080E00E94B70941E062E081E00E940B074D
:1009700040E062E081E00E940B0784E10E94B70939
:1009800080E10E94B70941E062E081E00E940B072C
:1009900040E062E081E00E940B0782E10E94B7091B
:1009A00086E20E94B70941E062E081E00E940B0705
:1009B00040E062E081E00E940B078AE10E94B709F3
:1009C00087E00E94B70941E062E081E00E940B07E6
:1009D00040E062E081E00E940B0782E00E94B709DC
:1009E0008CE00E94B70941E062E081E00E940B07C1
:1009F00040E062E081E00E940B078AE10E94B709B3
:100A000087E80E94B70941E062E081E00E940B079D
:100A10001C820DC020FD45C08FEC97E00197F1F7D7
:100A200000C000009C819F5F9C839436D1F140E020
:100A300062E081E00E940B0788E80E94B70980E02D
:100A40000E94B7098B8341E062E081E00E940B07BE
:100A50002B8125FFDFCF40E062E081E00E940B07A1
:100A60008AE10E94B70987E00E94B70941E062E08D
:100A700081E00E940B0740E062E081E00E940B07EA
:100A80008CE80E94B70980E00E94B7098B8341E09F
:100A900062E081E00E940B073B813B713B83311593
:100AA00051F080E027960FB6F894DEBF0FBECDBFA1
:100AB000DF91CF91089540E062E081E00E940B0752
:100AC00084E10E94B70980E10E94B70941E062E039
:100AD00081E00E940B0740E062E081E00E940B078A
:100AE00088E00E94B7098FE70E94B70941E062E001
:100AF00081E00E940B0740E062E081E00E940B076A
:100B000082E00E94B70980E00E94B70941E062E0FC
:100B100081E00E940B0740E062E081E00E940B0749
:100B200082E10E94B70983E90E94B70941E062E0CF
:100B300081E00E940B0740E062E081E00E940B0729
:100B400082E10E94B70980E20E94B70941E062E0B9
:100B500081E00E940B0740E062E081E00E940B0709
:100B60008AE10E94B70980E00E94B70941E062E093
:100B700081E00E940B0740E062E081E00E940B07E9
:100B800082E00E94B7098CE00E94B70941E062E070
:100B900081E00E940B0740E062E081E00E940B07C9
:100BA0008AE10E94B70980E80E94B70941E062E04B
:100BB00081E00E940B070EC0E0FD73CF8FEC97E041
:100BC0000197F1F700C000009B819F5F9B839436E3
:100BD00009F467CF40E062E081E00E940B0788E8FB
:100BE0000E94B70980E00E94B7098C8341E062E06F
:100BF00081E00E940B07EC81E5FFDECF40E062E080
:100C000081E00E940B078AE10E94B70980E00E9400
:100C1000B70941E062E081E00E940B0740E062E03A
:100C200081E00E940B078CE80E94B70980E00E94D7
:100C3000B7098B8341E062E081E00E940B072B81C2
:100C40002B7109F02ECF40E062E081E00E940B079B
:100C500084E90E94B70980E00E94B7098B8341E0D4
:100C600062E081E00E940B07EB81E53008F419CFC8
:100C700029813A812E833F83C90104968C839D8309
:100C800040E062E081E00E940B0782E90E94B70920
:100C900080E00E94B7098B8341E062E081E00E941E
:100CA0000B07EE81FF812B812193EE83FF838C81E3
:100CB0009D818E179F0721F740E062E081E00E944E
:100CC0000B0782E90E94B70980E00E94B7098B8375
:100CD00041E062E081E00E940B07E981FA819081A6
:100CE00081819827828198278381982781E0FB81E1
:100CF0009F1380E0880F880FD5CE8130A1F083301C
:100D000051F0811102C03E983F9886B1887F86607D
:100D100086B9379A08953E9A3F9A86B1887F866051
:100D200086B9379A08953E9A3F9886B1887F866043
:100D300086B9379A0895379A08953798089581307B
:100D400010F43D98089509F008953D9A089597B1DB
:100D5000907E892B87B90895811101C0369A089534
:100D600096B1987F892B86B90895369A349BFECF29
:100D7000349A84B125B1922F08958430C0F468303C
:100D8000B0F44130A9F098F421E001C0220F6A9537
:100D9000EAF72095823039F1833031F0813039F132
:100DA0008AB382238ABB089581B3822381BB0895CD
:100DB00021E001C0220F6A95EAF7823061F08330AA
:100DC00031F0813061F08AB3822B8ABB089581B300
:100DD000822B81BB089584B3822B84BB089587B393
:100DE000822B87BB089584B3822384BB089587B385
:100DF000822387BB0895823049F020F4811541F0A9
:100E000067BB0895833031F461BB089564BB0895D6
:100E10006ABB089508958430C0F46830B0F441305E
:100E2000A9F098F421E001C0220F6A95EAF7209515
:100E3000823039F1833031F0813039F18BB3822344
:100E40008BBB089582B3822382BB089521E001C049
:100E5000220F6A95EAF7823061F0833031F08130F9
:100E600061F08BB3822B8BBB089582B3822B82BB44
:100E7000089585B3822B85BB089588B3822B88BBE8
:100E8000089585B3822385BB089588B3822388BBE8
:100E90000895823049F020F4811541F068BB08952F
:100EA000833031F462BB089565BB08956BBB089530
:100EB000089541155105A1F0843090F4683080F414
:100EC000823099F0833079F0813059F486B390E024
:100ED00002C0959587956A95E2F78170FA01808343
:100EE000089589B3F4CF80B3F2CF83B3F0CF611507
:100EF000710571F0823091F030F4811559F086B3AC
:100F0000FB0180830895833021F480B3FB0180834B
:100F10000895089589B3FB018083089583B3FB018D
:100F2000808308958230B9F058F48115E9F088B3D0
:100F300021E001C0220F6A95EAF7822788BB089555
:100F40008330D9F482B321E001C0220F6A95EAF719
:100F5000822782BB089585B321E001C0220F6A95E4
:100F6000EAF7822785BB08958BB321E001C0220FE9
:100F70006A95EAF782278BBB089508958630B1F011
:100F8000873019F0853009F10895643069F16530D2
:100F900009F443C0663009F447C06730A9F785B744
:100FA000846085BF85B7886085BF0895643019F176
:100FB000653099F0663031F1673031F785B781607F
:100FC00085BF85B7826085BF0895663011F16730AF
:100FD000D9F684B7806484BF089585B7816085BFE2
:100FE00085B78D7F85BF089585B78B7F85BF85B712
:100FF000877F85BF089585B78E7F85BF85B78D7F35
:1010000085BF089585B78E7F85BF85B7826085BF10
:10101000089584B78F7B84BF089585B7846085BFAA
:1010200085B7877F85BF089585B78B7F85BF85B7D7
:10103000886085BF0895863049F0873019F0853083
:1010400049F008958BB780688BBF08958BB7806493
:101050008BBF08958BB780628BBF0895863049F0AF
:10106000873019F0853049F008958BB78F778BBFA3
:1010700008958BB78F7B8BBF08958BB78F7D8BBF08
:101080000895833058F46115710541F0E82FF0E0C0
:10109000EE0FFF1FEA52FF4F6083718308951F9286
:1010A0000F920FB60F9211242F933F934F935F939C
:1010B0006F937F938F939F93AF93BF93EF93FF9320
:1010C000E091D600F091D700309709F00995FF9193
:1010D000EF91BF91AF919F918F917F916F915F91B0
:1010E0004F913F912F910F900FBE0F901F90189529
:1010F0001F920F920FB60F9211242F933F934F938D
:101100005F936F937F938F939F93AF93BF93EF936F
:10111000FF93E091D800F091D900309709F009953C
:10112000FF91EF91BF91AF919F918F917F916F91BF
:101130005F914F913F912F910F900FBE0F901F9095
:1011400018951F920F920FB60F9211242F933F9371
:101150004F935F936F937F938F939F93AF93BF93BF
:10116000EF93FF93E091DA00F091DB00309709F004
:101170000995FF91EF91BF91AF919F918F917F91D1
:101180006F915F914F913F912F910F900FBE0F90F4
:101190001F9018958FB780688FBF08958FB78F778E
:1011A0008FBF08950F931F93CF93DF93CDB7DEB713
:1011B0002B970FB6F894DEBF0FBECDBF902F0983DB
:1011C0001A832A872B833B873C83042F4D83152F5B
:1011D0005E836F83788789876E9A913009F45CC04B
:1011E00008F440C08A8581111CC06D988B858111DF
:1011F0001FC06B98013010F56A98113019F1123048
:1012000021F1133009F473C0143009F460C01530B3
:1012100009F460C0163009F061C06998689A709A44
:1012200016C08A85813011F76D9A8B85811509F377
:101230008B858130F9F66B9A0130F0F2F1F66A9AFB
:101240001130E9F66998689802C06998689A2B96F7
:101250000FB6F894DEBF0FBECDBFDF91CF911F91C7
:101260000F91089540E064E081E00E940B0740E0A8
:1012700065E081E00E940B0741E066E081E00E94AA
:101280000B0740E067E081E00E940B0740E064E06C
:1012900081E00E940B07A6CF6C9A41E064E081E0F8
:1012A0000E940B0741E065E081E00E940B0740E0EF
:1012B00066E081E00E940B0741E067E081E00E9468
:1012C0000B0741E064E081E00E940B078BCF699A35
:1012D000689ABDCF69986898709AB9CF173051F065
:1012E000183009F0B4CF699A689A709AB0CF699AA9
:1012F0006898ADCF699A6898709AA9CF6F9A089547
:101300006F9808958FB980E00895779BFECF8FB1D5
:1013100008958093DC009093DD0008951F920F9252
:101320000FB60F9211242F933F934F935F936F93B8
:101330007F938F939F93AF93BF93EF93FF93E0912E
:10134000DC00F091DD00309709F00995FF91EF91F5
:10135000BF91AF919F918F917F916F915F914F91CD
:101360003F912F910F900FBE0F901F9018958FB93E
:10137000779BFECF8FB10895EF92FF920F931F934B
:10138000CF93DF93CDB7DEB72B970FB6F894DEBFC0
:101390000FBECDBFAE2DE982FF2DFA82E02F0B8369
:1013A000912F1C832D833E834F835887062F698797
:1013B000672F7A87182F8B872D813E814F81588523
:1013C000E092E000F092E100E093E2009093E3000D
:1013D0002093E4003093E5004093E6005093E7004B
:1013E0000093E8007093E9008093EA0080ECA1305C
:1013F00009F080E8E13009F474C0E23009F45AC021
:10140000F13009F45BC0913058F009F46FC09230AC
:1014100009F475C0933009F46BC0973009F468C0C3
:1014200080BD6130E8F55998220F331F441F551FC6
:10143000220F331F441F551F220F331F441F551FF8
:10144000220F331F441F551F60E072E18AE790E0CE
:101450000E94500C21503109922F832F99B980BDE1
:101460005798569855981150173048F4E12FF0E0EE
:10147000E457F04F0C94720C569A579A559A0130D3
:1014800098F4549A53982B960FB6F894DEBF0FBE7B
:10149000CDBFDF91CF911F910F91FF90EF900895F5
:1014A00079F080E090E0DACFF1F0023061F7549A01
:1014B000539AE9CF8063F13009F0A5CF8860A3CFBC
:1014C000599A220F331F441F551F220F331F441FE9
:1014D000551F220F331F441F551FB6CF579A569AD8
:1014E000CECF80628DCF539A5498CDCF826098CF63
:1014F000866096CF579AC3CF569A559AC0CF8460CC
:101500008FCF9C015D9BFECF8091E300893011F06D
:101510002CB90895509830FFFBCF509A2CB90895FC
:101520005F9BFECF8091E300893009F48AB18CB1D2
:101530008CB190E00895DC019C91911581F020E040
:101540008091E3005D9BFECF893009F450989CB9EF
:101550002F5FFD01E20FF11D90819111F3CF0895EE
:10156000DC01892BD9F05F9BFECF8091E3008930AD
:10157000B1F09CB19CB19C936917B9F090E09F5F6A
:101580005F9BFECF893009F42AB12CB12CB1FD014B
:10159000E90FF11D20836213F2CF108208959AB1F2
:1015A0009CB19CB19C936913E9CFFD011082089511
:1015B0006115710579F0FC01680F791F9091E300C6
:1015C00081915D9BFECF993009F450988CB9E61754
:1015D000F707B1F70895CF93DF9300D000D0CDB7D0
:1015E000DEB789839A83A4E6B0E09A01AB010E943A
:1015F000780CAB01BC01E981FA81EB83FC8320E02C
:10160000A0E0CD015F9927C0A0E0B0E0CD010BC004
:101610000196A11DB11DEFECF7E03197F1F700C085
:1016200000005F9918C084179507A607B70780F3D5
:1016300081E0211549F0E981FA81E20FF11DE20F05
:10164000F11D1082118280E00F900F900F900F908B
:10165000DF91CF91089584179507A607B70740F744
:101660008CB190E0EB81FC81808311828D309105FB
:1016700069F00A9759F02F5F203471F08B819C81BB
:1016800002968B839C835F9BBFCFEACFEB81FC816B
:101690001082118280E0D8CFE981FA81E258FF4FB1
:1016A0001082118280E0D0CFDC019091DE00209189
:1016B000DF002917A9F0E92FF0E0EE0FFF1FE1513D
:1016C000FF4F208131812D933D939F5F903420F413
:1016D0009093DE0081E008951092DE0081E008958D
:1016E00080E00895549A0895539A0895549808955F
:1016F000539808958CB90895579A0895569A089565
:10170000559A0895579808955698089555980895AC
:101710000895009721F08093ED009093EE000895D6
:10172000009721F08093EB009093EC0008952F93A5
:101730002FB72F933F938F939F93EF93FF938091B6
:10174000E3008730D9F02CB130E08091DF00E82F42
:10175000F0E08F5F803408F080E0EE0FFF1FE15172
:10176000FF4F208331838093DF00FF91EF919F91A2
:101770008F913F912F912FBF2F9118958AB1869508
:101780002CB130E080FFE1CF31E0DFCF1F920F922C
:101790000FB60F9211242F933F934F935F936F9344
:1017A0007F938F939F93AF93BF93EF93FF93E091BA
:1017B000ED00F091EE00309709F00995FF91EF915F
:1017C000BF91AF919F918F917F916F915F914F9159
:1017D0003F912F910F900FBE0F901F9018951F9261
:1017E0000F920FB60F9211242F933F934F935F9355
:1017F0006F937F938F939F93AF93BF93EF93FF93D9
:10180000E091EB00F091EC00309709F00995FF9121
:10181000EF91BF91AF919F918F917F916F915F9168
:101820004F913F912F910F900FBE0F901F901895E1
:10183000CDB7DEB7C456D1090FB6F894DEBF0FBEE0
:10184000CDBF8E010F5F1F4F84E6F80111928A957C
:10185000E9F70E94490084E890E00E9483008EE945
:1018600090E00E9483008BEB90E00E9483006DE08B
:10187000C8010E9489008AEC90E00E948300C801A0
:101880000E9483008BE990E00E948300FFEF24E335
:101890008CE0F15020408040E1F700C00000E3CF31
:1018A000A1E21A2EAA1BBB1BFD010DC0AA1FBB1F64
:1018B000EE1FFF1FA217B307E407F50720F0A21BD6
:1018C000B30BE40BF50B661F771F881F991F1A9443
:1018D00069F760957095809590959B01AC01BD016D
:1018E000CF010895EE0FFF1F0590F491E02D0994AC
:1018F0000E94830CA59F900DB49F900DA49F800D16
:10190000911D11240895A29FB001B39FC001A39F10
:10191000700D811D1124911DB29F700D811D112428
:10192000911D0895AEE0B0E0E8E9FCE00C94630F8F
:1019300086E08C832B893C8929833A838FEF9FE74C
:101940008D839E83AE01495E5F4F6D897E89CE0196
:1019500001960E94B60CEF81F8852B893C89E20F35
:10196000F31F10822E96E2E00C947F0FABE0B0E004
:10197000ECEBFCE00C94560F6C017B018A01FC013E
:1019800016821782838181FFDFC13AE0532EF60170
:101990002381F70123FD859123FF81917F0181152B
:1019A00009F437C1853239F423FD959123FF9191D4
:1019B0007F01953229F4B60190E00E94BD0EE7CF79
:1019C00030E0912C612C712CF0E27F1640F59B32B7
:1019D000D9F058F49032D1F09332F1F09E3291F573
:1019E00076FC17C1689476F806C09D3291F090336A
:1019F000C1F4689470F8F70123FD959123FF91914C
:101A00007F019111E1CF28C0689471F8689472F851
:101A1000F2CF689473F8EFCF689474F8ECCF77FC4A
:101A20001BC080ED890F8A30C8F676FE05C0959CF4
:101A3000800D1124982EDFCF659C800D1124682E17
:101A40007F2AD9CF9C3619F4689477F8D4CF9C3488
:101A500009F445C0983679F2892F8F7D85548330FB
:101A600008F43FC0933609F461C0933709F46BC0A2
:101A7000933509F477C0943619F0993609F0A4C06B
:101A8000F80177FE9AC061917191819191918F01D6
:101A9000272D2F76822E97FF04C00E944B0F68944B
:101AA00087F82AE030E05E014FEFA41AB40AA501DE
:101AB0000E94ED0E782E7A1886FECFC0882D8E7F7C
:101AC000791408F0C9C084FE1DC182FC11C12EEE3C
:101AD0008222B92C882D867809F4CBC00EC131E062
:101AE0008ACF311501F1085F1F4F8FE3898321E011
:101AF000822E912C5E012FEFA21AB20AE89477F899
:101B000073FC03C086149104F0F18114910409F070
:101B100041C0611409F43BCFB60180E290E00E941D
:101B2000BD0E6A94F6CF0C5F1F4FDFCFF8018081A6
:101B300089830E5F1F4F91E0892E912C5E01FFEF8C
:101B4000AF1ABF0ADBCFF801A190B1908F01692DC8
:101B500070E076FC02C06FEF7FEFC5010E94B20E0D
:101B60004C01CCCFF801A190B1908F01692D70E0AC
:101B700076FC02C06FEF7FEFC5010E94A70E4C01FB
:101B8000689477F8BDCFB60180E290E00E94BD0E68
:101B90006A94B8CFF50177FC859177FE81915F015A
:101BA000B60190E00E94BD0E81E0611001C080E0AE
:101BB000681AF1E08F1A9108A8CF61917191872F6F
:101BC000880F880B982F63CF9537C9F4872CE8943A
:101BD00084F82AE030E0F80187FE39C06191719104
:101BE000819191918F015E01FFEFAF1ABF0AA501AC
:101BF0000E94ED0E782E7A18E89487F85DCF872D35
:101C0000897F882E903799F058F49835A9F09F363F
:101C1000D9F0F601868197812B96EFE00C94720F34
:101C20009837B9F774FC05C020E130E0D4CF689450
:101C300084F8689482F8F8CF74FE03C0E72DE6605C
:101C40008E2E20E132E0C7CF28E030E0C4CF619192
:101C5000719180E090E0C6CF882EB72C84FE3ACFF9
:101C6000FE01E70DF11D8081803309F044C049EE8B
:101C7000842283FC0EC080FE51C0972CB61418F449
:101C8000960C9B18B62C862D8B196B1408F480E0EB
:101C9000B80EB61408F044C06B1884FE43C0B601F9
:101CA00080E390E00E94BD0E82FE09C088E590E0CE
:101CB00081FC02C088E790E0B6010E94BD0E791455
:101CC000E0F15E018FEFA81AB80A7A9482E0882EBC
:101CD000912C8C0E9D1E870C911CF40182914F015A
:101CE000B60190E00E94BD0E8A149B04B1F711CF9B
:101CF000B92C882EB5CF82FC02C0B394BACFB3946E
:101D0000B394B7CFB92C882EE5CEB60180E290E02F
:101D10000E94BD0EA394A614C0F3B5CFAB2CFBCF8D
:101D2000612CBBCF882D867851F280E281FC8BE25A
:101D300087FC8DE2B60190E0C0CFB60180E390E071
:101D40000E94BD0E9A94BBCF8FEF9FEF65CFFC0131
:101D50000590615070400110D8F7809590958E0FD6
:101D60009F1F0895FC016150704001900110D8F749
:101D7000809590958E0F9F1F08950F931F93CF937B
:101D8000DF93182F092FEB018B8181FD09C00FEF25
:101D90001FEF812F902FDF91CF911F910F91089509
:101DA00082FF14C02E813F818C819D8128173907C5
:101DB0003CF4E881F981CF010196888399831083EF
:101DC0008E819F8101968E839F83E3CFE885F9857D
:101DD000812F0995892BA1F3DACFFA01AA272830A0
:101DE00051F1203181F1E8946F936E7F6E5F7F4FE8
:101DF0008F4F9F4FAF4FB1E03ED0B4E03CD0670F64
:101E0000781F891F9A1FA11D680F791F8A1F911DB6
:101E1000A11D6A0F711D811D911DA11D20D009F406
:101E200068943F912AE0269F11243019305D319348
:101E3000DEF6CF010895462F4770405D4193B3E031
:101E40000FD0C9F7F6CF462F4F70405D4A3318F0D8
:101E5000495D31FD4052419302D0A9F7EACFB4E089
:101E6000A6959795879577956795BA95C9F7009741
:101E70006105710508959B01AC010A2E06945795E2
:101E8000479537952795BA95C9F7620F731F841F39
:101E9000951FA01D089590958095709561957F4F31
:101EA0008F4F9F4F08952F923F924F925F926F9264
:101EB0007F928F929F92AF92BF92CF92DF92EF92DA
:101EC000FF920F931F93CF93DF93CDB7DEB7CA1B5B
:101ED000DB0B0FB6F894DEBF0FBECDBF09942A8886
:101EE000398848885F846E847D848C849B84AA842E
:101EF000B984C884DF80EE80FD800C811B81AA81BB
:101F0000B981CE0FD11D0FB6F894DEBF0FBECDBF85
:101F1000ED010895F894FFCF7A0A6F0A3E0A6E0A1F
:061F20003D0A7C0A3C0AA8
:101F260031323341343536423738394345305844F7
:101F3600000102030202020204050607020202026F
:101F4600256C750057656C636F6D6520746F204254
:101F56006C7565746F6F74682021200D0A00426CE1
:101F66007565746F6F746820526561647920666F59
:101F76007220416374696F6E0D0A000D0A456E7416
:101F8600657220746578743A2000596F7520736500
:061F96006E743A20000009
:00000001FF
